{
  "contractName": "BridgeEth",
  "abi": [
    {
      "inputs": [
        {
          "internalType": "address",
          "name": "token",
          "type": "address"
        }
      ],
      "stateMutability": "nonpayable",
      "type": "constructor"
    },
    {
      "anonymous": false,
      "inputs": [
        {
          "indexed": false,
          "internalType": "address",
          "name": "from",
          "type": "address"
        },
        {
          "indexed": false,
          "internalType": "address",
          "name": "to",
          "type": "address"
        },
        {
          "indexed": false,
          "internalType": "uint256",
          "name": "amount",
          "type": "uint256"
        },
        {
          "indexed": false,
          "internalType": "uint256",
          "name": "date",
          "type": "uint256"
        },
        {
          "indexed": false,
          "internalType": "uint256",
          "name": "nonce",
          "type": "uint256"
        },
        {
          "indexed": false,
          "internalType": "bytes",
          "name": "signature",
          "type": "bytes"
        },
        {
          "indexed": true,
          "internalType": "enum BridgeBase.Step",
          "name": "step",
          "type": "uint8"
        }
      ],
      "name": "Transfer",
      "type": "event"
    },
    {
      "inputs": [],
      "name": "admin",
      "outputs": [
        {
          "internalType": "address",
          "name": "",
          "type": "address"
        }
      ],
      "stateMutability": "view",
      "type": "function",
      "constant": true
    },
    {
      "inputs": [
        {
          "internalType": "address",
          "name": "to",
          "type": "address"
        },
        {
          "internalType": "uint256",
          "name": "amount",
          "type": "uint256"
        },
        {
          "internalType": "uint256",
          "name": "nonce",
          "type": "uint256"
        },
        {
          "internalType": "bytes",
          "name": "signature",
          "type": "bytes"
        }
      ],
      "name": "burn",
      "outputs": [],
      "stateMutability": "nonpayable",
      "type": "function"
    },
    {
      "inputs": [
        {
          "internalType": "address",
          "name": "from",
          "type": "address"
        },
        {
          "internalType": "address",
          "name": "to",
          "type": "address"
        },
        {
          "internalType": "uint256",
          "name": "amount",
          "type": "uint256"
        },
        {
          "internalType": "uint256",
          "name": "nonce",
          "type": "uint256"
        },
        {
          "internalType": "bytes",
          "name": "signature",
          "type": "bytes"
        }
      ],
      "name": "mint",
      "outputs": [],
      "stateMutability": "nonpayable",
      "type": "function"
    },
    {
      "inputs": [
        {
          "internalType": "address",
          "name": "",
          "type": "address"
        },
        {
          "internalType": "uint256",
          "name": "",
          "type": "uint256"
        }
      ],
      "name": "processedNonces",
      "outputs": [
        {
          "internalType": "bool",
          "name": "",
          "type": "bool"
        }
      ],
      "stateMutability": "view",
      "type": "function",
      "constant": true
    },
    {
      "inputs": [],
      "name": "token",
      "outputs": [
        {
          "internalType": "contract IToken",
          "name": "",
          "type": "address"
        }
      ],
      "stateMutability": "view",
      "type": "function",
      "constant": true
    }
  ],
  "bytecode": "0x608060405234801561001057600080fd5b50604051610f42380380610f42833981810160405281019061003291906100d0565b80336000806101000a81548173ffffffffffffffffffffffffffffffffffffffff021916908373ffffffffffffffffffffffffffffffffffffffff16021790555080600160006101000a81548173ffffffffffffffffffffffffffffffffffffffff021916908373ffffffffffffffffffffffffffffffffffffffff1602179055505050610142565b6000815190506100ca8161012b565b92915050565b6000602082840312156100e257600080fd5b60006100f0848285016100bb565b91505092915050565b60006101048261010b565b9050919050565b600073ffffffffffffffffffffffffffffffffffffffff82169050919050565b610134816100f9565b811461013f57600080fd5b50565b610df1806101516000396000f3fe608060405234801561001057600080fd5b50600436106100575760003560e01c8063525557021461005c5780637cc70240146100785780638a94b05f146100a8578063f851a440146100c4578063fc0c546a146100e2575b600080fd5b610076600480360381019061007191906107ed565b610100565b005b610092600480360381019061008d919061087f565b61040d565b60405161009f9190610b6c565b60405180910390f35b6100c260048036038101906100bd91906108bb565b61043c565b005b6100cc61065c565b6040516100d99190610abe565b60405180910390f35b6100ea610680565b6040516100f79190610bcc565b60405180910390f35b6000868686866040516020016101199493929190610a70565b6040516020818303038152906040528051906020012090508673ffffffffffffffffffffffffffffffffffffffff166101968285858080601f016020809104026020016040519081016040528093929190818152602001838380828437600081840152601f19601f820116905080830192505050505050506106a6565b73ffffffffffffffffffffffffffffffffffffffff16146101ec576040517f08c379a00000000000000000000000000000000000000000000000000000000081526004016101e390610c07565b60405180910390fd5b60001515600260008973ffffffffffffffffffffffffffffffffffffffff1673ffffffffffffffffffffffffffffffffffffffff168152602001908152602001600020600086815260200190815260200160002060009054906101000a900460ff16151514610290576040517f08c379a000000000000000000000000000000000000000000000000000000000815260040161028790610be7565b60405180910390fd5b6001600260008973ffffffffffffffffffffffffffffffffffffffff1673ffffffffffffffffffffffffffffffffffffffff168152602001908152602001600020600086815260200190815260200160002060006101000a81548160ff021916908315150217905550600160009054906101000a900473ffffffffffffffffffffffffffffffffffffffff1673ffffffffffffffffffffffffffffffffffffffff166340c10f1987876040518363ffffffff1660e01b8152600401610356929190610b43565b600060405180830381600087803b15801561037057600080fd5b505af1158015610384573d6000803e3d6000fd5b505050506001808111156103c1577f4e487b7100000000000000000000000000000000000000000000000000000000600052602160045260246000fd5b7fce5a9b86edd3b998c3948a7934c7ecf7dba73c4c5bcf56cf576bca4aa2beeb30888888428989896040516103fc9796959493929190610ad9565b60405180910390a250505050505050565b60026020528160005260406000206020528060005260406000206000915091509054906101000a900460ff1681565b60001515600260003373ffffffffffffffffffffffffffffffffffffffff1673ffffffffffffffffffffffffffffffffffffffff168152602001908152602001600020600085815260200190815260200160002060009054906101000a900460ff161515146104e0576040517f08c379a00000000000000000000000000000000000000000000000000000000081526004016104d790610be7565b60405180910390fd5b6001600260003373ffffffffffffffffffffffffffffffffffffffff1673ffffffffffffffffffffffffffffffffffffffff168152602001908152602001600020600085815260200190815260200160002060006101000a81548160ff021916908315150217905550600160009054906101000a900473ffffffffffffffffffffffffffffffffffffffff1673ffffffffffffffffffffffffffffffffffffffff16639dc29fac33866040518363ffffffff1660e01b81526004016105a6929190610b43565b600060405180830381600087803b1580156105c057600080fd5b505af11580156105d4573d6000803e3d6000fd5b5050505060006001811115610612577f4e487b7100000000000000000000000000000000000000000000000000000000600052602160045260246000fd5b7fce5a9b86edd3b998c3948a7934c7ecf7dba73c4c5bcf56cf576bca4aa2beeb303387874288888860405161064d9796959493929190610ad9565b60405180910390a25050505050565b60008054906101000a900473ffffffffffffffffffffffffffffffffffffffff1681565b600160009054906101000a900473ffffffffffffffffffffffffffffffffffffffff1681565b60008060008060418551146106c15760009350505050610773565b6020850151925060408501519150606085015160001a9050601b8160ff1610156106f557601b816106f29190610c49565b90505b601b8160ff161415801561070d5750601c8160ff1614155b1561071e5760009350505050610773565b600186828585604051600081526020016040526040516107419493929190610b87565b6020604051602081039080840390855afa158015610763573d6000803e3d6000fd5b5050506020604051035193505050505b92915050565b60008135905061078881610d8d565b92915050565b60008083601f8401126107a057600080fd5b8235905067ffffffffffffffff8111156107b957600080fd5b6020830191508360018202830111156107d157600080fd5b9250929050565b6000813590506107e781610da4565b92915050565b60008060008060008060a0878903121561080657600080fd5b600061081489828a01610779565b965050602061082589828a01610779565b955050604061083689828a016107d8565b945050606061084789828a016107d8565b935050608087013567ffffffffffffffff81111561086457600080fd5b61087089828a0161078e565b92509250509295509295509295565b6000806040838503121561089257600080fd5b60006108a085828601610779565b92505060206108b1858286016107d8565b9150509250929050565b6000806000806000608086880312156108d357600080fd5b60006108e188828901610779565b95505060206108f2888289016107d8565b9450506040610903888289016107d8565b935050606086013567ffffffffffffffff81111561092057600080fd5b61092c8882890161078e565b92509250509295509295909350565b61094481610c80565b82525050565b61095b61095682610c80565b610d12565b82525050565b61096a81610c92565b82525050565b61097981610c9e565b82525050565b600061098b8385610c27565b9350610998838584610d03565b6109a183610d6f565b840190509392505050565b6109b581610cdf565b82525050565b60006109c8601a83610c38565b91507f7472616e7366657220616c72656164792070726f6365737365640000000000006000830152602082019050919050565b6000610a08600f83610c38565b91507f77726f6e67207369676e617475726500000000000000000000000000000000006000830152602082019050919050565b610a4481610cc8565b82525050565b610a5b610a5682610cc8565b610d36565b82525050565b610a6a81610cd2565b82525050565b6000610a7c828761094a565b601482019150610a8c828661094a565b601482019150610a9c8285610a4a565b602082019150610aac8284610a4a565b60208201915081905095945050505050565b6000602082019050610ad3600083018461093b565b92915050565b600060c082019050610aee600083018a61093b565b610afb602083018961093b565b610b086040830188610a3b565b610b156060830187610a3b565b610b226080830186610a3b565b81810360a0830152610b3581848661097f565b905098975050505050505050565b6000604082019050610b58600083018561093b565b610b656020830184610a3b565b9392505050565b6000602082019050610b816000830184610961565b92915050565b6000608082019050610b9c6000830187610970565b610ba96020830186610a61565b610bb66040830185610970565b610bc36060830184610970565b95945050505050565b6000602082019050610be160008301846109ac565b92915050565b60006020820190508181036000830152610c00816109bb565b9050919050565b60006020820190508181036000830152610c20816109fb565b9050919050565b600082825260208201905092915050565b600082825260208201905092915050565b6000610c5482610cd2565b9150610c5f83610cd2565b92508260ff03821115610c7557610c74610d40565b5b828201905092915050565b6000610c8b82610ca8565b9050919050565b60008115159050919050565b6000819050919050565b600073ffffffffffffffffffffffffffffffffffffffff82169050919050565b6000819050919050565b600060ff82169050919050565b6000610cea82610cf1565b9050919050565b6000610cfc82610ca8565b9050919050565b82818337600083830152505050565b6000610d1d82610d24565b9050919050565b6000610d2f82610d80565b9050919050565b6000819050919050565b7f4e487b7100000000000000000000000000000000000000000000000000000000600052601160045260246000fd5b6000601f19601f8301169050919050565b60008160601b9050919050565b610d9681610c80565b8114610da157600080fd5b50565b610dad81610cc8565b8114610db857600080fd5b5056fea2646970667358221220b7c16d4382516ad3315986775964830f9ab39ff40c1f56d16e9b885dc51d848164736f6c63430008000033",
  "immutableReferences": {},
  "source": "pragma solidity ^0.8.0;\n\nimport './BridgeBase.sol';\n\ncontract BridgeEth is BridgeBase {\n  constructor(address token) BridgeBase(token) {}\n}",
  "sourcePath": "/home/ubuntu/Desktop/Blockchain Talent Program/YieldFarming/Yield_Farming_v3/src/contracts/BridgeEth.sol",
  "compiler": {
    "name": "solc",
    "version": "0.8.0+commit.c7dfd78e.Emscripten.clang"
  },
  "schemaVersion": "3.4.1",
  "updatedAt": "2021-07-23T05:52:34.119Z",
  "networkType": "ethereum",
  "devdoc": {
    "kind": "dev",
    "methods": {},
    "version": 1
  },
  "userdoc": {
    "kind": "user",
    "methods": {},
    "version": 1
  }
}