{
  "contractName": "NPXSXEMigrationV1",
  "abi": [
    {
      "inputs": [
        {
          "internalType": "contract NPXSXEMToken",
          "name": "_npxsxemToken",
          "type": "address"
        },
        {
          "internalType": "contract PurseToken",
          "name": "_purseToken",
          "type": "address"
        }
      ],
      "stateMutability": "nonpayable",
      "type": "constructor"
    },
    {
      "inputs": [
        {
          "internalType": "address",
          "name": "",
          "type": "address"
        }
      ],
      "name": "migrateCount",
      "outputs": [
        {
          "internalType": "uint256",
          "name": "",
          "type": "uint256"
        }
      ],
      "stateMutability": "view",
      "type": "function"
    },
    {
      "inputs": [
        {
          "internalType": "address",
          "name": "",
          "type": "address"
        },
        {
          "internalType": "uint256",
          "name": "",
          "type": "uint256"
        },
        {
          "internalType": "uint256",
          "name": "",
          "type": "uint256"
        }
      ],
      "name": "migrator",
      "outputs": [
        {
          "internalType": "uint256",
          "name": "migrateCount",
          "type": "uint256"
        },
        {
          "internalType": "uint256",
          "name": "releaseIteration",
          "type": "uint256"
        },
        {
          "internalType": "uint256",
          "name": "migrateBalance",
          "type": "uint256"
        },
        {
          "internalType": "uint256",
          "name": "unlockTime",
          "type": "uint256"
        },
        {
          "internalType": "bool",
          "name": "isRedeem",
          "type": "bool"
        }
      ],
      "stateMutability": "view",
      "type": "function"
    },
    {
      "inputs": [],
      "name": "name",
      "outputs": [
        {
          "internalType": "string",
          "name": "",
          "type": "string"
        }
      ],
      "stateMutability": "view",
      "type": "function"
    },
    {
      "inputs": [],
      "name": "npxsxemToken",
      "outputs": [
        {
          "internalType": "contract NPXSXEMToken",
          "name": "",
          "type": "address"
        }
      ],
      "stateMutability": "view",
      "type": "function"
    },
    {
      "inputs": [],
      "name": "owner",
      "outputs": [
        {
          "internalType": "address",
          "name": "",
          "type": "address"
        }
      ],
      "stateMutability": "view",
      "type": "function"
    },
    {
      "inputs": [],
      "name": "purseToken",
      "outputs": [
        {
          "internalType": "contract PurseToken",
          "name": "",
          "type": "address"
        }
      ],
      "stateMutability": "view",
      "type": "function"
    },
    {
      "inputs": [],
      "name": "releaseDuration",
      "outputs": [
        {
          "internalType": "uint256",
          "name": "",
          "type": "uint256"
        }
      ],
      "stateMutability": "view",
      "type": "function"
    },
    {
      "inputs": [
        {
          "internalType": "address",
          "name": "",
          "type": "address"
        },
        {
          "internalType": "uint256",
          "name": "",
          "type": "uint256"
        }
      ],
      "name": "releaseIteration",
      "outputs": [
        {
          "internalType": "uint256",
          "name": "",
          "type": "uint256"
        }
      ],
      "stateMutability": "view",
      "type": "function"
    },
    {
      "inputs": [],
      "name": "validDuration",
      "outputs": [
        {
          "internalType": "uint256",
          "name": "",
          "type": "uint256"
        }
      ],
      "stateMutability": "view",
      "type": "function"
    },
    {
      "inputs": [
        {
          "internalType": "uint256",
          "name": "_amount",
          "type": "uint256"
        }
      ],
      "name": "migrateNPXSXEM",
      "outputs": [],
      "stateMutability": "nonpayable",
      "type": "function"
    },
    {
      "inputs": [
        {
          "internalType": "uint256",
          "name": "_migrateCount",
          "type": "uint256"
        },
        {
          "internalType": "uint256",
          "name": "_releaseIteration",
          "type": "uint256"
        }
      ],
      "name": "release",
      "outputs": [],
      "stateMutability": "nonpayable",
      "type": "function"
    }
  ],
  "bytecode": "0x60806040526040518060400160405280601181526020017f4e50585358454d204d6967726174696f6e00000000000000000000000000000081525060009080519060200190620000519291906200015c565b5060026004553480156200006457600080fd5b50604051620016ad380380620016ad83398181016040528101906200008a91906200023a565b81600160006101000a81548173ffffffffffffffffffffffffffffffffffffffff021916908373ffffffffffffffffffffffffffffffffffffffff16021790555080600260006101000a81548173ffffffffffffffffffffffffffffffffffffffff021916908373ffffffffffffffffffffffffffffffffffffffff16021790555033600360006101000a81548173ffffffffffffffffffffffffffffffffffffffff021916908373ffffffffffffffffffffffffffffffffffffffff16021790555042600581905550505062000370565b8280546200016a90620002d7565b90600052602060002090601f0160209004810192826200018e5760008555620001da565b82601f10620001a957805160ff1916838001178555620001da565b82800160010185558215620001da579182015b82811115620001d9578251825591602001919060010190620001bc565b5b509050620001e99190620001ed565b5090565b5b8082111562000208576000816000905550600101620001ee565b5090565b6000815190506200021d816200033c565b92915050565b600081519050620002348162000356565b92915050565b600080604083850312156200024e57600080fd5b60006200025e858286016200020c565b9250506020620002718582860162000223565b9150509250929050565b60006200028882620002b7565b9050919050565b60006200029c826200027b565b9050919050565b6000620002b0826200027b565b9050919050565b600073ffffffffffffffffffffffffffffffffffffffff82169050919050565b60006002820490506001821680620002f057607f821691505b602082108114156200030757620003066200030d565b5b50919050565b7f4e487b7100000000000000000000000000000000000000000000000000000000600052602260045260246000fd5b62000347816200028f565b81146200035357600080fd5b50565b6200036181620002a3565b81146200036d57600080fd5b50565b61132d80620003806000396000f3fe608060405234801561001057600080fd5b50600436106100a95760003560e01c8063575f716011610071578063575f716014610142578063714443ac1461017257806384fe8cbf146101a65780638da5cb5b146101c2578063b9f015cd146101e0578063f9b4189114610210576100a9565b806306fdde03146100ae57806324482858146100cc5780632948ff41146100ea578063366a41201461010857806351bf16ef14610124575b600080fd5b6100b661022e565b6040516100c39190610ee9565b60405180910390f35b6100d46102bc565b6040516100e19190610eb3565b60405180910390f35b6100f26102e2565b6040516100ff9190610f6b565b60405180910390f35b610122600480360381019061011d9190610cb8565b6102e9565b005b61012c610615565b6040516101399190610ece565b60405180910390f35b61015c60048036038101906101579190610bdb565b61063b565b6040516101699190610f6b565b60405180910390f35b61018c60048036038101906101879190610c17565b610660565b60405161019d959493929190610f86565b60405180910390f35b6101c060048036038101906101bb9190610c8f565b6106bd565b005b6101ca610b30565b6040516101d79190610e38565b60405180910390f35b6101fa60048036038101906101f59190610bb2565b610b56565b6040516102079190610f6b565b60405180910390f35b610218610b6e565b6040516102259190610f6b565b60405180910390f35b6000805461023b90611199565b80601f016020809104026020016040519081016040528092919081815260200182805461026790611199565b80156102b45780601f10610289576101008083540402835291602001916102b4565b820191906000526020600020905b81548152906001019060200180831161029757829003601f168201915b505050505081565b600160009054906101000a900473ffffffffffffffffffffffffffffffffffffffff1681565b6203f48081565b600860003373ffffffffffffffffffffffffffffffffffffffff1673ffffffffffffffffffffffffffffffffffffffff1681526020019081526020016000206000838152602001908152602001600020600082815260200190815260200160002060030154421015610390576040517f08c379a000000000000000000000000000000000000000000000000000000000815260040161038790610f0b565b60405180910390fd5b60011515600860003373ffffffffffffffffffffffffffffffffffffffff1673ffffffffffffffffffffffffffffffffffffffff1681526020019081526020016000206000848152602001908152602001600020600083815260200190815260200160002060040160009054906101000a900460ff16151514610448576040517f08c379a000000000000000000000000000000000000000000000000000000000815260040161043f90610f2b565b60405180910390fd5b6000600860003373ffffffffffffffffffffffffffffffffffffffff1673ffffffffffffffffffffffffffffffffffffffff1681526020019081526020016000206000848152602001908152602001600020600083815260200190815260200160002060040160006101000a81548160ff021916908315150217905550600060646008600454600860003373ffffffffffffffffffffffffffffffffffffffff1673ffffffffffffffffffffffffffffffffffffffff168152602001908152602001600020600087815260200190815260200160002060008681526020019081526020016000206002015461053d919061107c565b610547919061107c565b610551919061104b565b90506000811161056057600080fd5b600260009054906101000a900473ffffffffffffffffffffffffffffffffffffffff1673ffffffffffffffffffffffffffffffffffffffff1663a9059cbb33836040518363ffffffff1660e01b81526004016105bd929190610e8a565b602060405180830381600087803b1580156105d757600080fd5b505af11580156105eb573d6000803e3d6000fd5b505050506040513d601f19601f8201168201806040525081019061060f9190610c66565b50505050565b600260009054906101000a900473ffffffffffffffffffffffffffffffffffffffff1681565b6007602052816000526040600020602052806000526040600020600091509150505481565b600860205282600052604060002060205281600052604060002060205280600052604060002060009250925050508060000154908060010154908060020154908060030154908060040160009054906101000a900460ff16905085565b60006203f4806005546106d09190610ff5565b905080421115610715576040517f08c379a000000000000000000000000000000000000000000000000000000000815260040161070c90610f4b565b60405180910390fd5b600160009054906101000a900473ffffffffffffffffffffffffffffffffffffffff1673ffffffffffffffffffffffffffffffffffffffff166323b872dd3330856040518463ffffffff1660e01b815260040161077493929190610e53565b602060405180830381600087803b15801561078e57600080fd5b505af11580156107a2573d6000803e3d6000fd5b505050506040513d601f19601f820116820180604052508101906107c69190610c66565b506001600660003373ffffffffffffffffffffffffffffffffffffffff1673ffffffffffffffffffffffffffffffffffffffff16815260200190815260200160002060008282546108179190610ff5565b92505081905550600a600760003373ffffffffffffffffffffffffffffffffffffffff1673ffffffffffffffffffffffffffffffffffffffff1681526020019081526020016000206000600660003373ffffffffffffffffffffffffffffffffffffffff1673ffffffffffffffffffffffffffffffffffffffff1681526020019081526020016000205481526020019081526020016000208190555060006064600c600454856108c7919061107c565b6108d1919061107c565b6108db919061104b565b9050600081116108ea57600080fd5b600260009054906101000a900473ffffffffffffffffffffffffffffffffffffffff1673ffffffffffffffffffffffffffffffffffffffff1663a9059cbb33836040518363ffffffff1660e01b8152600401610947929190610e8a565b602060405180830381600087803b15801561096157600080fd5b505af1158015610975573d6000803e3d6000fd5b505050506040513d601f19601f820116820180604052508101906109999190610c66565b5060005b600b811015610b2a57600081603c6109b5919061107c565b426109c09190610ff5565b90506040518060a00160405280600660003373ffffffffffffffffffffffffffffffffffffffff1673ffffffffffffffffffffffffffffffffffffffff16815260200190815260200160002054815260200183815260200186815260200182815260200160011515815250600860003373ffffffffffffffffffffffffffffffffffffffff1673ffffffffffffffffffffffffffffffffffffffff1681526020019081526020016000206000600660003373ffffffffffffffffffffffffffffffffffffffff1673ffffffffffffffffffffffffffffffffffffffff16815260200190815260200160002054815260200190815260200160002060008481526020019081526020016000206000820151816000015560208201518160010155604082015181600201556060820151816003015560808201518160040160006101000a81548160ff021916908315150217905550905050508080610b22906111cb565b91505061099d565b50505050565b600360009054906101000a900473ffffffffffffffffffffffffffffffffffffffff1681565b60066020528060005260406000206000915090505481565b603c81565b600081359050610b82816112b2565b92915050565b600081519050610b97816112c9565b92915050565b600081359050610bac816112e0565b92915050565b600060208284031215610bc457600080fd5b6000610bd284828501610b73565b91505092915050565b60008060408385031215610bee57600080fd5b6000610bfc85828601610b73565b9250506020610c0d85828601610b9d565b9150509250929050565b600080600060608486031215610c2c57600080fd5b6000610c3a86828701610b73565b9350506020610c4b86828701610b9d565b9250506040610c5c86828701610b9d565b9150509250925092565b600060208284031215610c7857600080fd5b6000610c8684828501610b88565b91505092915050565b600060208284031215610ca157600080fd5b6000610caf84828501610b9d565b91505092915050565b60008060408385031215610ccb57600080fd5b6000610cd985828601610b9d565b9250506020610cea85828601610b9d565b9150509250929050565b610cfd816110d6565b82525050565b610d0c816110e8565b82525050565b610d1b8161111e565b82525050565b610d2a81611142565b82525050565b6000610d3b82610fd9565b610d458185610fe4565b9350610d55818560208601611166565b610d5e816112a1565b840191505092915050565b6000610d76600d83610fe4565b91507f6c6f636b656420706572696f64000000000000000000000000000000000000006000830152602082019050919050565b6000610db6601083610fe4565b91507f68617665206265656e2072656465656d000000000000000000000000000000006000830152602082019050919050565b6000610df6601583610fe4565b91507f4d6967726174696f6e2077696e646f77206f76657200000000000000000000006000830152602082019050919050565b610e3281611114565b82525050565b6000602082019050610e4d6000830184610cf4565b92915050565b6000606082019050610e686000830186610cf4565b610e756020830185610cf4565b610e826040830184610e29565b949350505050565b6000604082019050610e9f6000830185610cf4565b610eac6020830184610e29565b9392505050565b6000602082019050610ec86000830184610d12565b92915050565b6000602082019050610ee36000830184610d21565b92915050565b60006020820190508181036000830152610f038184610d30565b905092915050565b60006020820190508181036000830152610f2481610d69565b9050919050565b60006020820190508181036000830152610f4481610da9565b9050919050565b60006020820190508181036000830152610f6481610de9565b9050919050565b6000602082019050610f806000830184610e29565b92915050565b600060a082019050610f9b6000830188610e29565b610fa86020830187610e29565b610fb56040830186610e29565b610fc26060830185610e29565b610fcf6080830184610d03565b9695505050505050565b600081519050919050565b600082825260208201905092915050565b600061100082611114565b915061100b83611114565b9250827fffffffffffffffffffffffffffffffffffffffffffffffffffffffffffffffff038211156110405761103f611214565b5b828201905092915050565b600061105682611114565b915061106183611114565b92508261107157611070611243565b5b828204905092915050565b600061108782611114565b915061109283611114565b9250817fffffffffffffffffffffffffffffffffffffffffffffffffffffffffffffffff04831182151516156110cb576110ca611214565b5b828202905092915050565b60006110e1826110f4565b9050919050565b60008115159050919050565b600073ffffffffffffffffffffffffffffffffffffffff82169050919050565b6000819050919050565b600061112982611130565b9050919050565b600061113b826110f4565b9050919050565b600061114d82611154565b9050919050565b600061115f826110f4565b9050919050565b60005b83811015611184578082015181840152602081019050611169565b83811115611193576000848401525b50505050565b600060028204905060018216806111b157607f821691505b602082108114156111c5576111c4611272565b5b50919050565b60006111d682611114565b91507fffffffffffffffffffffffffffffffffffffffffffffffffffffffffffffffff82141561120957611208611214565b5b600182019050919050565b7f4e487b7100000000000000000000000000000000000000000000000000000000600052601160045260246000fd5b7f4e487b7100000000000000000000000000000000000000000000000000000000600052601260045260246000fd5b7f4e487b7100000000000000000000000000000000000000000000000000000000600052602260045260246000fd5b6000601f19601f8301169050919050565b6112bb816110d6565b81146112c657600080fd5b50565b6112d2816110e8565b81146112dd57600080fd5b50565b6112e981611114565b81146112f457600080fd5b5056fea2646970667358221220ec5ff5316b53bf277582008e4950d143b8b64a1c47218e3ce3a038ab6be469c664736f6c63430008000033",
  "immutableReferences": {},
  "source": "pragma solidity ^0.8.0;\r\n\r\nimport \"./NPXSXEMToken.sol\";\r\nimport \"./PurseToken.sol\";\r\n\r\ncontract NPXSXEMigrationV1 {\r\n    string public name = \"NPXSXEM Migration\";\r\n    NPXSXEMToken public npxsxemToken;\r\n    PurseToken public purseToken;\r\n    address public owner;\r\n    uint256 public constant validDuration = 3 days;\r\n    uint256 public constant releaseDuration = 1 minutes;\r\n    uint256 internal tokenBurnRate = 2;\r\n    uint256 internal migrationStart;\r\n\r\n    mapping(address => uint256) public migrateCount;\r\n    mapping(address => mapping (uint256 => uint256)) public releaseIteration;\r\n    mapping(address => mapping (uint256 => mapping (uint256 => migratorInfo))) public migrator;  //address->index->times   \r\n\r\n    struct migratorInfo {\r\n        uint256 migrateCount;\r\n        uint256 releaseIteration;\r\n        uint256 migrateBalance;\r\n        uint256 unlockTime;\r\n        bool isRedeem;\r\n    }\r\n\r\n    constructor(NPXSXEMToken _npxsxemToken, PurseToken _purseToken) public {\r\n        npxsxemToken = _npxsxemToken;\r\n        purseToken = _purseToken;\r\n        owner = msg.sender;\r\n        migrationStart = block.timestamp;\r\n    }\r\n\r\n    function migrateNPXSXEM(uint256 _amount) public {\r\n        uint256 end = migrationStart + validDuration;\r\n        require(block.timestamp <= end, \"Migration window over\");\r\n        npxsxemToken.transferFrom(msg.sender, address(this), _amount); // Migrate npxsxem token\r\n        migrateCount[msg.sender] += 1;\r\n        releaseIteration[msg.sender][migrateCount[msg.sender]] = 10;\r\n        uint256 transferAmount = (_amount * tokenBurnRate * 12) / 100;\r\n        require(transferAmount > 0);\r\n        purseToken.transfer(msg.sender, transferAmount);\r\n\r\n        for (uint256 i = 0; i < 11; i++) {\r\n            uint256 unlockTimeStamp = block.timestamp + (releaseDuration*i);\r\n            migrator[msg.sender][migrateCount[msg.sender]][i] = migratorInfo(migrateCount[msg.sender],i,_amount, unlockTimeStamp, true);\r\n        }\r\n    }\r\n\r\n    // notice Transfers tokens held by timelock to beneficiary.\r\n    function release(uint256 _migrateCount, uint256 _releaseIteration) public {\r\n        // solium-disable-next-line security/no-block-members\r\n        require(block.timestamp >= migrator[msg.sender][_migrateCount][_releaseIteration].unlockTime, 'locked period');\r\n        require(migrator[msg.sender][_migrateCount][_releaseIteration].isRedeem == true, 'have been redeem');\r\n\r\n        migrator[msg.sender][_migrateCount][_releaseIteration].isRedeem = false;\r\n\r\n        uint256 migrateAmount = (migrator[msg.sender][_migrateCount][_releaseIteration].migrateBalance * tokenBurnRate * 8) / 100;\r\n        require(migrateAmount > 0);\r\n        purseToken.transfer(msg.sender, migrateAmount);\r\n    }\r\n}\r\n",
  "sourcePath": "C:/Users/cheek/Desktop/Developer doc/Visual Studio Code/PundiX/PurseReward/YieldFarm_BridgeEthBsc/src/contracts/NPXSXEMigrationV1.sol",
  "compiler": {
    "name": "solc",
    "version": "0.8.0+commit.c7dfd78e.Emscripten.clang"
  },
  "schemaVersion": "3.3.4",
  "updatedAt": "2021-07-28T05:02:11.979Z",
  "devdoc": {
    "kind": "dev",
    "methods": {},
    "version": 1
  },
  "userdoc": {
    "kind": "user",
    "methods": {},
    "version": 1
  }
}