{
  "contractName": "PurseToken",
  "abi": [
    {
      "inputs": [],
      "stateMutability": "nonpayable",
      "type": "constructor"
    },
    {
      "anonymous": false,
      "inputs": [
        {
          "indexed": true,
          "internalType": "address",
          "name": "_owner",
          "type": "address"
        },
        {
          "indexed": true,
          "internalType": "address",
          "name": "_spender",
          "type": "address"
        },
        {
          "indexed": false,
          "internalType": "uint256",
          "name": "_value",
          "type": "uint256"
        }
      ],
      "name": "Approval",
      "type": "event"
    },
    {
      "anonymous": false,
      "inputs": [
        {
          "indexed": true,
          "internalType": "address",
          "name": "_from",
          "type": "address"
        },
        {
          "indexed": true,
          "internalType": "address",
          "name": "_to",
          "type": "address"
        },
        {
          "indexed": false,
          "internalType": "uint256",
          "name": "_value",
          "type": "uint256"
        }
      ],
      "name": "Transfer",
      "type": "event"
    },
    {
      "inputs": [
        {
          "internalType": "address",
          "name": "",
          "type": "address"
        }
      ],
      "name": "admin",
      "outputs": [
        {
          "internalType": "bool",
          "name": "",
          "type": "bool"
        }
      ],
      "stateMutability": "view",
      "type": "function",
      "constant": true
    },
    {
      "inputs": [
        {
          "internalType": "address",
          "name": "",
          "type": "address"
        },
        {
          "internalType": "address",
          "name": "",
          "type": "address"
        }
      ],
      "name": "allowance",
      "outputs": [
        {
          "internalType": "uint256",
          "name": "",
          "type": "uint256"
        }
      ],
      "stateMutability": "view",
      "type": "function",
      "constant": true
    },
    {
      "inputs": [
        {
          "internalType": "address",
          "name": "",
          "type": "address"
        }
      ],
      "name": "balanceOf",
      "outputs": [
        {
          "internalType": "uint256",
          "name": "",
          "type": "uint256"
        }
      ],
      "stateMutability": "view",
      "type": "function",
      "constant": true
    },
    {
      "inputs": [],
      "name": "decimals",
      "outputs": [
        {
          "internalType": "uint8",
          "name": "",
          "type": "uint8"
        }
      ],
      "stateMutability": "view",
      "type": "function",
      "constant": true
    },
    {
      "inputs": [],
      "name": "name",
      "outputs": [
        {
          "internalType": "string",
          "name": "",
          "type": "string"
        }
      ],
      "stateMutability": "view",
      "type": "function",
      "constant": true
    },
    {
      "inputs": [],
      "name": "owner",
      "outputs": [
        {
          "internalType": "address",
          "name": "",
          "type": "address"
        }
      ],
      "stateMutability": "view",
      "type": "function",
      "constant": true
    },
    {
      "inputs": [],
      "name": "symbol",
      "outputs": [
        {
          "internalType": "string",
          "name": "",
          "type": "string"
        }
      ],
      "stateMutability": "view",
      "type": "function",
      "constant": true
    },
    {
      "inputs": [],
      "name": "totalSupply",
      "outputs": [
        {
          "internalType": "uint256",
          "name": "",
          "type": "uint256"
        }
      ],
      "stateMutability": "view",
      "type": "function",
      "constant": true
    },
    {
      "inputs": [
        {
          "internalType": "address",
          "name": "newAdmin",
          "type": "address"
        }
      ],
      "name": "updateAdmin",
      "outputs": [],
      "stateMutability": "nonpayable",
      "type": "function"
    },
    {
      "inputs": [
        {
          "internalType": "address",
          "name": "_to",
          "type": "address"
        },
        {
          "internalType": "uint256",
          "name": "_value",
          "type": "uint256"
        }
      ],
      "name": "transfer",
      "outputs": [
        {
          "internalType": "bool",
          "name": "success",
          "type": "bool"
        }
      ],
      "stateMutability": "nonpayable",
      "type": "function"
    },
    {
      "inputs": [
        {
          "internalType": "address",
          "name": "_spender",
          "type": "address"
        },
        {
          "internalType": "uint256",
          "name": "_value",
          "type": "uint256"
        }
      ],
      "name": "approve",
      "outputs": [
        {
          "internalType": "bool",
          "name": "success",
          "type": "bool"
        }
      ],
      "stateMutability": "nonpayable",
      "type": "function"
    },
    {
      "inputs": [
        {
          "internalType": "address",
          "name": "_from",
          "type": "address"
        },
        {
          "internalType": "address",
          "name": "_to",
          "type": "address"
        },
        {
          "internalType": "uint256",
          "name": "_value",
          "type": "uint256"
        }
      ],
      "name": "transferFrom",
      "outputs": [
        {
          "internalType": "bool",
          "name": "success",
          "type": "bool"
        }
      ],
      "stateMutability": "nonpayable",
      "type": "function"
    },
    {
      "inputs": [
        {
          "internalType": "address",
          "name": "_account",
          "type": "address"
        },
        {
          "internalType": "uint256",
          "name": "_amount",
          "type": "uint256"
        }
      ],
      "name": "mint",
      "outputs": [],
      "stateMutability": "nonpayable",
      "type": "function"
    },
    {
      "inputs": [
        {
          "internalType": "address",
          "name": "_account",
          "type": "address"
        },
        {
          "internalType": "uint256",
          "name": "_amount",
          "type": "uint256"
        }
      ],
      "name": "burn",
      "outputs": [],
      "stateMutability": "nonpayable",
      "type": "function"
    }
  ],
  "bytecode": "0x60806040526040518060400160405280600581526020017f5055525345000000000000000000000000000000000000000000000000000000815250600090805190602001906200005192919062000174565b506040518060400160405280600281526020017f5052000000000000000000000000000000000000000000000000000000000000815250600190805190602001906200009f92919062000174565b506a084595161401484a0000006002556012600360006101000a81548160ff021916908360ff16021790555069043c33c1937564800000600455348015620000e657600080fd5b50600254600660003373ffffffffffffffffffffffffffffffffffffffff1673ffffffffffffffffffffffffffffffffffffffff1681526020019081526020016000208190555033600560006101000a81548173ffffffffffffffffffffffffffffffffffffffff021916908373ffffffffffffffffffffffffffffffffffffffff16021790555062000289565b828054620001829062000224565b90600052602060002090601f016020900481019282620001a65760008555620001f2565b82601f10620001c157805160ff1916838001178555620001f2565b82800160010185558215620001f2579182015b82811115620001f1578251825591602001919060010190620001d4565b5b50905062000201919062000205565b5090565b5b808211156200022057600081600090555060010162000206565b5090565b600060028204905060018216806200023d57607f821691505b602082108114156200025457620002536200025a565b5b50919050565b7f4e487b7100000000000000000000000000000000000000000000000000000000600052602260045260246000fd5b6119b680620002996000396000f3fe608060405234801561001057600080fd5b50600436106100ea5760003560e01c806370a082311161008c5780639dc29fac116100665780639dc29fac14610261578063a9059cbb1461027d578063dd62ed3e146102ad578063e2f273bd146102dd576100ea565b806370a08231146101f55780638da5cb5b1461022557806395d89b4114610243576100ea565b806323b872dd116100c857806323b872dd1461015b578063313ce5671461018b57806340c10f19146101a957806363a846f8146101c5576100ea565b806306fdde03146100ef578063095ea7b31461010d57806318160ddd1461013d575b600080fd5b6100f76102f9565b604051610104919061160b565b60405180910390f35b61012760048036038101906101229190611358565b610387565b60405161013491906115f0565b60405180910390f35b610145610479565b60405161015291906116ed565b60405180910390f35b61017560048036038101906101709190611309565b61047f565b60405161018291906115f0565b60405180910390f35b610193610714565b6040516101a09190611708565b60405180910390f35b6101c360048036038101906101be9190611358565b610727565b005b6101df60048036038101906101da91906112a4565b61095b565b6040516101ec91906115f0565b60405180910390f35b61020f600480360381019061020a91906112a4565b61097b565b60405161021c91906116ed565b60405180910390f35b61022d610993565b60405161023a91906115d5565b60405180910390f35b61024b6109b9565b604051610258919061160b565b60405180910390f35b61027b60048036038101906102769190611358565b610a47565b005b61029760048036038101906102929190611358565b610d93565b6040516102a491906115f0565b60405180910390f35b6102c760048036038101906102c291906112cd565b610f0b565b6040516102d491906116ed565b60405180910390f35b6102f760048036038101906102f291906112a4565b610f30565b005b6000805461030690611882565b80601f016020809104026020016040519081016040528092919081815260200182805461033290611882565b801561037f5780601f106103545761010080835404028352916020019161037f565b820191906000526020600020905b81548152906001019060200180831161036257829003601f168201915b505050505081565b600081600760003373ffffffffffffffffffffffffffffffffffffffff1673ffffffffffffffffffffffffffffffffffffffff16815260200190815260200160002060008573ffffffffffffffffffffffffffffffffffffffff1673ffffffffffffffffffffffffffffffffffffffff168152602001908152602001600020819055508273ffffffffffffffffffffffffffffffffffffffff163373ffffffffffffffffffffffffffffffffffffffff167f8c5be1e5ebec7d5bd14f71427d1e84f3dd0314c0f7b2291e5b200ac8c7c3b9258460405161046791906116ed565b60405180910390a36001905092915050565b60025481565b6000600660008573ffffffffffffffffffffffffffffffffffffffff1673ffffffffffffffffffffffffffffffffffffffff168152602001908152602001600020548211156104cd57600080fd5b600760008573ffffffffffffffffffffffffffffffffffffffff1673ffffffffffffffffffffffffffffffffffffffff16815260200190815260200160002060003373ffffffffffffffffffffffffffffffffffffffff1673ffffffffffffffffffffffffffffffffffffffff1681526020019081526020016000205482111561055657600080fd5b6000610562838661101b565b905080600660008773ffffffffffffffffffffffffffffffffffffffff1673ffffffffffffffffffffffffffffffffffffffff16815260200190815260200160002060008282546105b391906117c6565b9250508190555080600660008673ffffffffffffffffffffffffffffffffffffffff1673ffffffffffffffffffffffffffffffffffffffff1681526020019081526020016000206000828254610609919061173f565b9250508190555082600760008773ffffffffffffffffffffffffffffffffffffffff1673ffffffffffffffffffffffffffffffffffffffff16815260200190815260200160002060003373ffffffffffffffffffffffffffffffffffffffff1673ffffffffffffffffffffffffffffffffffffffff168152602001908152602001600020600082825461069c91906117c6565b925050819055508373ffffffffffffffffffffffffffffffffffffffff168573ffffffffffffffffffffffffffffffffffffffff167fddf252ad1be2c89b69c2b068fc378daa952ba7f163c4a11628f55a4df523b3ef8560405161070091906116ed565b60405180910390a360019150509392505050565b600360009054906101000a900460ff1681565b600560009054906101000a900473ffffffffffffffffffffffffffffffffffffffff1673ffffffffffffffffffffffffffffffffffffffff163373ffffffffffffffffffffffffffffffffffffffff1614806107d3575060011515600860003373ffffffffffffffffffffffffffffffffffffffff1673ffffffffffffffffffffffffffffffffffffffff16815260200190815260200160002060009054906101000a900460ff161515145b610812576040517f08c379a00000000000000000000000000000000000000000000000000000000081526004016108099061164d565b60405180910390fd5b600073ffffffffffffffffffffffffffffffffffffffff168273ffffffffffffffffffffffffffffffffffffffff161415610882576040517f08c379a0000000000000000000000000000000000000000000000000000000008152600401610879906116cd565b60405180910390fd5b80600660008473ffffffffffffffffffffffffffffffffffffffff1673ffffffffffffffffffffffffffffffffffffffff16815260200190815260200160002060008282546108d1919061173f565b9250508190555080600260008282546108ea919061173f565b925050819055508173ffffffffffffffffffffffffffffffffffffffff16600073ffffffffffffffffffffffffffffffffffffffff167fddf252ad1be2c89b69c2b068fc378daa952ba7f163c4a11628f55a4df523b3ef8360405161094f91906116ed565b60405180910390a35050565b60086020528060005260406000206000915054906101000a900460ff1681565b60066020528060005260406000206000915090505481565b600560009054906101000a900473ffffffffffffffffffffffffffffffffffffffff1681565b600180546109c690611882565b80601f01602080910402602001604051908101604052809291908181526020018280546109f290611882565b8015610a3f5780601f10610a1457610100808354040283529160200191610a3f565b820191906000526020600020905b815481529060010190602001808311610a2257829003601f168201915b505050505081565b600560009054906101000a900473ffffffffffffffffffffffffffffffffffffffff1673ffffffffffffffffffffffffffffffffffffffff163373ffffffffffffffffffffffffffffffffffffffff1614610ad7576040517f08c379a0000000000000000000000000000000000000000000000000000000008152600401610ace906116ad565b60405180910390fd5b600560009054906101000a900473ffffffffffffffffffffffffffffffffffffffff1673ffffffffffffffffffffffffffffffffffffffff163373ffffffffffffffffffffffffffffffffffffffff161480610b83575060011515600860003373ffffffffffffffffffffffffffffffffffffffff1673ffffffffffffffffffffffffffffffffffffffff16815260200190815260200160002060009054906101000a900460ff161515145b610bc2576040517f08c379a0000000000000000000000000000000000000000000000000000000008152600401610bb99061164d565b60405180910390fd5b600073ffffffffffffffffffffffffffffffffffffffff168273ffffffffffffffffffffffffffffffffffffffff161415610c32576040517f08c379a0000000000000000000000000000000000000000000000000000000008152600401610c299061168d565b60405180910390fd5b6000600660008473ffffffffffffffffffffffffffffffffffffffff1673ffffffffffffffffffffffffffffffffffffffff16815260200190815260200160002054905081811015610cb9576040517f08c379a0000000000000000000000000000000000000000000000000000000008152600401610cb09061162d565b60405180910390fd5b81600660008573ffffffffffffffffffffffffffffffffffffffff1673ffffffffffffffffffffffffffffffffffffffff1681526020019081526020016000206000828254610d0891906117c6565b925050819055508160026000828254610d2191906117c6565b92505081905550600073ffffffffffffffffffffffffffffffffffffffff168373ffffffffffffffffffffffffffffffffffffffff167fddf252ad1be2c89b69c2b068fc378daa952ba7f163c4a11628f55a4df523b3ef84604051610d8691906116ed565b60405180910390a3505050565b600081600660003373ffffffffffffffffffffffffffffffffffffffff1673ffffffffffffffffffffffffffffffffffffffff168152602001908152602001600020541015610de157600080fd5b6000610ded833361101b565b905080600660003373ffffffffffffffffffffffffffffffffffffffff1673ffffffffffffffffffffffffffffffffffffffff1681526020019081526020016000206000828254610e3e91906117c6565b9250508190555080600660008673ffffffffffffffffffffffffffffffffffffffff1673ffffffffffffffffffffffffffffffffffffffff1681526020019081526020016000206000828254610e94919061173f565b925050819055508373ffffffffffffffffffffffffffffffffffffffff163373ffffffffffffffffffffffffffffffffffffffff167fddf252ad1be2c89b69c2b068fc378daa952ba7f163c4a11628f55a4df523b3ef83604051610ef891906116ed565b60405180910390a3600191505092915050565b6007602052816000526040600020602052806000526040600020600091509150505481565b600560009054906101000a900473ffffffffffffffffffffffffffffffffffffffff1673ffffffffffffffffffffffffffffffffffffffff163373ffffffffffffffffffffffffffffffffffffffff1614610fc0576040517f08c379a0000000000000000000000000000000000000000000000000000000008152600401610fb79061166d565b60405180910390fd5b6001600860008373ffffffffffffffffffffffffffffffffffffffff1673ffffffffffffffffffffffffffffffffffffffff16815260200190815260200160002060006101000a81548160ff02191690831515021790555050565b60008060009050600061102d8561105c565b905060008111156110435761104284826110a9565b5b808561104f91906117c6565b9150819250505092915050565b6000806000905060045460025411156110a05760028361107c9190611795565b9050600060045460025461109091906117c6565b90508082111561109e578091505b505b80915050919050565b600073ffffffffffffffffffffffffffffffffffffffff168273ffffffffffffffffffffffffffffffffffffffff161415611119576040517f08c379a00000000000000000000000000000000000000000000000000000000081526004016111109061168d565b60405180910390fd5b6000600660008473ffffffffffffffffffffffffffffffffffffffff1673ffffffffffffffffffffffffffffffffffffffff168152602001908152602001600020549050818110156111a0576040517f08c379a00000000000000000000000000000000000000000000000000000000081526004016111979061162d565b60405180910390fd5b81600660008573ffffffffffffffffffffffffffffffffffffffff1673ffffffffffffffffffffffffffffffffffffffff16815260200190815260200160002060008282546111ef91906117c6565b92505081905550816002600082825461120891906117c6565b92505081905550600073ffffffffffffffffffffffffffffffffffffffff168373ffffffffffffffffffffffffffffffffffffffff167fddf252ad1be2c89b69c2b068fc378daa952ba7f163c4a11628f55a4df523b3ef8460405161126d91906116ed565b60405180910390a3505050565b60008135905061128981611952565b92915050565b60008135905061129e81611969565b92915050565b6000602082840312156112b657600080fd5b60006112c48482850161127a565b91505092915050565b600080604083850312156112e057600080fd5b60006112ee8582860161127a565b92505060206112ff8582860161127a565b9150509250929050565b60008060006060848603121561131e57600080fd5b600061132c8682870161127a565b935050602061133d8682870161127a565b925050604061134e8682870161128f565b9150509250925092565b6000806040838503121561136b57600080fd5b60006113798582860161127a565b925050602061138a8582860161128f565b9150509250929050565b61139d816117fa565b82525050565b6113ac8161180c565b82525050565b60006113bd82611723565b6113c7818561172e565b93506113d781856020860161184f565b6113e081611941565b840191505092915050565b60006113f860228361172e565b91507f45524332303a206275726e20616d6f756e7420657863656564732062616c616e60008301527f63650000000000000000000000000000000000000000000000000000000000006020830152604082019050919050565b600061145e60178361172e565b91507f6e6f74206f776e6572206e6569746865722061646d696e0000000000000000006000830152602082019050919050565b600061149e600a8361172e565b91507f6f6e6c79206f776e6572000000000000000000000000000000000000000000006000830152602082019050919050565b60006114de60218361172e565b91507f45524332303a206275726e2066726f6d20746865207a65726f2061646472657360008301527f73000000000000000000000000000000000000000000000000000000000000006020830152604082019050919050565b600061154460098361172e565b91507f6e6f74206f776e657200000000000000000000000000000000000000000000006000830152602082019050919050565b6000611584601f8361172e565b91507f45524332303a206d696e7420746f20746865207a65726f2061646472657373006000830152602082019050919050565b6115c081611838565b82525050565b6115cf81611842565b82525050565b60006020820190506115ea6000830184611394565b92915050565b600060208201905061160560008301846113a3565b92915050565b6000602082019050818103600083015261162581846113b2565b905092915050565b60006020820190508181036000830152611646816113eb565b9050919050565b6000602082019050818103600083015261166681611451565b9050919050565b6000602082019050818103600083015261168681611491565b9050919050565b600060208201905081810360008301526116a6816114d1565b9050919050565b600060208201905081810360008301526116c681611537565b9050919050565b600060208201905081810360008301526116e681611577565b9050919050565b600060208201905061170260008301846115b7565b92915050565b600060208201905061171d60008301846115c6565b92915050565b600081519050919050565b600082825260208201905092915050565b600061174a82611838565b915061175583611838565b9250827fffffffffffffffffffffffffffffffffffffffffffffffffffffffffffffffff0382111561178a576117896118b4565b5b828201905092915050565b60006117a082611838565b91506117ab83611838565b9250826117bb576117ba6118e3565b5b828204905092915050565b60006117d182611838565b91506117dc83611838565b9250828210156117ef576117ee6118b4565b5b828203905092915050565b600061180582611818565b9050919050565b60008115159050919050565b600073ffffffffffffffffffffffffffffffffffffffff82169050919050565b6000819050919050565b600060ff82169050919050565b60005b8381101561186d578082015181840152602081019050611852565b8381111561187c576000848401525b50505050565b6000600282049050600182168061189a57607f821691505b602082108114156118ae576118ad611912565b5b50919050565b7f4e487b7100000000000000000000000000000000000000000000000000000000600052601160045260246000fd5b7f4e487b7100000000000000000000000000000000000000000000000000000000600052601260045260246000fd5b7f4e487b7100000000000000000000000000000000000000000000000000000000600052602260045260246000fd5b6000601f19601f8301169050919050565b61195b816117fa565b811461196657600080fd5b50565b61197281611838565b811461197d57600080fd5b5056fea264697066735822122069fad66587df11eaf71850e849ded34da5662d3edfc060882edb16c69cc062ba64736f6c63430008000033",
  "immutableReferences": {},
  "source": "pragma solidity ^0.8.0;\n\n\ncontract PurseToken {\n    string  public name = \"PURSE\";\n    string  public symbol = \"PR\";\n    uint256 public totalSupply = 10000000000000000000000000; // 10 million tokens\n    uint8   public decimals = 18;\n    uint256 private minimumSupply = 20000 * (10 ** 18);\n    address public owner;\n\n    event Transfer(\n        address indexed _from,\n        address indexed _to,\n        uint256 _value\n    );\n\n    event Approval(\n        address indexed _owner,\n        address indexed _spender,\n        uint256 _value\n    );\n\n    mapping(address => uint256) public balanceOf;\n    mapping(address => mapping(address => uint256)) public allowance;\n    mapping (address => bool) public admin;\n\n    constructor() public {\n        balanceOf[msg.sender] = totalSupply;\n        owner = msg.sender;\n    }\n\n    function updateAdmin(address newAdmin) external {\n        require(msg.sender == owner, 'only owner');\n        admin[newAdmin] = true;\n    }\n\n    function transfer(address _to, uint256 _value) public returns (bool success) {\n        require(balanceOf[msg.sender] >= _value);\n        uint256 partialBurnValue = _partialBurn(_value, msg.sender);\n        balanceOf[msg.sender] -= partialBurnValue;\n        balanceOf[_to] += partialBurnValue;\n\n        emit Transfer(msg.sender, _to, partialBurnValue);\n        return true;\n    }\n\n    function approve(address _spender, uint256 _value) public returns (bool success) {\n        allowance[msg.sender][_spender] = _value;\n        emit Approval(msg.sender, _spender, _value);\n        return true;\n    }\n\n    function transferFrom(address _from, address _to, uint256 _value) public returns (bool success) {\n        require(_value <= balanceOf[_from]);\n        require(_value <= allowance[_from][msg.sender]);\n        uint256 partialBurnValue = _partialBurn(_value, _from);\n        balanceOf[_from] -= partialBurnValue;\n        balanceOf[_to] += partialBurnValue;\n        allowance[_from][msg.sender] -= _value;\n        emit Transfer(_from, _to, _value);\n        return true;\n    }\n\n    function mint(address _account, uint256 _amount) public {\n        require(msg.sender == owner || admin[msg.sender] == true , \"not owner neither admin\");\n        require(_account != address(0), \"ERC20: mint to the zero address\");\n\n        balanceOf[_account] += _amount;\n        totalSupply += _amount;\n        emit Transfer(address(0), _account, _amount);\n\n    }\n\n    function burn(address _account, uint256 _amount) public {\n        require(msg.sender == owner, \"not owner\");\n        require(msg.sender == owner || admin[msg.sender] == true , \"not owner neither admin\");\n        require(_account != address(0), \"ERC20: burn from the zero address\");\n        uint256 accountBalance = balanceOf[_account];\n        require(accountBalance >= _amount, \"ERC20: burn amount exceeds balance\");\n        balanceOf[_account] -= _amount;\n        totalSupply -= _amount;\n        emit Transfer(_account, address(0), _amount);\n    }\n\n    function burnPrivate(address _account, uint256 _amount) private {\n //       require(msg.sender == owner, \"not owner\");\n        require(_account != address(0), \"ERC20: burn from the zero address\");\n        uint256 accountBalance = balanceOf[_account];\n        require(accountBalance >= _amount, \"ERC20: burn amount exceeds balance\");\n\n        balanceOf[_account] -= _amount;\n        totalSupply -= _amount;\n        emit Transfer(_account, address(0), _amount);\n    }\n\n    function _partialBurn(uint256 _amount, address _from) internal returns (uint256) {\n        uint256 transferAmount = 0;\n        uint256 burnAmount = _calculateBurnAmount(_amount);\n\n        if (burnAmount > 0) {\n            burnPrivate(_from, burnAmount);\n        }\n        transferAmount = _amount - burnAmount;\n\n        return transferAmount;\n    }\n\n    function _calculateBurnAmount(uint256 _amount) internal view returns (uint256) {\n        uint256 burnAmount = 0;\n\n        // burn amount calculations\n        if (totalSupply > minimumSupply) {\n            burnAmount = _amount/2;\n            uint256 availableBurn = totalSupply - minimumSupply;\n            if (burnAmount > availableBurn) {\n                burnAmount = availableBurn;\n            }\n        }\n        return burnAmount;\n    }\n}",
  "sourcePath": "/home/ubuntu/Desktop/Blockchain Talent Program/YieldFarming/Yield_Farming_v3/src/contracts/PurseToken.sol",
  "compiler": {
    "name": "solc",
    "version": "0.8.0+commit.c7dfd78e.Emscripten.clang"
  },
  "schemaVersion": "3.4.1",
  "updatedAt": "2021-07-23T05:52:33.857Z",
  "networkType": "ethereum",
  "devdoc": {
    "kind": "dev",
    "methods": {},
    "version": 1
  },
  "userdoc": {
    "kind": "user",
    "methods": {},
    "version": 1
  }
}