{
  "contractName": "TokenFarm",
  "abi": [
    {
      "inputs": [
        {
          "internalType": "contract XToken",
          "name": "_xToken",
          "type": "address"
        },
        {
          "internalType": "contract LPXToken",
          "name": "_lpXToken",
          "type": "address"
        },
        {
          "internalType": "contract PurseToken",
          "name": "_purseToken",
          "type": "address"
        },
        {
          "internalType": "uint256",
          "name": "_blockReward",
          "type": "uint256"
        }
      ],
      "stateMutability": "nonpayable",
      "type": "constructor"
    },
    {
      "inputs": [],
      "name": "duration",
      "outputs": [
        {
          "internalType": "uint256",
          "name": "",
          "type": "uint256"
        }
      ],
      "stateMutability": "view",
      "type": "function",
      "constant": true
    },
    {
      "inputs": [],
      "name": "farmInfo",
      "outputs": [
        {
          "internalType": "uint256",
          "name": "blockReward",
          "type": "uint256"
        },
        {
          "internalType": "uint256",
          "name": "lastRewardBlock",
          "type": "uint256"
        },
        {
          "internalType": "uint256",
          "name": "farmableSupply",
          "type": "uint256"
        }
      ],
      "stateMutability": "view",
      "type": "function",
      "constant": true
    },
    {
      "inputs": [],
      "name": "lpXToken",
      "outputs": [
        {
          "internalType": "contract LPXToken",
          "name": "",
          "type": "address"
        }
      ],
      "stateMutability": "view",
      "type": "function",
      "constant": true
    },
    {
      "inputs": [],
      "name": "name",
      "outputs": [
        {
          "internalType": "string",
          "name": "",
          "type": "string"
        }
      ],
      "stateMutability": "view",
      "type": "function",
      "constant": true
    },
    {
      "inputs": [],
      "name": "owner",
      "outputs": [
        {
          "internalType": "address",
          "name": "",
          "type": "address"
        }
      ],
      "stateMutability": "view",
      "type": "function",
      "constant": true
    },
    {
      "inputs": [],
      "name": "penaltyRate",
      "outputs": [
        {
          "internalType": "uint256",
          "name": "",
          "type": "uint256"
        }
      ],
      "stateMutability": "view",
      "type": "function",
      "constant": true
    },
    {
      "inputs": [],
      "name": "purseToken",
      "outputs": [
        {
          "internalType": "contract PurseToken",
          "name": "",
          "type": "address"
        }
      ],
      "stateMutability": "view",
      "type": "function",
      "constant": true
    },
    {
      "inputs": [
        {
          "internalType": "address",
          "name": "",
          "type": "address"
        }
      ],
      "name": "stakerInfo",
      "outputs": [
        {
          "internalType": "uint256",
          "name": "stakingBalance",
          "type": "uint256"
        },
        {
          "internalType": "uint256",
          "name": "rewardBalance",
          "type": "uint256"
        },
        {
          "internalType": "uint256",
          "name": "stakingTimestamp",
          "type": "uint256"
        },
        {
          "internalType": "bool",
          "name": "hasStaked",
          "type": "bool"
        },
        {
          "internalType": "bool",
          "name": "isStaking",
          "type": "bool"
        },
        {
          "internalType": "uint256",
          "name": "poolShareRatio",
          "type": "uint256"
        }
      ],
      "stateMutability": "view",
      "type": "function",
      "constant": true
    },
    {
      "inputs": [
        {
          "internalType": "uint256",
          "name": "",
          "type": "uint256"
        }
      ],
      "name": "stakers",
      "outputs": [
        {
          "internalType": "address",
          "name": "",
          "type": "address"
        }
      ],
      "stateMutability": "view",
      "type": "function",
      "constant": true
    },
    {
      "inputs": [],
      "name": "xToken",
      "outputs": [
        {
          "internalType": "contract XToken",
          "name": "",
          "type": "address"
        }
      ],
      "stateMutability": "view",
      "type": "function",
      "constant": true
    },
    {
      "inputs": [
        {
          "internalType": "uint256",
          "name": "_amount",
          "type": "uint256"
        }
      ],
      "name": "stakeTokens",
      "outputs": [],
      "stateMutability": "nonpayable",
      "type": "function"
    },
    {
      "inputs": [],
      "name": "unstakeTokens",
      "outputs": [],
      "stateMutability": "nonpayable",
      "type": "function"
    },
    {
      "inputs": [
        {
          "internalType": "uint256",
          "name": "_amount",
          "type": "uint256"
        }
      ],
      "name": "issueTokens",
      "outputs": [],
      "stateMutability": "nonpayable",
      "type": "function"
    },
    {
      "inputs": [],
      "name": "updateRewardTokens",
      "outputs": [],
      "stateMutability": "nonpayable",
      "type": "function"
    },
    {
      "inputs": [],
      "name": "emergencyUnstakeTokens",
      "outputs": [],
      "stateMutability": "nonpayable",
      "type": "function"
    },
    {
      "inputs": [],
      "name": "getTotalBalance",
      "outputs": [],
      "stateMutability": "nonpayable",
      "type": "function"
    },
    {
      "inputs": [],
      "name": "getPoolShareRatio",
      "outputs": [],
      "stateMutability": "nonpayable",
      "type": "function"
    },
    {
      "inputs": [
        {
          "internalType": "address",
          "name": "_to",
          "type": "address"
        },
        {
          "internalType": "uint256",
          "name": "_amount",
          "type": "uint256"
        }
      ],
      "name": "transferOwnership",
      "outputs": [],
      "stateMutability": "nonpayable",
      "type": "function"
    },
    {
      "inputs": [
        {
          "internalType": "uint256",
          "name": "_amount",
          "type": "uint256"
        }
      ],
      "name": "redeemToken",
      "outputs": [],
      "stateMutability": "nonpayable",
      "type": "function"
    }
  ],
  "bytecode": "0x60806040526040518060400160405280600c81526020017f5820546f6b656e204661726d00000000000000000000000000000000000000008152506000908051906020019062000051929190620001a2565b5060026006553480156200006457600080fd5b5060405162002b7038038062002b7083398181016040528101906200008a9190620002ae565b83600160006101000a81548173ffffffffffffffffffffffffffffffffffffffff021916908373ffffffffffffffffffffffffffffffffffffffff16021790555082600260006101000a81548173ffffffffffffffffffffffffffffffffffffffff021916908373ffffffffffffffffffffffffffffffffffffffff16021790555081600360006101000a81548173ffffffffffffffffffffffffffffffffffffffff021916908373ffffffffffffffffffffffffffffffffffffffff1602179055508060076000018190555033600460006101000a81548173ffffffffffffffffffffffffffffffffffffffff021916908373ffffffffffffffffffffffffffffffffffffffff1602179055505050505062000461565b828054620001b09062000394565b90600052602060002090601f016020900481019282620001d4576000855562000220565b82601f10620001ef57805160ff191683800117855562000220565b8280016001018555821562000220579182015b828111156200021f57825182559160200191906001019062000202565b5b5090506200022f919062000233565b5090565b5b808211156200024e57600081600090555060010162000234565b5090565b6000815190506200026381620003f9565b92915050565b6000815190506200027a8162000413565b92915050565b60008151905062000291816200042d565b92915050565b600081519050620002a88162000447565b92915050565b60008060008060808587031215620002c557600080fd5b6000620002d58782880162000280565b9450506020620002e88782880162000252565b9350506040620002fb8782880162000269565b92505060606200030e8782880162000297565b91505092959194509250565b600062000327826200036a565b9050919050565b60006200033b826200031a565b9050919050565b60006200034f826200031a565b9050919050565b600062000363826200031a565b9050919050565b600073ffffffffffffffffffffffffffffffffffffffff82169050919050565b6000819050919050565b60006002820490506001821680620003ad57607f821691505b60208210811415620003c457620003c3620003ca565b5b50919050565b7f4e487b7100000000000000000000000000000000000000000000000000000000600052602260045260246000fd5b62000404816200032e565b81146200041057600080fd5b50565b6200041e8162000342565b81146200042a57600080fd5b50565b620004388162000356565b81146200044457600080fd5b50565b62000452816200038a565b81146200045e57600080fd5b50565b6126ff80620004716000396000f3fe608060405234801561001057600080fd5b50600436106101215760003560e01c80634e745f1f116100ad578063a179b81211610071578063a179b812146102a1578063a5820daa146102ab578063a5ce413b146102c7578063d6b7494f146102d1578063fd5e6dd1146102ef57610121565b80634e745f1f1461020a5780634e8fd73a1461023f57806351bf16ef146102495780637547c7a3146102675780638da5cb5b1461028357610121565b80630d7a70d4116100f45780630d7a70d41461019a5780630fb5a6b4146101a457806312b58349146101c25780631d49d66c146101cc578063435e05dd146101ec57610121565b8063013054c21461012657806306fdde0314610142578063088b699e146101605780630a2766801461017e575b600080fd5b610140600480360381019061013b9190611e56565b61031f565b005b61014a6104b5565b604051610157919061219e565b60405180910390f35b610168610543565b6040516101759190612183565b60405180910390f35b61019860048036038101906101939190611df1565b610569565b005b6101a2610a1c565b005b6101ac610c47565b6040516101b991906122a0565b60405180910390f35b6101ca610c4e565b005b6101d4610d44565b6040516101e3939291906122bb565b60405180910390f35b6101f4610d5c565b604051610201919061214d565b60405180910390f35b610224600480360381019061021f9190611dc8565b610d82565b604051610236969594939291906122f2565b60405180910390f35b610247610dd8565b005b610251610fb4565b60405161025e9190612168565b60405180910390f35b610281600480360381019061027c9190611e56565b610fda565b005b61028b6113a8565b60405161029891906120d2565b60405180910390f35b6102a96113ce565b005b6102c560048036038101906102c09190611e56565b611757565b005b6102cf611a02565b005b6102d9611d45565b6040516102e691906122a0565b60405180910390f35b61030960048036038101906103049190611e56565b611d4a565b60405161031691906120d2565b60405180910390f35b610327610dd8565b6000811161036a576040517f08c379a000000000000000000000000000000000000000000000000000000000815260040161036190612280565b60405180910390fd5b6000600a60003373ffffffffffffffffffffffffffffffffffffffff1673ffffffffffffffffffffffffffffffffffffffff168152602001908152602001600020600101549050808211156103f4576040517f08c379a00000000000000000000000000000000000000000000000000000000081526004016103eb906121e0565b60405180910390fd5b600360009054906101000a900473ffffffffffffffffffffffffffffffffffffffff1673ffffffffffffffffffffffffffffffffffffffff1663a9059cbb336006548561044191906123f6565b6040518363ffffffff1660e01b815260040161045e929190612124565b602060405180830381600087803b15801561047857600080fd5b505af115801561048c573d6000803e3d6000fd5b505050506040513d601f19601f820116820180604052508101906104b09190611e2d565b505050565b600080546104c29061256b565b80601f01602080910402602001604051908101604052809291908181526020018280546104ee9061256b565b801561053b5780601f106105105761010080835404028352916020019161053b565b820191906000526020600020905b81548152906001019060200180831161051e57829003601f168201915b505050505081565b600160009054906101000a900473ffffffffffffffffffffffffffffffffffffffff1681565b600081116105ac576040517f08c379a00000000000000000000000000000000000000000000000000000000081526004016105a390612280565b60405180910390fd5b8173ffffffffffffffffffffffffffffffffffffffff168273ffffffffffffffffffffffffffffffffffffffff161461061a576040517f08c379a000000000000000000000000000000000000000000000000000000000815260040161061190612200565b60405180910390fd5b6000600a60003373ffffffffffffffffffffffffffffffffffffffff1673ffffffffffffffffffffffffffffffffffffffff168152602001908152602001600020600001549050808211156106a4576040517f08c379a000000000000000000000000000000000000000000000000000000000815260040161069b906121c0565b60405180910390fd5b6106ac610dd8565b600260009054906101000a900473ffffffffffffffffffffffffffffffffffffffff1673ffffffffffffffffffffffffffffffffffffffff166323b872dd3385856040518463ffffffff1660e01b815260040161070b939291906120ed565b602060405180830381600087803b15801561072557600080fd5b505af1158015610739573d6000803e3d6000fd5b505050506040513d601f19601f8201168201806040525081019061075d9190611e2d565b5081600a60003373ffffffffffffffffffffffffffffffffffffffff1673ffffffffffffffffffffffffffffffffffffffff16815260200190815260200160002060000160008282546107b09190612450565b9250508190555081600a60008573ffffffffffffffffffffffffffffffffffffffff1673ffffffffffffffffffffffffffffffffffffffff1681526020019081526020016000206000016000828254610809919061236f565b92505081905550600a60003373ffffffffffffffffffffffffffffffffffffffff1673ffffffffffffffffffffffffffffffffffffffff16815260200190815260200160002060020154600a60008573ffffffffffffffffffffffffffffffffffffffff1673ffffffffffffffffffffffffffffffffffffffff16815260200190815260200160002060020181905550600a60008473ffffffffffffffffffffffffffffffffffffffff1673ffffffffffffffffffffffffffffffffffffffff16815260200190815260200160002060030160009054906101000a900460ff16610951576005839080600181540180825580915050600190039060005260206000200160009091909190916101000a81548173ffffffffffffffffffffffffffffffffffffffff021916908373ffffffffffffffffffffffffffffffffffffffff1602179055505b6001600a60008573ffffffffffffffffffffffffffffffffffffffff1673ffffffffffffffffffffffffffffffffffffffff16815260200190815260200160002060030160016101000a81548160ff0219169083151502179055506001600a60008573ffffffffffffffffffffffffffffffffffffffff1673ffffffffffffffffffffffffffffffffffffffff16815260200190815260200160002060030160006101000a81548160ff021916908315150217905550610a0f610c4e565b610a17610a1c565b505050565b60006007600201541415610b055760005b600580549050811015610aff57600060058281548110610a76577f4e487b7100000000000000000000000000000000000000000000000000000000600052603260045260246000fd5b9060005260206000200160009054906101000a900473ffffffffffffffffffffffffffffffffffffffff1690506000600a60008373ffffffffffffffffffffffffffffffffffffffff1673ffffffffffffffffffffffffffffffffffffffff16815260200190815260200160002060040181905550508080610af79061259d565b915050610a2d565b50610c45565b60005b600580549050811015610c4357600060058281548110610b51577f4e487b7100000000000000000000000000000000000000000000000000000000600052603260045260246000fd5b9060005260206000200160009054906101000a900473ffffffffffffffffffffffffffffffffffffffff1690506000600a60008373ffffffffffffffffffffffffffffffffffffffff1673ffffffffffffffffffffffffffffffffffffffff1681526020019081526020016000206000015490506000600760020154606483610bda91906123f6565b610be491906123c5565b905080600a60008573ffffffffffffffffffffffffffffffffffffffff1673ffffffffffffffffffffffffffffffffffffffff168152602001908152602001600020600401819055505050508080610c3b9061259d565b915050610b08565b505b565b6201518081565b600080600090505b600580549050811015610d3657600060058281548110610c9f577f4e487b7100000000000000000000000000000000000000000000000000000000600052603260045260246000fd5b9060005260206000200160009054906101000a900473ffffffffffffffffffffffffffffffffffffffff1690506000600a60008373ffffffffffffffffffffffffffffffffffffffff1673ffffffffffffffffffffffffffffffffffffffff1681526020019081526020016000206000015490508381610d1f919061236f565b935050508080610d2e9061259d565b915050610c56565b508060076002018190555050565b60078060000154908060010154908060020154905083565b600260009054906101000a900473ffffffffffffffffffffffffffffffffffffffff1681565b600a6020528060005260406000206000915090508060000154908060010154908060020154908060030160009054906101000a900460ff16908060030160019054906101000a900460ff16908060040154905086565b610de0610c4e565b60006007600201541415610dfd5743600760010181905550610fb2565b60005b600580549050811015610fa657600060058281548110610e49577f4e487b7100000000000000000000000000000000000000000000000000000000600052603260045260246000fd5b9060005260206000200160009054906101000a900473ffffffffffffffffffffffffffffffffffffffff1690506000600a60008373ffffffffffffffffffffffffffffffffffffffff1673ffffffffffffffffffffffffffffffffffffffff1681526020019081526020016000206000015490506000600760020154606483610ed291906123f6565b610edc91906123c5565b90506000606482600760000154610ef391906123f6565b610efd91906123c5565b90506000439050600060076001015482610f179190612450565b905060008184610f2791906123f6565b90506000811115610f8c5780600a60008973ffffffffffffffffffffffffffffffffffffffff1673ffffffffffffffffffffffffffffffffffffffff1681526020019081526020016000206001016000828254610f84919061236f565b925050819055505b505050505050508080610f9e9061259d565b915050610e00565b50436007600101819055505b565b600360009054906101000a900473ffffffffffffffffffffffffffffffffffffffff1681565b6000811161101d576040517f08c379a000000000000000000000000000000000000000000000000000000000815260040161101490612280565b60405180910390fd5b611025610dd8565b600160009054906101000a900473ffffffffffffffffffffffffffffffffffffffff1673ffffffffffffffffffffffffffffffffffffffff166323b872dd3330846040518463ffffffff1660e01b8152600401611084939291906120ed565b602060405180830381600087803b15801561109e57600080fd5b505af11580156110b2573d6000803e3d6000fd5b505050506040513d601f19601f820116820180604052508101906110d69190611e2d565b5080600a60003373ffffffffffffffffffffffffffffffffffffffff1673ffffffffffffffffffffffffffffffffffffffff1681526020019081526020016000206000016000828254611129919061236f565b9250508190555042600a60003373ffffffffffffffffffffffffffffffffffffffff1673ffffffffffffffffffffffffffffffffffffffff16815260200190815260200160002060020181905550600a60003373ffffffffffffffffffffffffffffffffffffffff1673ffffffffffffffffffffffffffffffffffffffff16815260200190815260200160002060030160009054906101000a900460ff1661122f576005339080600181540180825580915050600190039060005260206000200160009091909190916101000a81548173ffffffffffffffffffffffffffffffffffffffff021916908373ffffffffffffffffffffffffffffffffffffffff1602179055505b6001600a60003373ffffffffffffffffffffffffffffffffffffffff1673ffffffffffffffffffffffffffffffffffffffff16815260200190815260200160002060030160016101000a81548160ff0219169083151502179055506001600a60003373ffffffffffffffffffffffffffffffffffffffff1673ffffffffffffffffffffffffffffffffffffffff16815260200190815260200160002060030160006101000a81548160ff021916908315150217905550600260009054906101000a900473ffffffffffffffffffffffffffffffffffffffff1673ffffffffffffffffffffffffffffffffffffffff1663a9059cbb33836040518363ffffffff1660e01b8152600401611342929190612124565b602060405180830381600087803b15801561135c57600080fd5b505af1158015611370573d6000803e3d6000fd5b505050506040513d601f19601f820116820180604052508101906113949190611e2d565b5061139d610c4e565b6113a5610a1c565b50565b600460009054906101000a900473ffffffffffffffffffffffffffffffffffffffff1681565b6113d6610dd8565b6000600a60003373ffffffffffffffffffffffffffffffffffffffff1673ffffffffffffffffffffffffffffffffffffffff16815260200190815260200160002060000154905060008111611460576040517f08c379a000000000000000000000000000000000000000000000000000000000815260040161145790612220565b60405180910390fd5b6000606460148361147191906123f6565b61147b91906123c5565b90506000818361148b9190612450565b9050600160009054906101000a900473ffffffffffffffffffffffffffffffffffffffff1673ffffffffffffffffffffffffffffffffffffffff1663a9059cbb33836040518363ffffffff1660e01b81526004016114ea929190612124565b602060405180830381600087803b15801561150457600080fd5b505af1158015611518573d6000803e3d6000fd5b505050506040513d601f19601f8201168201806040525081019061153c9190611e2d565b50600160009054906101000a900473ffffffffffffffffffffffffffffffffffffffff1673ffffffffffffffffffffffffffffffffffffffff1663a9059cbb30846040518363ffffffff1660e01b815260040161159a929190612124565b602060405180830381600087803b1580156115b457600080fd5b505af11580156115c8573d6000803e3d6000fd5b505050506040513d601f19601f820116820180604052508101906115ec9190611e2d565b50600260009054906101000a900473ffffffffffffffffffffffffffffffffffffffff1673ffffffffffffffffffffffffffffffffffffffff166323b872dd3330866040518463ffffffff1660e01b815260040161164c939291906120ed565b602060405180830381600087803b15801561166657600080fd5b505af115801561167a573d6000803e3d6000fd5b505050506040513d601f19601f8201168201806040525081019061169e9190611e2d565b506000600a60003373ffffffffffffffffffffffffffffffffffffffff1673ffffffffffffffffffffffffffffffffffffffff168152602001908152602001600020600001819055506000600a60003373ffffffffffffffffffffffffffffffffffffffff1673ffffffffffffffffffffffffffffffffffffffff16815260200190815260200160002060030160016101000a81548160ff02191690831515021790555061174a610c4e565b611752610a1c565b505050565b6000811161179a576040517f08c379a000000000000000000000000000000000000000000000000000000000815260040161179190612280565b60405180910390fd5b600460009054906101000a900473ffffffffffffffffffffffffffffffffffffffff1673ffffffffffffffffffffffffffffffffffffffff163373ffffffffffffffffffffffffffffffffffffffff161461182a576040517f08c379a000000000000000000000000000000000000000000000000000000000815260040161182190612260565b60405180910390fd5b611832610c4e565b6000600760020154141561184f57436007600101819055506119ff565b60005b6005805490508110156119f35760006005828154811061189b577f4e487b7100000000000000000000000000000000000000000000000000000000600052603260045260246000fd5b9060005260206000200160009054906101000a900473ffffffffffffffffffffffffffffffffffffffff1690506000600a60008373ffffffffffffffffffffffffffffffffffffffff1673ffffffffffffffffffffffffffffffffffffffff168152602001908152602001600020600001549050600060076002015460648361192491906123f6565b61192e91906123c5565b905060006064828761194091906123f6565b61194a91906123c5565b905060004390506000600760010154826119649190612450565b90506000818461197491906123f6565b905060008111156119d95780600a60008973ffffffffffffffffffffffffffffffffffffffff1673ffffffffffffffffffffffffffffffffffffffff16815260200190815260200160002060010160008282546119d1919061236f565b925050819055505b5050505050505080806119eb9061259d565b915050611852565b50436007600101819055505b50565b611a0a610dd8565b6000600a60003373ffffffffffffffffffffffffffffffffffffffff1673ffffffffffffffffffffffffffffffffffffffff16815260200190815260200160002060000154905060008111611a94576040517f08c379a0000000000000000000000000000000000000000000000000000000008152600401611a8b90612220565b60405180910390fd5b600062015180600a60003373ffffffffffffffffffffffffffffffffffffffff1673ffffffffffffffffffffffffffffffffffffffff16815260200190815260200160002060020154611ae7919061236f565b905080421015611b2c576040517f08c379a0000000000000000000000000000000000000000000000000000000008152600401611b2390612240565b60405180910390fd5b600160009054906101000a900473ffffffffffffffffffffffffffffffffffffffff1673ffffffffffffffffffffffffffffffffffffffff1663a9059cbb33846040518363ffffffff1660e01b8152600401611b89929190612124565b602060405180830381600087803b158015611ba357600080fd5b505af1158015611bb7573d6000803e3d6000fd5b505050506040513d601f19601f82011682018060405250810190611bdb9190611e2d565b50600260009054906101000a900473ffffffffffffffffffffffffffffffffffffffff1673ffffffffffffffffffffffffffffffffffffffff166323b872dd3330856040518463ffffffff1660e01b8152600401611c3b939291906120ed565b602060405180830381600087803b158015611c5557600080fd5b505af1158015611c69573d6000803e3d6000fd5b505050506040513d601f19601f82011682018060405250810190611c8d9190611e2d565b506000600a60003373ffffffffffffffffffffffffffffffffffffffff1673ffffffffffffffffffffffffffffffffffffffff168152602001908152602001600020600001819055506000600a60003373ffffffffffffffffffffffffffffffffffffffff1673ffffffffffffffffffffffffffffffffffffffff16815260200190815260200160002060030160016101000a81548160ff021916908315150217905550611d39610c4e565b611d41610a1c565b5050565b601481565b60058181548110611d5a57600080fd5b906000526020600020016000915054906101000a900473ffffffffffffffffffffffffffffffffffffffff1681565b600081359050611d9881612684565b92915050565b600081519050611dad8161269b565b92915050565b600081359050611dc2816126b2565b92915050565b600060208284031215611dda57600080fd5b6000611de884828501611d89565b91505092915050565b60008060408385031215611e0457600080fd5b6000611e1285828601611d89565b9250506020611e2385828601611db3565b9150509250929050565b600060208284031215611e3f57600080fd5b6000611e4d84828501611d9e565b91505092915050565b600060208284031215611e6857600080fd5b6000611e7684828501611db3565b91505092915050565b611e8881612484565b82525050565b611e9781612496565b82525050565b611ea6816124cc565b82525050565b611eb5816124f0565b82525050565b611ec481612514565b82525050565b6000611ed582612353565b611edf818561235e565b9350611eef818560208601612538565b611ef881612673565b840191505092915050565b6000611f10601b8361235e565b91507f616d6f756e74206d6f7265207468616e204c502062616c616e636500000000006000830152602082019050919050565b6000611f50601f8361235e565b91507f616d6f756e74206d6f7265207468616e207265776172642062616c616e6365006000830152602082019050919050565b6000611f90600f8361235e565b91507f496e76616c6964206164647265737300000000000000000000000000000000006000830152602082019050919050565b6000611fd0601b8361235e565b91507f7374616b696e672062616c616e63652063616e6e6f74206265203000000000006000830152602082019050919050565b6000612010601c8361235e565b91507f746f6f206561726c7920746f20776974686472617720546f6b656e73000000006000830152602082019050919050565b600061205060148361235e565b91507f63616c6c6572206d757374206265206f776e65720000000000000000000000006000830152602082019050919050565b600061209060128361235e565b91507f616d6f756e742063616e6e6f74206265203000000000000000000000000000006000830152602082019050919050565b6120cc816124c2565b82525050565b60006020820190506120e76000830184611e7f565b92915050565b60006060820190506121026000830186611e7f565b61210f6020830185611e7f565b61211c60408301846120c3565b949350505050565b60006040820190506121396000830185611e7f565b61214660208301846120c3565b9392505050565b60006020820190506121626000830184611e9d565b92915050565b600060208201905061217d6000830184611eac565b92915050565b60006020820190506121986000830184611ebb565b92915050565b600060208201905081810360008301526121b88184611eca565b905092915050565b600060208201905081810360008301526121d981611f03565b9050919050565b600060208201905081810360008301526121f981611f43565b9050919050565b6000602082019050818103600083015261221981611f83565b9050919050565b6000602082019050818103600083015261223981611fc3565b9050919050565b6000602082019050818103600083015261225981612003565b9050919050565b6000602082019050818103600083015261227981612043565b9050919050565b6000602082019050818103600083015261229981612083565b9050919050565b60006020820190506122b560008301846120c3565b92915050565b60006060820190506122d060008301866120c3565b6122dd60208301856120c3565b6122ea60408301846120c3565b949350505050565b600060c08201905061230760008301896120c3565b61231460208301886120c3565b61232160408301876120c3565b61232e6060830186611e8e565b61233b6080830185611e8e565b61234860a08301846120c3565b979650505050505050565b600081519050919050565b600082825260208201905092915050565b600061237a826124c2565b9150612385836124c2565b9250827fffffffffffffffffffffffffffffffffffffffffffffffffffffffffffffffff038211156123ba576123b96125e6565b5b828201905092915050565b60006123d0826124c2565b91506123db836124c2565b9250826123eb576123ea612615565b5b828204905092915050565b6000612401826124c2565b915061240c836124c2565b9250817fffffffffffffffffffffffffffffffffffffffffffffffffffffffffffffffff0483118215151615612445576124446125e6565b5b828202905092915050565b600061245b826124c2565b9150612466836124c2565b925082821015612479576124786125e6565b5b828203905092915050565b600061248f826124a2565b9050919050565b60008115159050919050565b600073ffffffffffffffffffffffffffffffffffffffff82169050919050565b6000819050919050565b60006124d7826124de565b9050919050565b60006124e9826124a2565b9050919050565b60006124fb82612502565b9050919050565b600061250d826124a2565b9050919050565b600061251f82612526565b9050919050565b6000612531826124a2565b9050919050565b60005b8381101561255657808201518184015260208101905061253b565b83811115612565576000848401525b50505050565b6000600282049050600182168061258357607f821691505b6020821081141561259757612596612644565b5b50919050565b60006125a8826124c2565b91507fffffffffffffffffffffffffffffffffffffffffffffffffffffffffffffffff8214156125db576125da6125e6565b5b600182019050919050565b7f4e487b7100000000000000000000000000000000000000000000000000000000600052601160045260246000fd5b7f4e487b7100000000000000000000000000000000000000000000000000000000600052601260045260246000fd5b7f4e487b7100000000000000000000000000000000000000000000000000000000600052602260045260246000fd5b6000601f19601f8301169050919050565b61268d81612484565b811461269857600080fd5b50565b6126a481612496565b81146126af57600080fd5b50565b6126bb816124c2565b81146126c657600080fd5b5056fea264697066735822122099940c7ca6271ee7ba0b5c3c6f36e5abeb8600616908dbd3176ad87c335b0b6f64736f6c63430008000033",
  "immutableReferences": {},
  "source": "pragma solidity ^0.8.0;\n\nimport \"./XToken.sol\";\nimport \"./LpXToken.sol\";\nimport \"./PurseToken.sol\";\n\ncontract TokenFarm {\n    string public name = \"X Token Farm\";\n    XToken public xToken;\n    LPXToken public lpXToken;\n    PurseToken public purseToken;\n    address public owner;\n    address[] public stakers;\n    uint256 internal tokenBurnRate = 2;\n    uint256 public constant duration = 1 days;\n    uint256 public constant penaltyRate = 20;\n\n    FarmInfo public farmInfo;\n    mapping(address => StakerInfo) public stakerInfo;\n    \n    struct StakerInfo {\n        uint256 stakingBalance;\n        uint256 rewardBalance;\n        uint256 stakingTimestamp;\n        bool hasStaked;\n        bool isStaking;\n        uint256 poolShareRatio;\n    }\n\n    struct FarmInfo {\n        uint256 blockReward;\n        uint256 lastRewardBlock;  // Last block number that reward distribution occurs.\n        uint256 farmableSupply; // set in init, total amount of tokens farmable\n    }\n\n    constructor(XToken _xToken, LPXToken _lpXToken,PurseToken _purseToken, uint256 _blockReward) public {\n        xToken = _xToken;\n        lpXToken = _lpXToken;\n        purseToken = _purseToken;\n        farmInfo.blockReward = _blockReward;\n        owner = msg.sender;\n    }\n\n    // Stakes Tokens\n    function stakeTokens(uint256 _amount) public {\n        require(_amount > 0, \"amount cannot be 0\");\n        updateRewardTokens();\n        xToken.transferFrom(msg.sender, address(this), _amount); // Stake x token\n        stakerInfo[msg.sender].stakingBalance += _amount; \n        stakerInfo[msg.sender].stakingTimestamp = block.timestamp;\n\n        if (!stakerInfo[msg.sender].hasStaked) {\n            stakers.push(msg.sender);\n        }\n\n        //Update staking status\n        stakerInfo[msg.sender].isStaking = true;\n        stakerInfo[msg.sender].hasStaked = true;\n\n        lpXToken.transfer(msg.sender, _amount);\n        getTotalBalance();\n        getPoolShareRatio();\n    }\n\n    // Unstacking Tokens\n    function unstakeTokens() public {\n        updateRewardTokens();\n        uint256 balance = stakerInfo[msg.sender].stakingBalance;\n        require(balance > 0, \"staking balance cannot be 0\");\n        uint256 end = stakerInfo[msg.sender].stakingTimestamp + duration;\n        require(block.timestamp >= end, \"too early to withdraw Tokens\");\n        xToken.transfer(msg.sender, balance); // withdraw dai token\n        lpXToken.transferFrom(msg.sender, address(this), balance); //return lpX token\n\n        stakerInfo[msg.sender].stakingBalance = 0;\n        stakerInfo[msg.sender].isStaking = false;\n        getTotalBalance();\n        getPoolShareRatio();\n    }\n\n    // Issuing Tokens\n    function issueTokens(uint256 _amount) public {\n        require(_amount > 0, \"amount cannot be 0\");\n\n        // Only owner can call this function\n        require(msg.sender == owner, \"caller must be owner\");\n        getTotalBalance();\n\n        if( farmInfo.farmableSupply == 0){\n            farmInfo.lastRewardBlock = block.number;\n            return;\n        }\n        \n        //Issue tokens to all stakers\n        for (uint256 i = 0; i < stakers.length; i++) {\n            address recipient = stakers[i];\n            uint256 balance = stakerInfo[recipient].stakingBalance;\n            uint256 ratio = (balance * 100) / farmInfo.farmableSupply;\n            uint256 amount = (_amount * ratio) / 100;\n\n            uint256 blknumbernow = block.number;\n            uint256 diffofblk = blknumbernow - farmInfo.lastRewardBlock;\n            uint256 totalamount = amount * diffofblk;\n\n            if (totalamount > 0) {\n                stakerInfo[recipient].rewardBalance += totalamount; //Update reward balance\n            }\n        }\n        farmInfo.lastRewardBlock = block.number;\n    }\n\n    // Issuing Tokens for internal\n    function updateRewardTokens() public {\n\n        getTotalBalance();\n\n\n        if( farmInfo.farmableSupply == 0){\n            farmInfo.lastRewardBlock = block.number;\n            return;\n        }\n        //update reward tokens to all stakers\n        for (uint256 i = 0; i < stakers.length; i++) {\n            address recipient = stakers[i];\n            uint256 balance = stakerInfo[recipient].stakingBalance;\n            uint256 ratio = (balance * 100) / farmInfo.farmableSupply;\n            uint256 amount = farmInfo.blockReward * ratio / 100;\n            \n            uint256 blknumbernow = block.number;\n            uint256 diffofblk = blknumbernow - farmInfo.lastRewardBlock;\n            uint256 totalamount = amount * diffofblk;\n\n            if (totalamount > 0) {\n                stakerInfo[recipient].rewardBalance += totalamount; //Update reward balance\n            }\n        }\n        farmInfo.lastRewardBlock = block.number;\n    }\n    \n    // Emergency Unstacking Tokens to withdraw LP tokens with penalty\n    function emergencyUnstakeTokens() public {\n        updateRewardTokens();\n        uint256 balance = stakerInfo[msg.sender].stakingBalance;\n        require(balance > 0, \"staking balance cannot be 0\");\n        uint256 penalty = balance * penaltyRate/100;\n        uint256 remainingBalance = balance - penalty;\n        xToken.transfer(msg.sender, remainingBalance); // Unstake x token\n        xToken.transfer(address(this), penalty); // Unstake penalty x token\n        lpXToken.transferFrom(msg.sender, address(this), balance); //return lpx token\n\n        stakerInfo[msg.sender].stakingBalance = 0;\n        stakerInfo[msg.sender].isStaking = false;\n        getTotalBalance();\n        getPoolShareRatio();\n    }\n    \n    function getTotalBalance() public {\n        uint256 totalBalance;\n        for (uint256 i = 0; i < stakers.length; i++) {\n            address recipient = stakers[i];\n            uint256 balance = stakerInfo[recipient].stakingBalance;\n            totalBalance = balance + totalBalance;\n        }\n        farmInfo.farmableSupply = totalBalance;\n    }\n    \n    function getPoolShareRatio() public {\n        if( farmInfo.farmableSupply == 0){\n            for (uint256 i = 0; i < stakers.length; i++) {\n                address recipient = stakers[i];\n                stakerInfo[recipient].poolShareRatio = 0;\n            }\n        }\n        else {\n            for (uint256 i = 0; i < stakers.length; i++) {\n                address recipient = stakers[i];\n                uint256 balance = stakerInfo[recipient].stakingBalance;\n                uint256 ratio = (balance * 100) / farmInfo.farmableSupply;\n                stakerInfo[recipient].poolShareRatio = ratio;\n            }\n        }\n    }\n\n    function transferOwnership(address _to ,uint256 _amount) public {\n        require(_amount > 0, \"amount cannot be 0\");\n        require(_to == address(_to),\"Invalid address\");\n        uint256 balance = stakerInfo[msg.sender].stakingBalance;\n        require(_amount <= balance, \"amount more than LP balance\");\n        updateRewardTokens();\n        lpXToken.transferFrom(msg.sender, _to, _amount); //transfer lpXToken\n        stakerInfo[msg.sender].stakingBalance -= _amount;\n        \n        stakerInfo[_to].stakingBalance += (_amount); //Update staking balance\n        stakerInfo[_to].stakingTimestamp = stakerInfo[msg.sender].stakingTimestamp;\n\n        if (!stakerInfo[_to].hasStaked) {\n            stakers.push(_to);\n        }\n\n        //Update staking status\n        stakerInfo[_to].isStaking = true;\n        stakerInfo[_to].hasStaked = true;\n        \n        getTotalBalance();\n        getPoolShareRatio();\n    }    \n    \n    function redeemToken(uint256 _amount) public{\n        updateRewardTokens();\n        require(_amount > 0, \"amount cannot be 0\"); \n        uint256 balance = stakerInfo[msg.sender].rewardBalance;\n        require(_amount <= balance, \"amount more than reward balance\");\n        purseToken.transfer(msg.sender, _amount* tokenBurnRate); // Redeem reward token\n    }\n}",
  "sourcePath": "/home/ubuntu/Desktop/Blockchain Talent Program/YieldFarming/Yield_Farming_v3/src/contracts/TokenFarm_compund.sol",
  "compiler": {
    "name": "solc",
    "version": "0.8.0+commit.c7dfd78e.Emscripten.clang"
  },
  "schemaVersion": "3.4.1",
  "updatedAt": "2021-07-10T08:53:59.679Z",
  "networkType": "ethereum",
  "devdoc": {
    "kind": "dev",
    "methods": {},
    "version": 1
  },
  "userdoc": {
    "kind": "user",
    "methods": {},
    "version": 1
  }
}