{
  "contractName": "TokenFarm_v2",
  "abi": [
    {
      "inputs": [
        {
          "internalType": "contract XToken",
          "name": "_xToken",
          "type": "address"
        },
        {
          "internalType": "contract DaiToken",
          "name": "_daiToken",
          "type": "address"
        },
        {
          "internalType": "uint256",
          "name": "_blockReward",
          "type": "uint256"
        }
      ],
      "stateMutability": "nonpayable",
      "type": "constructor"
    },
    {
      "inputs": [],
      "name": "blockReward",
      "outputs": [
        {
          "internalType": "uint256",
          "name": "",
          "type": "uint256"
        }
      ],
      "stateMutability": "view",
      "type": "function"
    },
    {
      "inputs": [],
      "name": "daiToken",
      "outputs": [
        {
          "internalType": "contract DaiToken",
          "name": "",
          "type": "address"
        }
      ],
      "stateMutability": "view",
      "type": "function"
    },
    {
      "inputs": [],
      "name": "duration",
      "outputs": [
        {
          "internalType": "uint256",
          "name": "",
          "type": "uint256"
        }
      ],
      "stateMutability": "view",
      "type": "function"
    },
    {
      "inputs": [
        {
          "internalType": "address",
          "name": "",
          "type": "address"
        }
      ],
      "name": "hasStaked",
      "outputs": [
        {
          "internalType": "bool",
          "name": "",
          "type": "bool"
        }
      ],
      "stateMutability": "view",
      "type": "function"
    },
    {
      "inputs": [
        {
          "internalType": "address",
          "name": "",
          "type": "address"
        }
      ],
      "name": "isStaking",
      "outputs": [
        {
          "internalType": "bool",
          "name": "",
          "type": "bool"
        }
      ],
      "stateMutability": "view",
      "type": "function"
    },
    {
      "inputs": [],
      "name": "lastRewardBlock",
      "outputs": [
        {
          "internalType": "uint256",
          "name": "",
          "type": "uint256"
        }
      ],
      "stateMutability": "view",
      "type": "function"
    },
    {
      "inputs": [],
      "name": "name",
      "outputs": [
        {
          "internalType": "string",
          "name": "",
          "type": "string"
        }
      ],
      "stateMutability": "view",
      "type": "function"
    },
    {
      "inputs": [],
      "name": "owner",
      "outputs": [
        {
          "internalType": "address",
          "name": "",
          "type": "address"
        }
      ],
      "stateMutability": "view",
      "type": "function"
    },
    {
      "inputs": [],
      "name": "penaltyRate",
      "outputs": [
        {
          "internalType": "uint256",
          "name": "",
          "type": "uint256"
        }
      ],
      "stateMutability": "view",
      "type": "function"
    },
    {
      "inputs": [
        {
          "internalType": "uint256",
          "name": "",
          "type": "uint256"
        }
      ],
      "name": "stake",
      "outputs": [
        {
          "internalType": "uint256",
          "name": "id",
          "type": "uint256"
        },
        {
          "internalType": "uint256",
          "name": "balance",
          "type": "uint256"
        },
        {
          "internalType": "uint256",
          "name": "blocknumber",
          "type": "uint256"
        },
        {
          "internalType": "uint256",
          "name": "blocktimestamp",
          "type": "uint256"
        },
        {
          "internalType": "address",
          "name": "staker",
          "type": "address"
        },
        {
          "internalType": "bool",
          "name": "staked",
          "type": "bool"
        }
      ],
      "stateMutability": "view",
      "type": "function"
    },
    {
      "inputs": [
        {
          "internalType": "uint256",
          "name": "",
          "type": "uint256"
        }
      ],
      "name": "stakers",
      "outputs": [
        {
          "internalType": "address",
          "name": "",
          "type": "address"
        }
      ],
      "stateMutability": "view",
      "type": "function"
    },
    {
      "inputs": [
        {
          "internalType": "address",
          "name": "",
          "type": "address"
        }
      ],
      "name": "stakingBalance",
      "outputs": [
        {
          "internalType": "uint256",
          "name": "",
          "type": "uint256"
        }
      ],
      "stateMutability": "view",
      "type": "function"
    },
    {
      "inputs": [],
      "name": "stakingIndex",
      "outputs": [
        {
          "internalType": "uint256",
          "name": "",
          "type": "uint256"
        }
      ],
      "stateMutability": "view",
      "type": "function"
    },
    {
      "inputs": [
        {
          "internalType": "address",
          "name": "",
          "type": "address"
        }
      ],
      "name": "stakingTimestamp",
      "outputs": [
        {
          "internalType": "uint256",
          "name": "",
          "type": "uint256"
        }
      ],
      "stateMutability": "view",
      "type": "function"
    },
    {
      "inputs": [],
      "name": "xToken",
      "outputs": [
        {
          "internalType": "contract XToken",
          "name": "",
          "type": "address"
        }
      ],
      "stateMutability": "view",
      "type": "function"
    },
    {
      "inputs": [
        {
          "internalType": "uint256",
          "name": "_amount",
          "type": "uint256"
        }
      ],
      "name": "stakeTokens",
      "outputs": [],
      "stateMutability": "nonpayable",
      "type": "function"
    },
    {
      "inputs": [],
      "name": "unstakeTokens",
      "outputs": [],
      "stateMutability": "nonpayable",
      "type": "function"
    },
    {
      "inputs": [
        {
          "internalType": "uint256",
          "name": "_amount",
          "type": "uint256"
        }
      ],
      "name": "issueTokens",
      "outputs": [],
      "stateMutability": "nonpayable",
      "type": "function"
    },
    {
      "inputs": [],
      "name": "emergencyUnstakeTokens",
      "outputs": [],
      "stateMutability": "nonpayable",
      "type": "function"
    }
  ],
  "bytecode": "0x60806040526040518060400160405280600c81526020017f5820546f6b656e204661726d0000000000000000000000000000000000000000815250600090805190602001906200005192919062000162565b50600060045560026008553480156200006957600080fd5b50604051620023f1380380620023f183398181016040528101906200008f919062000257565b82600160006101000a81548173ffffffffffffffffffffffffffffffffffffffff021916908373ffffffffffffffffffffffffffffffffffffffff16021790555081600260006101000a81548173ffffffffffffffffffffffffffffffffffffffff021916908373ffffffffffffffffffffffffffffffffffffffff1602179055508060068190555033600360006101000a81548173ffffffffffffffffffffffffffffffffffffffff021916908373ffffffffffffffffffffffffffffffffffffffff160217905550505050620003c6565b828054620001709062000313565b90600052602060002090601f016020900481019282620001945760008555620001e0565b82601f10620001af57805160ff1916838001178555620001e0565b82800160010185558215620001e0579182015b82811115620001df578251825591602001919060010190620001c2565b5b509050620001ef9190620001f3565b5090565b5b808211156200020e576000816000905550600101620001f4565b5090565b600081519050620002238162000378565b92915050565b6000815190506200023a8162000392565b92915050565b6000815190506200025181620003ac565b92915050565b6000806000606084860312156200026d57600080fd5b60006200027d8682870162000229565b9350506020620002908682870162000212565b9250506040620002a38682870162000240565b9150509250925092565b6000620002ba82620002e9565b9050919050565b6000620002ce82620002ad565b9050919050565b6000620002e282620002ad565b9050919050565b600073ffffffffffffffffffffffffffffffffffffffff82169050919050565b6000819050919050565b600060028204905060018216806200032c57607f821691505b6020821081141562000343576200034262000349565b5b50919050565b7f4e487b7100000000000000000000000000000000000000000000000000000000600052602260045260246000fd5b6200038381620002c1565b81146200038f57600080fd5b50565b6200039d81620002d5565b8114620003a957600080fd5b50565b620003b78162000309565b8114620003c357600080fd5b50565b61201b80620003d66000396000f3fe608060405234801561001057600080fd5b50600436106101215760003560e01c80638f0794fe116100ad578063a9f8d18111610071578063a9f8d181146102eb578063be22f54614610309578063c93c8f3414610327578063d6b7494f14610357578063fd5e6dd11461037557610121565b80638f0794fe14610256578063a179b81214610286578063a5820daa14610290578063a5ce413b146102ac578063a694fc3a146102b657610121565b806330f50859116100f457806330f508591461019e57806345bc78ab146101bc5780636f49712b146101ec5780637547c7a31461021c5780638da5cb5b1461023857610121565b806306fdde0314610126578063088b699e146101445780630ac168a1146101625780630fb5a6b414610180575b600080fd5b61012e6103a5565b60405161013b9190611b75565b60405180910390f35b61014c610433565b6040516101599190611b5a565b60405180910390f35b61016a610459565b6040516101779190611c17565b60405180910390f35b61018861045f565b6040516101959190611c17565b60405180910390f35b6101a6610466565b6040516101b39190611c17565b60405180910390f35b6101d660048036038101906101d191906118aa565b61046c565b6040516101e39190611c17565b60405180910390f35b610206600480360381019061020191906118aa565b610484565b6040516102139190611b24565b60405180910390f35b610236600480360381019061023191906118fc565b6104a4565b005b6102406109a9565b60405161024d9190611aa9565b60405180910390f35b610270600480360381019061026b91906118aa565b6109cf565b60405161027d9190611c17565b60405180910390f35b61028e6109e7565b005b6102aa60048036038101906102a591906118fc565b610d4f565b005b6102b4611111565b005b6102d060048036038101906102cb91906118fc565b611430565b6040516102e296959493929190611c32565b60405180910390f35b6102f3611499565b6040516103009190611c17565b60405180910390f35b61031161149f565b60405161031e9190611b3f565b60405180910390f35b610341600480360381019061033c91906118aa565b6114c5565b60405161034e9190611b24565b60405180910390f35b61035f6114e5565b60405161036c9190611c17565b60405180910390f35b61038f600480360381019061038a91906118fc565b6114ea565b60405161039c9190611aa9565b60405180910390f35b600080546103b290611e87565b80601f01602080910402602001604051908101604052809291908181526020018280546103de90611e87565b801561042b5780601f106104005761010080835404028352916020019161042b565b820191906000526020600020905b81548152906001019060200180831161040e57829003601f168201915b505050505081565b600160009054906101000a900473ffffffffffffffffffffffffffffffffffffffff1681565b60065481565b6202a30081565b60045481565b60096020528060005260406000206000915090505481565b600d6020528060005260406000206000915054906101000a900460ff1681565b600081116104e7576040517f08c379a00000000000000000000000000000000000000000000000000000000081526004016104de90611bf7565b60405180910390fd5b6104f2600654611529565b6004600081548092919061050590611eb9565b9190505550600260009054906101000a900473ffffffffffffffffffffffffffffffffffffffff1673ffffffffffffffffffffffffffffffffffffffff166323b872dd3330846040518463ffffffff1660e01b815260040161056993929190611ac4565b602060405180830381600087803b15801561058357600080fd5b505af1158015610597573d6000803e3d6000fd5b505050506040513d601f19601f820116820180604052508101906105bb91906118d3565b5080600960003373ffffffffffffffffffffffffffffffffffffffff1673ffffffffffffffffffffffffffffffffffffffff168152602001908152602001600020546106079190611caf565b600960003373ffffffffffffffffffffffffffffffffffffffff1673ffffffffffffffffffffffffffffffffffffffff1681526020019081526020016000208190555042600b60003373ffffffffffffffffffffffffffffffffffffffff1673ffffffffffffffffffffffffffffffffffffffff16815260200190815260200160002081905550436007819055506040518060c0016040528060045481526020018281526020014381526020014281526020013373ffffffffffffffffffffffffffffffffffffffff16815260200160011515815250600a600060045481526020019081526020016000206000820151816000015560208201518160010155604082015181600201556060820151816003015560808201518160040160006101000a81548173ffffffffffffffffffffffffffffffffffffffff021916908373ffffffffffffffffffffffffffffffffffffffff16021790555060a08201518160040160146101000a81548160ff021916908315150217905550905050600c60003373ffffffffffffffffffffffffffffffffffffffff1673ffffffffffffffffffffffffffffffffffffffff16815260200190815260200160002060009054906101000a900460ff16610839576005339080600181540180825580915050600190039060005260206000200160009091909190916101000a81548173ffffffffffffffffffffffffffffffffffffffff021916908373ffffffffffffffffffffffffffffffffffffffff1602179055505b6001600d60003373ffffffffffffffffffffffffffffffffffffffff1673ffffffffffffffffffffffffffffffffffffffff16815260200190815260200160002060006101000a81548160ff0219169083151502179055506001600c60003373ffffffffffffffffffffffffffffffffffffffff1673ffffffffffffffffffffffffffffffffffffffff16815260200190815260200160002060006101000a81548160ff021916908315150217905550600160009054906101000a900473ffffffffffffffffffffffffffffffffffffffff1673ffffffffffffffffffffffffffffffffffffffff1663a9059cbb33600854846109369190611d36565b6040518363ffffffff1660e01b8152600401610953929190611afb565b602060405180830381600087803b15801561096d57600080fd5b505af1158015610981573d6000803e3d6000fd5b505050506040513d601f19601f820116820180604052508101906109a591906118d3565b5050565b600360009054906101000a900473ffffffffffffffffffffffffffffffffffffffff1681565b600b6020528060005260406000206000915090505481565b6000600960003373ffffffffffffffffffffffffffffffffffffffff1673ffffffffffffffffffffffffffffffffffffffff16815260200190815260200160002054905060008111610a6e576040517f08c379a0000000000000000000000000000000000000000000000000000000008152600401610a6590611b97565b60405180910390fd5b60006064601483610a7f9190611d36565b610a899190611d05565b905060008183610a999190611d90565b9050600260009054906101000a900473ffffffffffffffffffffffffffffffffffffffff1673ffffffffffffffffffffffffffffffffffffffff1663a9059cbb33836040518363ffffffff1660e01b8152600401610af8929190611afb565b602060405180830381600087803b158015610b1257600080fd5b505af1158015610b26573d6000803e3d6000fd5b505050506040513d601f19601f82011682018060405250810190610b4a91906118d3565b50600260009054906101000a900473ffffffffffffffffffffffffffffffffffffffff1673ffffffffffffffffffffffffffffffffffffffff1663a9059cbb30846040518363ffffffff1660e01b8152600401610ba8929190611afb565b602060405180830381600087803b158015610bc257600080fd5b505af1158015610bd6573d6000803e3d6000fd5b505050506040513d601f19601f82011682018060405250810190610bfa91906118d3565b50600160009054906101000a900473ffffffffffffffffffffffffffffffffffffffff1673ffffffffffffffffffffffffffffffffffffffff166323b872dd3330866040518463ffffffff1660e01b8152600401610c5a93929190611ac4565b602060405180830381600087803b158015610c7457600080fd5b505af1158015610c88573d6000803e3d6000fd5b505050506040513d601f19601f82011682018060405250810190610cac91906118d3565b506000600960003373ffffffffffffffffffffffffffffffffffffffff1673ffffffffffffffffffffffffffffffffffffffff168152602001908152602001600020819055506000600d60003373ffffffffffffffffffffffffffffffffffffffff1673ffffffffffffffffffffffffffffffffffffffff16815260200190815260200160002060006101000a81548160ff021916908315150217905550505050565b60008111610d92576040517f08c379a0000000000000000000000000000000000000000000000000000000008152600401610d8990611bf7565b60405180910390fd5b600360009054906101000a900473ffffffffffffffffffffffffffffffffffffffff1673ffffffffffffffffffffffffffffffffffffffff163373ffffffffffffffffffffffffffffffffffffffff1614610e22576040517f08c379a0000000000000000000000000000000000000000000000000000000008152600401610e1990611bd7565b60405180910390fd5b600080600090505b600580549050811015610f0757600060058281548110610e73577f4e487b7100000000000000000000000000000000000000000000000000000000600052603260045260246000fd5b9060005260206000200160009054906101000a900473ffffffffffffffffffffffffffffffffffffffff1690506000600960008373ffffffffffffffffffffffffffffffffffffffff1673ffffffffffffffffffffffffffffffffffffffff1681526020019081526020016000205490508381610ef09190611caf565b935050508080610eff90611eb9565b915050610e2a565b5060005b60058054905081101561110c57600060058281548110610f54577f4e487b7100000000000000000000000000000000000000000000000000000000600052603260045260246000fd5b9060005260206000200160009054906101000a900473ffffffffffffffffffffffffffffffffffffffff1690506000600960008373ffffffffffffffffffffffffffffffffffffffff1673ffffffffffffffffffffffffffffffffffffffff168152602001908152602001600020549050600084606483610fd59190611d36565b610fdf9190611d05565b9050600060648288610ff19190611d36565b610ffb9190611d05565b905060004390506000600754826110129190611d90565b9050600081846110229190611d36565b905060008111156110eb57600160009054906101000a900473ffffffffffffffffffffffffffffffffffffffff1673ffffffffffffffffffffffffffffffffffffffff1663a9059cbb886008548461107a9190611d36565b6040518363ffffffff1660e01b8152600401611097929190611afb565b602060405180830381600087803b1580156110b157600080fd5b505af11580156110c5573d6000803e3d6000fd5b505050506040513d601f19601f820116820180604052508101906110e991906118d3565b505b4360078190555050505050505050808061110490611eb9565b915050610f0b565b505050565b6000600960003373ffffffffffffffffffffffffffffffffffffffff1673ffffffffffffffffffffffffffffffffffffffff16815260200190815260200160002054905060008111611198576040517f08c379a000000000000000000000000000000000000000000000000000000000815260040161118f90611b97565b60405180910390fd5b60006202a300600b60003373ffffffffffffffffffffffffffffffffffffffff1673ffffffffffffffffffffffffffffffffffffffff168152602001908152602001600020546111e89190611caf565b90508042101561122d576040517f08c379a000000000000000000000000000000000000000000000000000000000815260040161122490611bb7565b60405180910390fd5b600260009054906101000a900473ffffffffffffffffffffffffffffffffffffffff1673ffffffffffffffffffffffffffffffffffffffff1663a9059cbb33846040518363ffffffff1660e01b815260040161128a929190611afb565b602060405180830381600087803b1580156112a457600080fd5b505af11580156112b8573d6000803e3d6000fd5b505050506040513d601f19601f820116820180604052508101906112dc91906118d3565b50600160009054906101000a900473ffffffffffffffffffffffffffffffffffffffff1673ffffffffffffffffffffffffffffffffffffffff166323b872dd3330856040518463ffffffff1660e01b815260040161133c93929190611ac4565b602060405180830381600087803b15801561135657600080fd5b505af115801561136a573d6000803e3d6000fd5b505050506040513d601f19601f8201168201806040525081019061138e91906118d3565b506000600960003373ffffffffffffffffffffffffffffffffffffffff1673ffffffffffffffffffffffffffffffffffffffff168152602001908152602001600020819055506000600d60003373ffffffffffffffffffffffffffffffffffffffff1673ffffffffffffffffffffffffffffffffffffffff16815260200190815260200160002060006101000a81548160ff0219169083151502179055505050565b600a6020528060005260406000206000915090508060000154908060010154908060020154908060030154908060040160009054906101000a900473ffffffffffffffffffffffffffffffffffffffff16908060040160149054906101000a900460ff16905086565b60075481565b600260009054906101000a900473ffffffffffffffffffffffffffffffffffffffff1681565b600c6020528060005260406000206000915054906101000a900460ff1681565b601481565b600581815481106114fa57600080fd5b906000526020600020016000915054906101000a900473ffffffffffffffffffffffffffffffffffffffff1681565b6000811161156c576040517f08c379a000000000000000000000000000000000000000000000000000000000815260040161156390611bf7565b60405180910390fd5b600080600090505b600580549050811015611651576000600582815481106115bd577f4e487b7100000000000000000000000000000000000000000000000000000000600052603260045260246000fd5b9060005260206000200160009054906101000a900473ffffffffffffffffffffffffffffffffffffffff1690506000600960008373ffffffffffffffffffffffffffffffffffffffff1673ffffffffffffffffffffffffffffffffffffffff168152602001908152602001600020549050838161163a9190611caf565b93505050808061164990611eb9565b915050611574565b5060008114156116615750611868565b60005b60058054905081101561185e576000600582815481106116ad577f4e487b7100000000000000000000000000000000000000000000000000000000600052603260045260246000fd5b9060005260206000200160009054906101000a900473ffffffffffffffffffffffffffffffffffffffff1690506000600960008373ffffffffffffffffffffffffffffffffffffffff1673ffffffffffffffffffffffffffffffffffffffff16815260200190815260200160002054905060008460648361172e9190611d36565b6117389190611d05565b905060006064828861174a9190611d36565b6117549190611d05565b9050600043905060006007548261176b9190611d90565b90506000818461177b9190611d36565b9050600081111561184457600160009054906101000a900473ffffffffffffffffffffffffffffffffffffffff1673ffffffffffffffffffffffffffffffffffffffff1663a9059cbb88600854846117d39190611d36565b6040518363ffffffff1660e01b81526004016117f0929190611afb565b602060405180830381600087803b15801561180a57600080fd5b505af115801561181e573d6000803e3d6000fd5b505050506040513d601f19601f8201168201806040525081019061184291906118d3565b505b50505050505050808061185690611eb9565b915050611664565b5043600781905550505b50565b60008135905061187a81611fa0565b92915050565b60008151905061188f81611fb7565b92915050565b6000813590506118a481611fce565b92915050565b6000602082840312156118bc57600080fd5b60006118ca8482850161186b565b91505092915050565b6000602082840312156118e557600080fd5b60006118f384828501611880565b91505092915050565b60006020828403121561190e57600080fd5b600061191c84828501611895565b91505092915050565b61192e81611dc4565b82525050565b61193d81611dd6565b82525050565b61194c81611e0c565b82525050565b61195b81611e30565b82525050565b600061196c82611c93565b6119768185611c9e565b9350611986818560208601611e54565b61198f81611f8f565b840191505092915050565b60006119a7601b83611c9e565b91507f7374616b696e672062616c616e63652063616e6e6f74206265203000000000006000830152602082019050919050565b60006119e7601c83611c9e565b91507f746f6f206561726c7920746f20776974686472617720546f6b656e73000000006000830152602082019050919050565b6000611a27601483611c9e565b91507f63616c6c6572206d757374206265206f776e65720000000000000000000000006000830152602082019050919050565b6000611a67601283611c9e565b91507f616d6f756e742063616e6e6f74206265203000000000000000000000000000006000830152602082019050919050565b611aa381611e02565b82525050565b6000602082019050611abe6000830184611925565b92915050565b6000606082019050611ad96000830186611925565b611ae66020830185611925565b611af36040830184611a9a565b949350505050565b6000604082019050611b106000830185611925565b611b1d6020830184611a9a565b9392505050565b6000602082019050611b396000830184611934565b92915050565b6000602082019050611b546000830184611943565b92915050565b6000602082019050611b6f6000830184611952565b92915050565b60006020820190508181036000830152611b8f8184611961565b905092915050565b60006020820190508181036000830152611bb08161199a565b9050919050565b60006020820190508181036000830152611bd0816119da565b9050919050565b60006020820190508181036000830152611bf081611a1a565b9050919050565b60006020820190508181036000830152611c1081611a5a565b9050919050565b6000602082019050611c2c6000830184611a9a565b92915050565b600060c082019050611c476000830189611a9a565b611c546020830188611a9a565b611c616040830187611a9a565b611c6e6060830186611a9a565b611c7b6080830185611925565b611c8860a0830184611934565b979650505050505050565b600081519050919050565b600082825260208201905092915050565b6000611cba82611e02565b9150611cc583611e02565b9250827fffffffffffffffffffffffffffffffffffffffffffffffffffffffffffffffff03821115611cfa57611cf9611f02565b5b828201905092915050565b6000611d1082611e02565b9150611d1b83611e02565b925082611d2b57611d2a611f31565b5b828204905092915050565b6000611d4182611e02565b9150611d4c83611e02565b9250817fffffffffffffffffffffffffffffffffffffffffffffffffffffffffffffffff0483118215151615611d8557611d84611f02565b5b828202905092915050565b6000611d9b82611e02565b9150611da683611e02565b925082821015611db957611db8611f02565b5b828203905092915050565b6000611dcf82611de2565b9050919050565b60008115159050919050565b600073ffffffffffffffffffffffffffffffffffffffff82169050919050565b6000819050919050565b6000611e1782611e1e565b9050919050565b6000611e2982611de2565b9050919050565b6000611e3b82611e42565b9050919050565b6000611e4d82611de2565b9050919050565b60005b83811015611e72578082015181840152602081019050611e57565b83811115611e81576000848401525b50505050565b60006002820490506001821680611e9f57607f821691505b60208210811415611eb357611eb2611f60565b5b50919050565b6000611ec482611e02565b91507fffffffffffffffffffffffffffffffffffffffffffffffffffffffffffffffff821415611ef757611ef6611f02565b5b600182019050919050565b7f4e487b7100000000000000000000000000000000000000000000000000000000600052601160045260246000fd5b7f4e487b7100000000000000000000000000000000000000000000000000000000600052601260045260246000fd5b7f4e487b7100000000000000000000000000000000000000000000000000000000600052602260045260246000fd5b6000601f19601f8301169050919050565b611fa981611dc4565b8114611fb457600080fd5b50565b611fc081611dd6565b8114611fcb57600080fd5b50565b611fd781611e02565b8114611fe257600080fd5b5056fea26469706673582212202f5ac9b8b2820976aae9af745fd01b187bec85a7c8dcd94e79e5114dc41e0f5164736f6c63430008000033",
  "immutableReferences": {},
  "source": "pragma solidity ^0.8.0;\n\nimport \"./XToken.sol\";\nimport \"./DaiToken.sol\";\n\ncontract TokenFarm_v2 {\n    string public name = \"X Token Farm\";\n    XToken public xToken;\n    DaiToken public daiToken;\n    address public owner;\n    uint256 public stakingIndex = 0;\n    address[] public stakers;\n    uint256 public blockReward;\n    uint256 public lastRewardBlock;\n    uint256 internal xTokenBurnRate = 2;\n    uint256 public constant duration = 2 days;\n    uint256 public constant penaltyRate = 20;\n    \n    \n    mapping(address => uint256) public stakingBalance;\n    mapping(uint256 => StakeUser) public stake;\n    mapping(address => uint256) public stakingTimestamp;\n    mapping(address => bool) public hasStaked;\n    mapping(address => bool) public isStaking;\n\n    struct StakeUser {\n        uint256 id;\n        uint256 balance;\n        uint256 blocknumber;\n        uint256 blocktimestamp;\n        address staker;\n        bool staked;\n    }\n\n\n    constructor(XToken _xToken, DaiToken _daiToken, uint256 _blockReward) public {\n        xToken = _xToken;\n        daiToken = _daiToken;\n        blockReward = _blockReward;\n        owner = msg.sender;\n    }\n\n    // Stakes Tokens\n    function stakeTokens(uint256 _amount) public {\n        require(_amount > 0, \"amount cannot be 0\");\n        updateRewardTokens(blockReward);\n        stakingIndex++;\n        daiToken.transferFrom(msg.sender, address(this), _amount); // Stake dai token\n        stakingBalance[msg.sender] = stakingBalance[msg.sender] + _amount; //Update staking balance\n        stakingTimestamp[msg.sender] = block.timestamp;\n        lastRewardBlock = block.number;\n        stake[stakingIndex] = StakeUser(\n            stakingIndex,\n            _amount,\n            block.number,\n            block.timestamp,\n            msg.sender,\n            true\n        );\n\n        if (!hasStaked[msg.sender]) {\n            stakers.push(msg.sender);\n        }\n\n        //Update staking status\n        isStaking[msg.sender] = true;\n        hasStaked[msg.sender] = true;\n\n        xToken.transfer(msg.sender, _amount * xTokenBurnRate);\n    }\n\n    // Unstacking Tokens\n    function unstakeTokens() public {\n        uint256 balance = stakingBalance[msg.sender];\n        require(balance > 0, \"staking balance cannot be 0\");\n        uint256 end = stakingTimestamp[msg.sender] + duration;\n        require(block.timestamp >= end, \"too early to withdraw Tokens\");\n        daiToken.transfer(msg.sender, balance); // Stake dai token\n        xToken.transferFrom(msg.sender, address(this), balance); //return x token\n\n        stakingBalance[msg.sender] = 0;\n        isStaking[msg.sender] = false;\n    }\n\n    // Issuing Tokens\n    function issueTokens(uint256 _amount) public {\n        require(_amount > 0, \"amount cannot be 0\");\n\n        // Only owner can call this function\n        require(msg.sender == owner, \"caller must be owner\");\n        uint256 totalBalance;\n\n        for (uint256 i = 0; i < stakers.length; i++) {\n            address recipient = stakers[i];\n            uint256 balance = stakingBalance[recipient];\n            totalBalance = balance + totalBalance;\n        }\n\n        // uint256 totalBalance = daiToken.balanceOf(address(this));\n\n        //Issue tokens to all stakers\n        for (uint256 i = 0; i < stakers.length; i++) {\n            address recipient = stakers[i];\n            uint256 balance = stakingBalance[recipient];\n            uint256 ratio = (balance * 100) / totalBalance;\n            uint256 amount = (_amount * ratio) / 100;\n\n            uint256 blknumbernow = block.number;\n            uint256 diffofblk = blknumbernow - lastRewardBlock;\n            uint256 totalamount = amount * diffofblk;\n\n            if (totalamount > 0) {\n                xToken.transfer(recipient, totalamount * xTokenBurnRate);\n            }\n            lastRewardBlock = block.number;\n        }\n    }\n\n    // Issuing Tokens for internal\n    function updateRewardTokens(uint256 _amount) internal {\n        require(_amount > 0, \"amount cannot be 0\");\n        uint256 totalBalance;\n\n        for (uint256 i = 0; i < stakers.length; i++) {\n            address recipient = stakers[i];\n            uint256 balance = stakingBalance[recipient]; \n            totalBalance = balance + totalBalance;\n        }\n\n        if( totalBalance == 0){\n            return;\n        }\n        //Issue tokens to all stakers\n        for (uint256 i = 0; i < stakers.length; i++) {\n            address recipient = stakers[i];\n            uint256 balance = stakingBalance[recipient];\n            uint256 ratio = (balance * 100) / totalBalance;\n            uint256 amount = _amount * ratio / 100;\n            \n            uint256 blknumbernow = block.number;\n            uint256 diffofblk = blknumbernow - lastRewardBlock;\n            uint256 totalamount = amount * diffofblk;\n\n            if (totalamount > 0) {\n                xToken.transfer(recipient, totalamount * xTokenBurnRate);\n            }\n        }\n        lastRewardBlock = block.number;\n    }\n    \n    // Emergency Unstacking Tokens to withdraw LP tokens with penalty\n    function emergencyUnstakeTokens() public {\n        uint256 balance = stakingBalance[msg.sender];\n        require(balance > 0, \"staking balance cannot be 0\");\n        uint256 penalty = balance * penaltyRate/100;\n        uint256 remainingBalance = balance - penalty;\n        daiToken.transfer(msg.sender, remainingBalance); // Unstake dai token\n        daiToken.transfer(address(this), penalty); // Unstake penalty dai token\n        xToken.transferFrom(msg.sender, address(this), balance); //return x token\n\n        stakingBalance[msg.sender] = 0;\n        isStaking[msg.sender] = false;\n    }\n}\n",
  "sourcePath": "/home/ubuntu/Desktop/Blockchain Talent Program/YieldFarming/Yield_Farming_compound/src/contracts/TokenFarm.sol",
  "compiler": {
    "name": "solc",
    "version": "0.8.0+commit.c7dfd78e.Emscripten.clang"
  },
  "schemaVersion": "3.4.1",
  "updatedAt": "2021-06-30T06:44:49.563Z",
  "devdoc": {
    "kind": "dev",
    "methods": {},
    "version": 1
  },
  "userdoc": {
    "kind": "user",
    "methods": {},
    "version": 1
  }
}