{
  "contractName": "TokenFarm",
  "abi": [
    {
      "inputs": [
        {
          "internalType": "contract XToken",
          "name": "_xToken",
          "type": "address"
        },
        {
          "internalType": "contract DaiToken",
          "name": "_daiToken",
          "type": "address"
        },
        {
          "internalType": "uint256",
          "name": "_blockReward",
          "type": "uint256"
        }
      ],
      "stateMutability": "nonpayable",
      "type": "constructor"
    },
    {
      "inputs": [],
      "name": "daiToken",
      "outputs": [
        {
          "internalType": "contract DaiToken",
          "name": "",
          "type": "address"
        }
      ],
      "stateMutability": "view",
      "type": "function",
      "constant": true
    },
    {
      "inputs": [],
      "name": "duration",
      "outputs": [
        {
          "internalType": "uint256",
          "name": "",
          "type": "uint256"
        }
      ],
      "stateMutability": "view",
      "type": "function",
      "constant": true
    },
    {
      "inputs": [],
      "name": "farmInfo",
      "outputs": [
        {
          "internalType": "uint256",
          "name": "blockReward",
          "type": "uint256"
        },
        {
          "internalType": "uint256",
          "name": "lastRewardBlock",
          "type": "uint256"
        },
        {
          "internalType": "uint256",
          "name": "farmableSupply",
          "type": "uint256"
        }
      ],
      "stateMutability": "view",
      "type": "function",
      "constant": true
    },
    {
      "inputs": [
        {
          "internalType": "address",
          "name": "",
          "type": "address"
        }
      ],
      "name": "hasStaked",
      "outputs": [
        {
          "internalType": "bool",
          "name": "",
          "type": "bool"
        }
      ],
      "stateMutability": "view",
      "type": "function",
      "constant": true
    },
    {
      "inputs": [
        {
          "internalType": "address",
          "name": "",
          "type": "address"
        }
      ],
      "name": "isStaking",
      "outputs": [
        {
          "internalType": "bool",
          "name": "",
          "type": "bool"
        }
      ],
      "stateMutability": "view",
      "type": "function",
      "constant": true
    },
    {
      "inputs": [],
      "name": "name",
      "outputs": [
        {
          "internalType": "string",
          "name": "",
          "type": "string"
        }
      ],
      "stateMutability": "view",
      "type": "function",
      "constant": true
    },
    {
      "inputs": [],
      "name": "owner",
      "outputs": [
        {
          "internalType": "address",
          "name": "",
          "type": "address"
        }
      ],
      "stateMutability": "view",
      "type": "function",
      "constant": true
    },
    {
      "inputs": [],
      "name": "penaltyRate",
      "outputs": [
        {
          "internalType": "uint256",
          "name": "",
          "type": "uint256"
        }
      ],
      "stateMutability": "view",
      "type": "function",
      "constant": true
    },
    {
      "inputs": [
        {
          "internalType": "address",
          "name": "",
          "type": "address"
        }
      ],
      "name": "poolShareRatio",
      "outputs": [
        {
          "internalType": "uint256",
          "name": "",
          "type": "uint256"
        }
      ],
      "stateMutability": "view",
      "type": "function",
      "constant": true
    },
    {
      "inputs": [
        {
          "internalType": "uint256",
          "name": "",
          "type": "uint256"
        }
      ],
      "name": "stakers",
      "outputs": [
        {
          "internalType": "address",
          "name": "",
          "type": "address"
        }
      ],
      "stateMutability": "view",
      "type": "function",
      "constant": true
    },
    {
      "inputs": [
        {
          "internalType": "address",
          "name": "",
          "type": "address"
        }
      ],
      "name": "stakingBalance",
      "outputs": [
        {
          "internalType": "uint256",
          "name": "",
          "type": "uint256"
        }
      ],
      "stateMutability": "view",
      "type": "function",
      "constant": true
    },
    {
      "inputs": [
        {
          "internalType": "address",
          "name": "",
          "type": "address"
        }
      ],
      "name": "stakingTimestamp",
      "outputs": [
        {
          "internalType": "uint256",
          "name": "",
          "type": "uint256"
        }
      ],
      "stateMutability": "view",
      "type": "function",
      "constant": true
    },
    {
      "inputs": [],
      "name": "xToken",
      "outputs": [
        {
          "internalType": "contract XToken",
          "name": "",
          "type": "address"
        }
      ],
      "stateMutability": "view",
      "type": "function",
      "constant": true
    },
    {
      "inputs": [
        {
          "internalType": "uint256",
          "name": "_amount",
          "type": "uint256"
        }
      ],
      "name": "stakeTokens",
      "outputs": [],
      "stateMutability": "nonpayable",
      "type": "function"
    },
    {
      "inputs": [],
      "name": "unstakeTokens",
      "outputs": [],
      "stateMutability": "nonpayable",
      "type": "function"
    },
    {
      "inputs": [
        {
          "internalType": "uint256",
          "name": "_amount",
          "type": "uint256"
        }
      ],
      "name": "issueTokens",
      "outputs": [],
      "stateMutability": "nonpayable",
      "type": "function"
    },
    {
      "inputs": [],
      "name": "emergencyUnstakeTokens",
      "outputs": [],
      "stateMutability": "nonpayable",
      "type": "function"
    },
    {
      "inputs": [],
      "name": "getTotalBalance",
      "outputs": [],
      "stateMutability": "nonpayable",
      "type": "function"
    },
    {
      "inputs": [],
      "name": "getPoolShareRatio",
      "outputs": [],
      "stateMutability": "nonpayable",
      "type": "function"
    },
    {
      "inputs": [
        {
          "internalType": "address",
          "name": "_to",
          "type": "address"
        },
        {
          "internalType": "uint256",
          "name": "_amount",
          "type": "uint256"
        }
      ],
      "name": "transferOwnership",
      "outputs": [],
      "stateMutability": "nonpayable",
      "type": "function"
    },
    {
      "inputs": [
        {
          "internalType": "uint256",
          "name": "_amount",
          "type": "uint256"
        }
      ],
      "name": "swapToken",
      "outputs": [],
      "stateMutability": "nonpayable",
      "type": "function"
    }
  ],
  "bytecode": "0x60806040526040518060400160405280600c81526020017f5820546f6b656e204661726d0000000000000000000000000000000000000000815250600090805190602001906200005192919062000160565b5060026005553480156200006457600080fd5b5060405162002cfa38038062002cfa83398181016040528101906200008a919062000255565b82600160006101000a81548173ffffffffffffffffffffffffffffffffffffffff021916908373ffffffffffffffffffffffffffffffffffffffff16021790555081600260006101000a81548173ffffffffffffffffffffffffffffffffffffffff021916908373ffffffffffffffffffffffffffffffffffffffff1602179055508060066000018190555033600360006101000a81548173ffffffffffffffffffffffffffffffffffffffff021916908373ffffffffffffffffffffffffffffffffffffffff160217905550505050620003c4565b8280546200016e9062000311565b90600052602060002090601f016020900481019282620001925760008555620001de565b82601f10620001ad57805160ff1916838001178555620001de565b82800160010185558215620001de579182015b82811115620001dd578251825591602001919060010190620001c0565b5b509050620001ed9190620001f1565b5090565b5b808211156200020c576000816000905550600101620001f2565b5090565b600081519050620002218162000376565b92915050565b600081519050620002388162000390565b92915050565b6000815190506200024f81620003aa565b92915050565b6000806000606084860312156200026b57600080fd5b60006200027b8682870162000227565b93505060206200028e8682870162000210565b9250506040620002a1868287016200023e565b9150509250925092565b6000620002b882620002e7565b9050919050565b6000620002cc82620002ab565b9050919050565b6000620002e082620002ab565b9050919050565b600073ffffffffffffffffffffffffffffffffffffffff82169050919050565b6000819050919050565b600060028204905060018216806200032a57607f821691505b6020821081141562000341576200034062000347565b5b50919050565b7f4e487b7100000000000000000000000000000000000000000000000000000000600052602260045260246000fd5b6200038181620002bf565b81146200038d57600080fd5b50565b6200039b81620002d3565b8114620003a757600080fd5b50565b620003b58162000307565b8114620003c157600080fd5b50565b61292680620003d46000396000f3fe608060405234801561001057600080fd5b50600436106101375760003560e01c80636f49712b116100b8578063a5820daa1161007c578063a5820daa14610306578063a5ce413b14610322578063be22f5461461032c578063c93c8f341461034a578063d6b7494f1461037a578063fd5e6dd11461039857610137565b80636f49712b146102625780637547c7a3146102925780638da5cb5b146102ae5780638f0794fe146102cc578063a179b812146102fc57610137565b806312b58349116100ff57806312b58349146101bc5780631d49d66c146101c657806345bc78ab146101e65780634bbf3a7a146102165780635bb7f6f51461023257610137565b806306fdde031461013c578063088b699e1461015a5780630a276680146101785780630d7a70d4146101945780630fb5a6b41461019e575b600080fd5b6101446103c8565b604051610151919061246a565b60405180910390f35b610162610456565b60405161016f919061244f565b60405180910390f35b610192600480360381019061018d919061210c565b61047c565b005b61019c61096c565b005b6101a6610b8e565b6040516101b3919061254c565b60405180910390f35b6101c4610b95565b005b6101ce610c88565b6040516101dd93929190612567565b60405180910390f35b61020060048036038101906101fb91906120e3565b610ca0565b60405161020d919061254c565b60405180910390f35b610230600480360381019061022b9190612171565b610cb8565b005b61024c600480360381019061024791906120e3565b610e6d565b604051610259919061254c565b60405180910390f35b61027c600480360381019061027791906120e3565b610e85565b6040516102899190612419565b60405180910390f35b6102ac60048036038101906102a79190612171565b610ea5565b005b6102b66112b9565b6040516102c3919061239e565b60405180910390f35b6102e660048036038101906102e191906120e3565b6112df565b6040516102f3919061254c565b60405180910390f35b6103046112f7565b005b610320600480360381019061031b9190612171565b61166f565b005b61032a6119eb565b005b610334611d1a565b6040516103419190612434565b60405180910390f35b610364600480360381019061035f91906120e3565b611d40565b6040516103719190612419565b60405180910390f35b610382611d60565b60405161038f919061254c565b60405180910390f35b6103b260048036038101906103ad9190612171565b611d65565b6040516103bf919061239e565b60405180910390f35b600080546103d590612792565b80601f016020809104026020016040519081016040528092919081815260200182805461040190612792565b801561044e5780601f106104235761010080835404028352916020019161044e565b820191906000526020600020905b81548152906001019060200180831161043157829003601f168201915b505050505081565b600160009054906101000a900473ffffffffffffffffffffffffffffffffffffffff1681565b600081116104bf576040517f08c379a00000000000000000000000000000000000000000000000000000000081526004016104b69061252c565b60405180910390fd5b8173ffffffffffffffffffffffffffffffffffffffff168273ffffffffffffffffffffffffffffffffffffffff161461052d576040517f08c379a0000000000000000000000000000000000000000000000000000000008152600401610524906124ac565b60405180910390fd5b6000600960003373ffffffffffffffffffffffffffffffffffffffff1673ffffffffffffffffffffffffffffffffffffffff168152602001908152602001600020549050808211156105b4576040517f08c379a00000000000000000000000000000000000000000000000000000000081526004016105ab9061248c565b60405180910390fd5b6105c2600660000154611da4565b600160009054906101000a900473ffffffffffffffffffffffffffffffffffffffff1673ffffffffffffffffffffffffffffffffffffffff166323b872dd3385856040518463ffffffff1660e01b8152600401610621939291906123b9565b602060405180830381600087803b15801561063b57600080fd5b505af115801561064f573d6000803e3d6000fd5b505050506040513d601f19601f820116820180604052508101906106739190612148565b5081600960003373ffffffffffffffffffffffffffffffffffffffff1673ffffffffffffffffffffffffffffffffffffffff16815260200190815260200160002060008282546106c3919061269b565b92505081905550600554826106d89190612610565b600960008573ffffffffffffffffffffffffffffffffffffffff1673ffffffffffffffffffffffffffffffffffffffff1681526020019081526020016000205461072291906125ba565b600960008573ffffffffffffffffffffffffffffffffffffffff1673ffffffffffffffffffffffffffffffffffffffff16815260200190815260200160002081905550600a60003373ffffffffffffffffffffffffffffffffffffffff1673ffffffffffffffffffffffffffffffffffffffff16815260200190815260200160002054600a60008573ffffffffffffffffffffffffffffffffffffffff1673ffffffffffffffffffffffffffffffffffffffff1681526020019081526020016000208190555043600660010181905550600b60008473ffffffffffffffffffffffffffffffffffffffff1673ffffffffffffffffffffffffffffffffffffffff16815260200190815260200160002060009054906101000a900460ff166108a7576004839080600181540180825580915050600190039060005260206000200160009091909190916101000a81548173ffffffffffffffffffffffffffffffffffffffff021916908373ffffffffffffffffffffffffffffffffffffffff1602179055505b6001600c60008573ffffffffffffffffffffffffffffffffffffffff1673ffffffffffffffffffffffffffffffffffffffff16815260200190815260200160002060006101000a81548160ff0219169083151502179055506001600b60008573ffffffffffffffffffffffffffffffffffffffff1673ffffffffffffffffffffffffffffffffffffffff16815260200190815260200160002060006101000a81548160ff02191690831515021790555061095f610b95565b61096761096c565b505050565b60006006600201541415610a525760005b600480549050811015610a4c576000600482815481106109c6577f4e487b7100000000000000000000000000000000000000000000000000000000600052603260045260246000fd5b9060005260206000200160009054906101000a900473ffffffffffffffffffffffffffffffffffffffff1690506000600d60008373ffffffffffffffffffffffffffffffffffffffff1673ffffffffffffffffffffffffffffffffffffffff16815260200190815260200160002081905550508080610a44906127c4565b91505061097d565b50610b8c565b60005b600480549050811015610b8a57600060048281548110610a9e577f4e487b7100000000000000000000000000000000000000000000000000000000600052603260045260246000fd5b9060005260206000200160009054906101000a900473ffffffffffffffffffffffffffffffffffffffff1690506000600960008373ffffffffffffffffffffffffffffffffffffffff1673ffffffffffffffffffffffffffffffffffffffff1681526020019081526020016000205490506000600660020154606483610b249190612641565b610b2e9190612610565b905080600d60008573ffffffffffffffffffffffffffffffffffffffff1673ffffffffffffffffffffffffffffffffffffffff168152602001908152602001600020819055505050508080610b82906127c4565b915050610a55565b505b565b6201518081565b600080600090505b600480549050811015610c7a57600060048281548110610be6577f4e487b7100000000000000000000000000000000000000000000000000000000600052603260045260246000fd5b9060005260206000200160009054906101000a900473ffffffffffffffffffffffffffffffffffffffff1690506000600960008373ffffffffffffffffffffffffffffffffffffffff1673ffffffffffffffffffffffffffffffffffffffff1681526020019081526020016000205490508381610c6391906125ba565b935050508080610c72906127c4565b915050610b9d565b508060066002018190555050565b60068060000154908060010154908060020154905083565b60096020528060005260406000206000915090505481565b60008111610cfb576040517f08c379a0000000000000000000000000000000000000000000000000000000008152600401610cf29061252c565b60405180910390fd5b600260009054906101000a900473ffffffffffffffffffffffffffffffffffffffff1673ffffffffffffffffffffffffffffffffffffffff166323b872dd3330846040518463ffffffff1660e01b8152600401610d5a939291906123b9565b602060405180830381600087803b158015610d7457600080fd5b505af1158015610d88573d6000803e3d6000fd5b505050506040513d601f19601f82011682018060405250810190610dac9190612148565b50600160009054906101000a900473ffffffffffffffffffffffffffffffffffffffff1673ffffffffffffffffffffffffffffffffffffffff1663a9059cbb3360055484610dfa9190612641565b6040518363ffffffff1660e01b8152600401610e179291906123f0565b602060405180830381600087803b158015610e3157600080fd5b505af1158015610e45573d6000803e3d6000fd5b505050506040513d601f19601f82011682018060405250810190610e699190612148565b5050565b600d6020528060005260406000206000915090505481565b600c6020528060005260406000206000915054906101000a900460ff1681565b60008111610ee8576040517f08c379a0000000000000000000000000000000000000000000000000000000008152600401610edf9061252c565b60405180910390fd5b610ef6600660000154611da4565b600260009054906101000a900473ffffffffffffffffffffffffffffffffffffffff1673ffffffffffffffffffffffffffffffffffffffff166323b872dd3330846040518463ffffffff1660e01b8152600401610f55939291906123b9565b602060405180830381600087803b158015610f6f57600080fd5b505af1158015610f83573d6000803e3d6000fd5b505050506040513d601f19601f82011682018060405250810190610fa79190612148565b5080600960003373ffffffffffffffffffffffffffffffffffffffff1673ffffffffffffffffffffffffffffffffffffffff16815260200190815260200160002054610ff391906125ba565b600960003373ffffffffffffffffffffffffffffffffffffffff1673ffffffffffffffffffffffffffffffffffffffff1681526020019081526020016000208190555042600a60003373ffffffffffffffffffffffffffffffffffffffff1673ffffffffffffffffffffffffffffffffffffffff1681526020019081526020016000208190555043600660010181905550600b60003373ffffffffffffffffffffffffffffffffffffffff1673ffffffffffffffffffffffffffffffffffffffff16815260200190815260200160002060009054906101000a900460ff16611139576004339080600181540180825580915050600190039060005260206000200160009091909190916101000a81548173ffffffffffffffffffffffffffffffffffffffff021916908373ffffffffffffffffffffffffffffffffffffffff1602179055505b6001600c60003373ffffffffffffffffffffffffffffffffffffffff1673ffffffffffffffffffffffffffffffffffffffff16815260200190815260200160002060006101000a81548160ff0219169083151502179055506001600b60003373ffffffffffffffffffffffffffffffffffffffff1673ffffffffffffffffffffffffffffffffffffffff16815260200190815260200160002060006101000a81548160ff021916908315150217905550600160009054906101000a900473ffffffffffffffffffffffffffffffffffffffff1673ffffffffffffffffffffffffffffffffffffffff1663a9059cbb33600554846112369190612641565b6040518363ffffffff1660e01b81526004016112539291906123f0565b602060405180830381600087803b15801561126d57600080fd5b505af1158015611281573d6000803e3d6000fd5b505050506040513d601f19601f820116820180604052508101906112a59190612148565b506112ae610b95565b6112b661096c565b50565b600360009054906101000a900473ffffffffffffffffffffffffffffffffffffffff1681565b600a6020528060005260406000206000915090505481565b6000600960003373ffffffffffffffffffffffffffffffffffffffff1673ffffffffffffffffffffffffffffffffffffffff1681526020019081526020016000205490506000811161137e576040517f08c379a0000000000000000000000000000000000000000000000000000000008152600401611375906124cc565b60405180910390fd5b6000606460148361138f9190612641565b6113999190612610565b9050600081836113a9919061269b565b9050600260009054906101000a900473ffffffffffffffffffffffffffffffffffffffff1673ffffffffffffffffffffffffffffffffffffffff1663a9059cbb33836040518363ffffffff1660e01b81526004016114089291906123f0565b602060405180830381600087803b15801561142257600080fd5b505af1158015611436573d6000803e3d6000fd5b505050506040513d601f19601f8201168201806040525081019061145a9190612148565b50600260009054906101000a900473ffffffffffffffffffffffffffffffffffffffff1673ffffffffffffffffffffffffffffffffffffffff1663a9059cbb30846040518363ffffffff1660e01b81526004016114b89291906123f0565b602060405180830381600087803b1580156114d257600080fd5b505af11580156114e6573d6000803e3d6000fd5b505050506040513d601f19601f8201168201806040525081019061150a9190612148565b50600160009054906101000a900473ffffffffffffffffffffffffffffffffffffffff1673ffffffffffffffffffffffffffffffffffffffff166323b872dd3330866040518463ffffffff1660e01b815260040161156a939291906123b9565b602060405180830381600087803b15801561158457600080fd5b505af1158015611598573d6000803e3d6000fd5b505050506040513d601f19601f820116820180604052508101906115bc9190612148565b506000600960003373ffffffffffffffffffffffffffffffffffffffff1673ffffffffffffffffffffffffffffffffffffffff168152602001908152602001600020819055506000600c60003373ffffffffffffffffffffffffffffffffffffffff1673ffffffffffffffffffffffffffffffffffffffff16815260200190815260200160002060006101000a81548160ff021916908315150217905550611662610b95565b61166a61096c565b505050565b600081116116b2576040517f08c379a00000000000000000000000000000000000000000000000000000000081526004016116a99061252c565b60405180910390fd5b600360009054906101000a900473ffffffffffffffffffffffffffffffffffffffff1673ffffffffffffffffffffffffffffffffffffffff163373ffffffffffffffffffffffffffffffffffffffff1614611742576040517f08c379a00000000000000000000000000000000000000000000000000000000081526004016117399061250c565b60405180910390fd5b61174a610b95565b60005b6004805490508110156119dd57600060048281548110611796577f4e487b7100000000000000000000000000000000000000000000000000000000600052603260045260246000fd5b9060005260206000200160009054906101000a900473ffffffffffffffffffffffffffffffffffffffff1690506000600960008373ffffffffffffffffffffffffffffffffffffffff1673ffffffffffffffffffffffffffffffffffffffff168152602001908152602001600020549050600060066002015460648361181c9190612641565b6118269190612610565b90506000606482876118389190612641565b6118429190612610565b9050600043905060006006600101548261185c919061269b565b90506000818461186c9190612641565b905060008111156119c35780600960008973ffffffffffffffffffffffffffffffffffffffff1673ffffffffffffffffffffffffffffffffffffffff168152602001908152602001600020546118c291906125ba565b600960008973ffffffffffffffffffffffffffffffffffffffff1673ffffffffffffffffffffffffffffffffffffffff16815260200190815260200160002081905550600160009054906101000a900473ffffffffffffffffffffffffffffffffffffffff1673ffffffffffffffffffffffffffffffffffffffff1663a9059cbb886005548c6119529190612641565b6040518363ffffffff1660e01b815260040161196f9291906123f0565b602060405180830381600087803b15801561198957600080fd5b505af115801561199d573d6000803e3d6000fd5b505050506040513d601f19601f820116820180604052508101906119c19190612148565b505b5050505050505080806119d5906127c4565b91505061174d565b504360066001018190555050565b6000600960003373ffffffffffffffffffffffffffffffffffffffff1673ffffffffffffffffffffffffffffffffffffffff16815260200190815260200160002054905060008111611a72576040517f08c379a0000000000000000000000000000000000000000000000000000000008152600401611a69906124cc565b60405180910390fd5b600062015180600a60003373ffffffffffffffffffffffffffffffffffffffff1673ffffffffffffffffffffffffffffffffffffffff16815260200190815260200160002054611ac291906125ba565b905080421015611b07576040517f08c379a0000000000000000000000000000000000000000000000000000000008152600401611afe906124ec565b60405180910390fd5b600260009054906101000a900473ffffffffffffffffffffffffffffffffffffffff1673ffffffffffffffffffffffffffffffffffffffff1663a9059cbb33846040518363ffffffff1660e01b8152600401611b649291906123f0565b602060405180830381600087803b158015611b7e57600080fd5b505af1158015611b92573d6000803e3d6000fd5b505050506040513d601f19601f82011682018060405250810190611bb69190612148565b50600160009054906101000a900473ffffffffffffffffffffffffffffffffffffffff1673ffffffffffffffffffffffffffffffffffffffff166323b872dd3330856040518463ffffffff1660e01b8152600401611c16939291906123b9565b602060405180830381600087803b158015611c3057600080fd5b505af1158015611c44573d6000803e3d6000fd5b505050506040513d601f19601f82011682018060405250810190611c689190612148565b506000600960003373ffffffffffffffffffffffffffffffffffffffff1673ffffffffffffffffffffffffffffffffffffffff168152602001908152602001600020819055506000600c60003373ffffffffffffffffffffffffffffffffffffffff1673ffffffffffffffffffffffffffffffffffffffff16815260200190815260200160002060006101000a81548160ff021916908315150217905550611d0e610b95565b611d1661096c565b5050565b600260009054906101000a900473ffffffffffffffffffffffffffffffffffffffff1681565b600b6020528060005260406000206000915054906101000a900460ff1681565b601481565b60048181548110611d7557600080fd5b906000526020600020016000915054906101000a900473ffffffffffffffffffffffffffffffffffffffff1681565b60008111611de7576040517f08c379a0000000000000000000000000000000000000000000000000000000008152600401611dde9061252c565b60405180910390fd5b611def610b95565b60006006600201541415611e02576120a1565b60005b60048054905081101561209557600060048281548110611e4e577f4e487b7100000000000000000000000000000000000000000000000000000000600052603260045260246000fd5b9060005260206000200160009054906101000a900473ffffffffffffffffffffffffffffffffffffffff1690506000600960008373ffffffffffffffffffffffffffffffffffffffff1673ffffffffffffffffffffffffffffffffffffffff1681526020019081526020016000205490506000600660020154606483611ed49190612641565b611ede9190612610565b9050600060648287611ef09190612641565b611efa9190612610565b90506000439050600060066001015482611f14919061269b565b905060008184611f249190612641565b9050600081111561207b5780600960008973ffffffffffffffffffffffffffffffffffffffff1673ffffffffffffffffffffffffffffffffffffffff16815260200190815260200160002054611f7a91906125ba565b600960008973ffffffffffffffffffffffffffffffffffffffff1673ffffffffffffffffffffffffffffffffffffffff16815260200190815260200160002081905550600160009054906101000a900473ffffffffffffffffffffffffffffffffffffffff1673ffffffffffffffffffffffffffffffffffffffff1663a9059cbb886005548461200a9190612641565b6040518363ffffffff1660e01b81526004016120279291906123f0565b602060405180830381600087803b15801561204157600080fd5b505af1158015612055573d6000803e3d6000fd5b505050506040513d601f19601f820116820180604052508101906120799190612148565b505b50505050505050808061208d906127c4565b915050611e05565b50436006600101819055505b50565b6000813590506120b3816128ab565b92915050565b6000815190506120c8816128c2565b92915050565b6000813590506120dd816128d9565b92915050565b6000602082840312156120f557600080fd5b6000612103848285016120a4565b91505092915050565b6000806040838503121561211f57600080fd5b600061212d858286016120a4565b925050602061213e858286016120ce565b9150509250929050565b60006020828403121561215a57600080fd5b6000612168848285016120b9565b91505092915050565b60006020828403121561218357600080fd5b6000612191848285016120ce565b91505092915050565b6121a3816126cf565b82525050565b6121b2816126e1565b82525050565b6121c181612717565b82525050565b6121d08161273b565b82525050565b60006121e18261259e565b6121eb81856125a9565b93506121fb81856020860161275f565b6122048161289a565b840191505092915050565b600061221c601b836125a9565b91507f616d6f756e74206d6f7265207468616e204c502062616c616e636500000000006000830152602082019050919050565b600061225c600f836125a9565b91507f496e76616c6964206164647265737300000000000000000000000000000000006000830152602082019050919050565b600061229c601b836125a9565b91507f7374616b696e672062616c616e63652063616e6e6f74206265203000000000006000830152602082019050919050565b60006122dc601c836125a9565b91507f746f6f206561726c7920746f20776974686472617720546f6b656e73000000006000830152602082019050919050565b600061231c6014836125a9565b91507f63616c6c6572206d757374206265206f776e65720000000000000000000000006000830152602082019050919050565b600061235c6012836125a9565b91507f616d6f756e742063616e6e6f74206265203000000000000000000000000000006000830152602082019050919050565b6123988161270d565b82525050565b60006020820190506123b3600083018461219a565b92915050565b60006060820190506123ce600083018661219a565b6123db602083018561219a565b6123e8604083018461238f565b949350505050565b6000604082019050612405600083018561219a565b612412602083018461238f565b9392505050565b600060208201905061242e60008301846121a9565b92915050565b600060208201905061244960008301846121b8565b92915050565b600060208201905061246460008301846121c7565b92915050565b6000602082019050818103600083015261248481846121d6565b905092915050565b600060208201905081810360008301526124a58161220f565b9050919050565b600060208201905081810360008301526124c58161224f565b9050919050565b600060208201905081810360008301526124e58161228f565b9050919050565b60006020820190508181036000830152612505816122cf565b9050919050565b600060208201905081810360008301526125258161230f565b9050919050565b600060208201905081810360008301526125458161234f565b9050919050565b6000602082019050612561600083018461238f565b92915050565b600060608201905061257c600083018661238f565b612589602083018561238f565b612596604083018461238f565b949350505050565b600081519050919050565b600082825260208201905092915050565b60006125c58261270d565b91506125d08361270d565b9250827fffffffffffffffffffffffffffffffffffffffffffffffffffffffffffffffff038211156126055761260461280d565b5b828201905092915050565b600061261b8261270d565b91506126268361270d565b9250826126365761263561283c565b5b828204905092915050565b600061264c8261270d565b91506126578361270d565b9250817fffffffffffffffffffffffffffffffffffffffffffffffffffffffffffffffff04831182151516156126905761268f61280d565b5b828202905092915050565b60006126a68261270d565b91506126b18361270d565b9250828210156126c4576126c361280d565b5b828203905092915050565b60006126da826126ed565b9050919050565b60008115159050919050565b600073ffffffffffffffffffffffffffffffffffffffff82169050919050565b6000819050919050565b600061272282612729565b9050919050565b6000612734826126ed565b9050919050565b60006127468261274d565b9050919050565b6000612758826126ed565b9050919050565b60005b8381101561277d578082015181840152602081019050612762565b8381111561278c576000848401525b50505050565b600060028204905060018216806127aa57607f821691505b602082108114156127be576127bd61286b565b5b50919050565b60006127cf8261270d565b91507fffffffffffffffffffffffffffffffffffffffffffffffffffffffffffffffff8214156128025761280161280d565b5b600182019050919050565b7f4e487b7100000000000000000000000000000000000000000000000000000000600052601160045260246000fd5b7f4e487b7100000000000000000000000000000000000000000000000000000000600052601260045260246000fd5b7f4e487b7100000000000000000000000000000000000000000000000000000000600052602260045260246000fd5b6000601f19601f8301169050919050565b6128b4816126cf565b81146128bf57600080fd5b50565b6128cb816126e1565b81146128d657600080fd5b50565b6128e28161270d565b81146128ed57600080fd5b5056fea26469706673582212200da7d4d43ae8e0d64b2ce04c4ca07ca91ceb17fb057d9d4a4f031aa73ec6efa664736f6c63430008000033",
  "immutableReferences": {},
  "source": "pragma solidity ^0.8.0;\nimport \"./XToken.sol\";\nimport \"./DaiToken.sol\";\n\ncontract TokenFarm {\n    string public name = \"X Token Farm\";\n    XToken public xToken;\n    DaiToken public daiToken;\n    address public owner;\n    address[] public stakers;\n    uint256 internal tokenBurnRate = 2;\n    uint256 public constant duration = 1 days;\n    uint256 public constant penaltyRate = 20;\n    FarmInfo public farmInfo;   \n    \n    mapping(address => uint256) public stakingBalance;\n    mapping(address => uint256) public stakingTimestamp;\n    mapping(address => bool) public hasStaked;\n    mapping(address => bool) public isStaking;\n    mapping(address => uint256) public poolShareRatio;\n    \n    struct FarmInfo {\n        uint256 blockReward;\n        uint256 lastRewardBlock;  // Last block number that reward distribution occurs.\n        uint256 farmableSupply; // set in init, total amount of tokens farmable\n    }\n\n    constructor(XToken _xToken, DaiToken _daiToken, uint256 _blockReward) public {\n        xToken = _xToken;\n        daiToken = _daiToken;\n        farmInfo.blockReward = _blockReward;\n        owner = msg.sender;\n    }\n\n    // Stakes Tokens\n    function stakeTokens(uint256 _amount) public {\n        require(_amount > 0, \"amount cannot be 0\");\n        updateRewardTokens(farmInfo.blockReward);\n        daiToken.transferFrom(msg.sender, address(this), _amount); // Stake dai token\n        stakingBalance[msg.sender] = stakingBalance[msg.sender] + _amount; //Update staking balance\n        stakingTimestamp[msg.sender] = block.timestamp;\n        farmInfo.lastRewardBlock = block.number;\n\n        if (!hasStaked[msg.sender]) {\n            stakers.push(msg.sender);\n        }\n\n        //Update staking status\n        isStaking[msg.sender] = true;\n        hasStaked[msg.sender] = true;\n\n        xToken.transfer(msg.sender, _amount * tokenBurnRate);\n        getTotalBalance();\n        getPoolShareRatio();\n    }\n\n    // Unstacking Tokens\n    function unstakeTokens() public {\n        uint256 balance = stakingBalance[msg.sender];\n        require(balance > 0, \"staking balance cannot be 0\");\n        uint256 end = stakingTimestamp[msg.sender] + duration;\n        require(block.timestamp >= end, \"too early to withdraw Tokens\");\n        daiToken.transfer(msg.sender, balance); // Stake dai token\n        xToken.transferFrom(msg.sender, address(this), balance); //return x token\n\n        stakingBalance[msg.sender] = 0;\n        isStaking[msg.sender] = false;\n        getTotalBalance();\n        getPoolShareRatio();\n    }\n\n    // Issuing Tokens\n    function issueTokens(uint256 _amount) public {\n        require(_amount > 0, \"amount cannot be 0\");\n\n        // Only owner can call this function\n        require(msg.sender == owner, \"caller must be owner\");\n        getTotalBalance();\n\n        // uint256 totalBalance = daiToken.balanceOf(address(this));\n\n        //Issue tokens to all stakers\n        for (uint256 i = 0; i < stakers.length; i++) {\n            address recipient = stakers[i];\n            uint256 balance = stakingBalance[recipient];\n            uint256 ratio = (balance * 100) / farmInfo.farmableSupply;\n            uint256 amount = (_amount * ratio) / 100;\n\n            uint256 blknumbernow = block.number;\n            uint256 diffofblk = blknumbernow - farmInfo.lastRewardBlock;\n            uint256 totalamount = amount * diffofblk;\n\n            if (totalamount > 0) {\n                stakingBalance[recipient] = stakingBalance[recipient] + totalamount; //Update staking balance\n                xToken.transfer(recipient, _amount * tokenBurnRate);\n            }\n        }\n        farmInfo.lastRewardBlock = block.number;\n    }\n\n    // Issuing Tokens for internal\n    function updateRewardTokens(uint256 _amount) internal {\n        require(_amount > 0, \"amount cannot be 0\");\n        getTotalBalance();\n\n\n        if( farmInfo.farmableSupply == 0){\n            return;\n        }\n        //update reward tokens to all stakers\n        for (uint256 i = 0; i < stakers.length; i++) {\n            address recipient = stakers[i];\n            uint256 balance = stakingBalance[recipient];\n            uint256 ratio = (balance * 100) / farmInfo.farmableSupply;\n            uint256 amount = _amount * ratio / 100;\n            \n            uint256 blknumbernow = block.number;\n            uint256 diffofblk = blknumbernow - farmInfo.lastRewardBlock;\n            uint256 totalamount = amount * diffofblk;\n\n            if (totalamount > 0) {\n                stakingBalance[recipient] = stakingBalance[recipient] + totalamount; //Update staking balance\n                xToken.transfer(recipient, totalamount * tokenBurnRate);\n            }\n        }\n        farmInfo.lastRewardBlock = block.number;\n    }\n    \n    // Emergency Unstacking Tokens to withdraw LP tokens with penalty\n    function emergencyUnstakeTokens() public {\n        uint256 balance = stakingBalance[msg.sender];\n        require(balance > 0, \"staking balance cannot be 0\");\n        uint256 penalty = balance * penaltyRate/100;\n        uint256 remainingBalance = balance - penalty;\n        daiToken.transfer(msg.sender, remainingBalance); // Unstake dai token\n        daiToken.transfer(address(this), penalty); // Unstake penalty dai token\n        xToken.transferFrom(msg.sender, address(this), balance); //return x token\n\n        stakingBalance[msg.sender] = 0;\n        isStaking[msg.sender] = false;\n        getTotalBalance();\n        getPoolShareRatio();\n    }\n    \n    function getTotalBalance() public {\n        uint256 totalBalance;\n        for (uint256 i = 0; i < stakers.length; i++) {\n            address recipient = stakers[i];\n            uint256 balance = stakingBalance[recipient];\n            totalBalance = balance + totalBalance;\n        }\n        farmInfo.farmableSupply = totalBalance;\n    }\n    \n    function getPoolShareRatio() public {\n        if( farmInfo.farmableSupply == 0){\n            for (uint256 i = 0; i < stakers.length; i++) {\n                address recipient = stakers[i];\n                poolShareRatio[recipient] = 0;\n            }\n        }\n        else {\n            for (uint256 i = 0; i < stakers.length; i++) {\n                address recipient = stakers[i];\n                uint256 balance = stakingBalance[recipient];\n                uint256 ratio = (balance * 100) / farmInfo.farmableSupply;\n                poolShareRatio[recipient] = ratio;\n            }\n        }\n    }\n\n    function transferOwnership(address _to ,uint256 _amount) public {\n        require(_amount > 0, \"amount cannot be 0\");\n        require(_to == address(_to),\"Invalid address\");\n        uint256 balance = stakingBalance[msg.sender];\n        require(_amount <= balance, \"amount more than LP balance\");\n        updateRewardTokens(farmInfo.blockReward);\n        xToken.transferFrom(msg.sender, _to, _amount); //return x token\n        stakingBalance[msg.sender] -= _amount;\n        \n        \n        stakingBalance[_to] = stakingBalance[_to] + (_amount/tokenBurnRate); //Update staking balance\n        stakingTimestamp[_to] = stakingTimestamp[msg.sender];\n        farmInfo.lastRewardBlock = block.number;\n\n        if (!hasStaked[_to]) {\n            stakers.push(_to);\n        }\n\n        //Update staking status\n        isStaking[_to] = true;\n        hasStaked[_to] = true;\n        \n        getTotalBalance();\n        getPoolShareRatio();\n    }\n    \n    function swapToken(uint256 _amount) public{\n        require(_amount > 0, \"amount cannot be 0\");    \n        daiToken.transferFrom(msg.sender, address(this), _amount); // Stake dai token\n        xToken.transfer(msg.sender, _amount * tokenBurnRate);    \n    }\n}",
  "sourcePath": "/home/ubuntu/Desktop/Blockchain Talent Program/YieldFarming/Yield_Farming_compound/src/contracts/TokenFarm_compund.sol",
  "compiler": {
    "name": "solc",
    "version": "0.8.0+commit.c7dfd78e.Emscripten.clang"
  },
  "schemaVersion": "3.4.1",
  "updatedAt": "2021-07-05T03:11:55.299Z",
  "networkType": "ethereum",
  "devdoc": {
    "kind": "dev",
    "methods": {},
    "version": 1
  },
  "userdoc": {
    "kind": "user",
    "methods": {},
    "version": 1
  }
}