{
  "contractName": "TokenFarm",
  "abi": [
    {
      "inputs": [
        {
          "internalType": "contract XToken",
          "name": "_xToken",
          "type": "address"
        },
        {
          "internalType": "contract LPXToken",
          "name": "_lpXToken",
          "type": "address"
        },
        {
          "internalType": "contract PurseToken",
          "name": "_purseToken",
          "type": "address"
        },
        {
          "internalType": "uint256",
          "name": "_blockReward",
          "type": "uint256"
        }
      ],
      "stateMutability": "nonpayable",
      "type": "constructor"
    },
    {
      "inputs": [],
      "name": "decimalFlow",
      "outputs": [
        {
          "internalType": "uint256",
          "name": "",
          "type": "uint256"
        }
      ],
      "stateMutability": "view",
      "type": "function",
      "constant": true
    },
    {
      "inputs": [],
      "name": "duration",
      "outputs": [
        {
          "internalType": "uint256",
          "name": "",
          "type": "uint256"
        }
      ],
      "stateMutability": "view",
      "type": "function",
      "constant": true
    },
    {
      "inputs": [],
      "name": "farmInfo",
      "outputs": [
        {
          "internalType": "uint256",
          "name": "blockReward",
          "type": "uint256"
        },
        {
          "internalType": "uint256",
          "name": "lastRewardBlock",
          "type": "uint256"
        },
        {
          "internalType": "uint256",
          "name": "farmableSupply",
          "type": "uint256"
        }
      ],
      "stateMutability": "view",
      "type": "function",
      "constant": true
    },
    {
      "inputs": [],
      "name": "lpXToken",
      "outputs": [
        {
          "internalType": "contract LPXToken",
          "name": "",
          "type": "address"
        }
      ],
      "stateMutability": "view",
      "type": "function",
      "constant": true
    },
    {
      "inputs": [],
      "name": "name",
      "outputs": [
        {
          "internalType": "string",
          "name": "",
          "type": "string"
        }
      ],
      "stateMutability": "view",
      "type": "function",
      "constant": true
    },
    {
      "inputs": [],
      "name": "owner",
      "outputs": [
        {
          "internalType": "address",
          "name": "",
          "type": "address"
        }
      ],
      "stateMutability": "view",
      "type": "function",
      "constant": true
    },
    {
      "inputs": [],
      "name": "penaltyRate",
      "outputs": [
        {
          "internalType": "uint256",
          "name": "",
          "type": "uint256"
        }
      ],
      "stateMutability": "view",
      "type": "function",
      "constant": true
    },
    {
      "inputs": [],
      "name": "purseToken",
      "outputs": [
        {
          "internalType": "contract PurseToken",
          "name": "",
          "type": "address"
        }
      ],
      "stateMutability": "view",
      "type": "function",
      "constant": true
    },
    {
      "inputs": [
        {
          "internalType": "address",
          "name": "",
          "type": "address"
        }
      ],
      "name": "stakerInfo",
      "outputs": [
        {
          "internalType": "uint256",
          "name": "stakingBalance",
          "type": "uint256"
        },
        {
          "internalType": "uint256",
          "name": "rewardBalance",
          "type": "uint256"
        },
        {
          "internalType": "uint256",
          "name": "stakingTimestamp",
          "type": "uint256"
        },
        {
          "internalType": "uint256",
          "name": "stakingBlock",
          "type": "uint256"
        },
        {
          "internalType": "bool",
          "name": "hasStaked",
          "type": "bool"
        },
        {
          "internalType": "bool",
          "name": "isStaking",
          "type": "bool"
        },
        {
          "internalType": "uint256",
          "name": "poolShareRatio",
          "type": "uint256"
        }
      ],
      "stateMutability": "view",
      "type": "function",
      "constant": true
    },
    {
      "inputs": [
        {
          "internalType": "uint256",
          "name": "",
          "type": "uint256"
        }
      ],
      "name": "stakers",
      "outputs": [
        {
          "internalType": "address",
          "name": "",
          "type": "address"
        }
      ],
      "stateMutability": "view",
      "type": "function",
      "constant": true
    },
    {
      "inputs": [],
      "name": "xToken",
      "outputs": [
        {
          "internalType": "contract XToken",
          "name": "",
          "type": "address"
        }
      ],
      "stateMutability": "view",
      "type": "function",
      "constant": true
    },
    {
      "inputs": [
        {
          "internalType": "uint256",
          "name": "_amount",
          "type": "uint256"
        }
      ],
      "name": "stakeTokens",
      "outputs": [],
      "stateMutability": "nonpayable",
      "type": "function"
    },
    {
      "inputs": [],
      "name": "unstakeTokens",
      "outputs": [],
      "stateMutability": "nonpayable",
      "type": "function"
    },
    {
      "inputs": [
        {
          "internalType": "uint256",
          "name": "_amount",
          "type": "uint256"
        }
      ],
      "name": "issueTokens",
      "outputs": [],
      "stateMutability": "nonpayable",
      "type": "function"
    },
    {
      "inputs": [],
      "name": "updateRewardTokens",
      "outputs": [],
      "stateMutability": "nonpayable",
      "type": "function"
    },
    {
      "inputs": [],
      "name": "emergencyUnstakeTokens",
      "outputs": [],
      "stateMutability": "nonpayable",
      "type": "function"
    },
    {
      "inputs": [],
      "name": "getTotalBalance",
      "outputs": [],
      "stateMutability": "nonpayable",
      "type": "function"
    },
    {
      "inputs": [],
      "name": "getPoolShareRatio",
      "outputs": [],
      "stateMutability": "nonpayable",
      "type": "function"
    },
    {
      "inputs": [
        {
          "internalType": "address",
          "name": "_to",
          "type": "address"
        },
        {
          "internalType": "uint256",
          "name": "_amount",
          "type": "uint256"
        }
      ],
      "name": "transferOwnership",
      "outputs": [],
      "stateMutability": "nonpayable",
      "type": "function"
    },
    {
      "inputs": [
        {
          "internalType": "uint256",
          "name": "_amount",
          "type": "uint256"
        }
      ],
      "name": "redeemToken",
      "outputs": [],
      "stateMutability": "nonpayable",
      "type": "function"
    }
  ],
  "bytecode": "0x60806040526040518060400160405280600c81526020017f5820546f6b656e204661726d00000000000000000000000000000000000000008152506000908051906020019062000051929190620001a9565b506002600655620f42406007553480156200006b57600080fd5b5060405162002b8938038062002b898339818101604052810190620000919190620002b5565b83600160006101000a81548173ffffffffffffffffffffffffffffffffffffffff021916908373ffffffffffffffffffffffffffffffffffffffff16021790555082600260006101000a81548173ffffffffffffffffffffffffffffffffffffffff021916908373ffffffffffffffffffffffffffffffffffffffff16021790555081600360006101000a81548173ffffffffffffffffffffffffffffffffffffffff021916908373ffffffffffffffffffffffffffffffffffffffff1602179055508060086000018190555033600460006101000a81548173ffffffffffffffffffffffffffffffffffffffff021916908373ffffffffffffffffffffffffffffffffffffffff1602179055505050505062000468565b828054620001b7906200039b565b90600052602060002090601f016020900481019282620001db576000855562000227565b82601f10620001f657805160ff191683800117855562000227565b8280016001018555821562000227579182015b828111156200022657825182559160200191906001019062000209565b5b5090506200023691906200023a565b5090565b5b80821115620002555760008160009055506001016200023b565b5090565b6000815190506200026a8162000400565b92915050565b60008151905062000281816200041a565b92915050565b600081519050620002988162000434565b92915050565b600081519050620002af816200044e565b92915050565b60008060008060808587031215620002cc57600080fd5b6000620002dc8782880162000287565b9450506020620002ef8782880162000259565b9350506040620003028782880162000270565b925050606062000315878288016200029e565b91505092959194509250565b60006200032e8262000371565b9050919050565b6000620003428262000321565b9050919050565b6000620003568262000321565b9050919050565b60006200036a8262000321565b9050919050565b600073ffffffffffffffffffffffffffffffffffffffff82169050919050565b6000819050919050565b60006002820490506001821680620003b457607f821691505b60208210811415620003cb57620003ca620003d1565b5b50919050565b7f4e487b7100000000000000000000000000000000000000000000000000000000600052602260045260246000fd5b6200040b8162000335565b81146200041757600080fd5b50565b620004258162000349565b81146200043157600080fd5b50565b6200043f816200035d565b81146200044b57600080fd5b50565b620004598162000391565b81146200046557600080fd5b50565b61271180620004786000396000f3fe608060405234801561001057600080fd5b506004361061012c5760003560e01c80634e8fd73a116100ad578063a179b81211610071578063a179b812146102cb578063a5820daa146102d5578063a5ce413b146102f1578063d6b7494f146102fb578063fd5e6dd1146103195761012c565b80634e8fd73a1461024b57806351bf16ef1461025557806371cd777d146102735780637547c7a3146102915780638da5cb5b146102ad5761012c565b80630fb5a6b4116100f45780630fb5a6b4146101af57806312b58349146101cd5780631d49d66c146101d7578063435e05dd146101f75780634e745f1f146102155761012c565b8063013054c21461013157806306fdde031461014d578063088b699e1461016b5780630a276680146101895780630d7a70d4146101a5575b600080fd5b61014b60048036038101906101469190611e5a565b610349565b005b6101556104df565b60405161016291906121a2565b60405180910390f35b61017361056d565b6040516101809190612187565b60405180910390f35b6101a3600480360381019061019e9190611df5565b610593565b005b6101ad610a46565b005b6101b7610c7e565b6040516101c491906122a4565b60405180910390f35b6101d5610c85565b005b6101df610d7b565b6040516101ee939291906122bf565b60405180910390f35b6101ff610d93565b60405161020c9190612151565b60405180910390f35b61022f600480360381019061022a9190611dcc565b610db9565b60405161024297969594939291906122f6565b60405180910390f35b610253610e15565b005b61025d610fd3565b60405161026a919061216c565b60405180910390f35b61027b610ff9565b60405161028891906122a4565b60405180910390f35b6102ab60048036038101906102a69190611e5a565b610fff565b005b6102b56113c5565b6040516102c291906120d6565b60405180910390f35b6102d36113eb565b005b6102ef60048036038101906102ea9190611e5a565b611774565b005b6102f9611a06565b005b610303611d49565b60405161031091906122a4565b60405180910390f35b610333600480360381019061032e9190611e5a565b611d4e565b60405161034091906120d6565b60405180910390f35b610351610e15565b60008111610394576040517f08c379a000000000000000000000000000000000000000000000000000000000815260040161038b90612284565b60405180910390fd5b6000600b60003373ffffffffffffffffffffffffffffffffffffffff1673ffffffffffffffffffffffffffffffffffffffff1681526020019081526020016000206001015490508082111561041e576040517f08c379a0000000000000000000000000000000000000000000000000000000008152600401610415906121e4565b60405180910390fd5b600360009054906101000a900473ffffffffffffffffffffffffffffffffffffffff1673ffffffffffffffffffffffffffffffffffffffff1663a9059cbb336006548561046b9190612408565b6040518363ffffffff1660e01b8152600401610488929190612128565b602060405180830381600087803b1580156104a257600080fd5b505af11580156104b6573d6000803e3d6000fd5b505050506040513d601f19601f820116820180604052508101906104da9190611e31565b505050565b600080546104ec9061257d565b80601f01602080910402602001604051908101604052809291908181526020018280546105189061257d565b80156105655780601f1061053a57610100808354040283529160200191610565565b820191906000526020600020905b81548152906001019060200180831161054857829003601f168201915b505050505081565b600160009054906101000a900473ffffffffffffffffffffffffffffffffffffffff1681565b600081116105d6576040517f08c379a00000000000000000000000000000000000000000000000000000000081526004016105cd90612284565b60405180910390fd5b8173ffffffffffffffffffffffffffffffffffffffff168273ffffffffffffffffffffffffffffffffffffffff1614610644576040517f08c379a000000000000000000000000000000000000000000000000000000000815260040161063b90612204565b60405180910390fd5b6000600b60003373ffffffffffffffffffffffffffffffffffffffff1673ffffffffffffffffffffffffffffffffffffffff168152602001908152602001600020600001549050808211156106ce576040517f08c379a00000000000000000000000000000000000000000000000000000000081526004016106c5906121c4565b60405180910390fd5b6106d6610e15565b600260009054906101000a900473ffffffffffffffffffffffffffffffffffffffff1673ffffffffffffffffffffffffffffffffffffffff166323b872dd3385856040518463ffffffff1660e01b8152600401610735939291906120f1565b602060405180830381600087803b15801561074f57600080fd5b505af1158015610763573d6000803e3d6000fd5b505050506040513d601f19601f820116820180604052508101906107879190611e31565b5081600b60003373ffffffffffffffffffffffffffffffffffffffff1673ffffffffffffffffffffffffffffffffffffffff16815260200190815260200160002060000160008282546107da9190612462565b9250508190555081600b60008573ffffffffffffffffffffffffffffffffffffffff1673ffffffffffffffffffffffffffffffffffffffff16815260200190815260200160002060000160008282546108339190612381565b92505081905550600b60003373ffffffffffffffffffffffffffffffffffffffff1673ffffffffffffffffffffffffffffffffffffffff16815260200190815260200160002060020154600b60008573ffffffffffffffffffffffffffffffffffffffff1673ffffffffffffffffffffffffffffffffffffffff16815260200190815260200160002060020181905550600b60008473ffffffffffffffffffffffffffffffffffffffff1673ffffffffffffffffffffffffffffffffffffffff16815260200190815260200160002060040160009054906101000a900460ff1661097b576005839080600181540180825580915050600190039060005260206000200160009091909190916101000a81548173ffffffffffffffffffffffffffffffffffffffff021916908373ffffffffffffffffffffffffffffffffffffffff1602179055505b6001600b60008573ffffffffffffffffffffffffffffffffffffffff1673ffffffffffffffffffffffffffffffffffffffff16815260200190815260200160002060040160016101000a81548160ff0219169083151502179055506001600b60008573ffffffffffffffffffffffffffffffffffffffff1673ffffffffffffffffffffffffffffffffffffffff16815260200190815260200160002060040160006101000a81548160ff021916908315150217905550610a39610c85565b610a41610a46565b505050565b60006008600201541415610b2f5760005b600580549050811015610b2957600060058281548110610aa0577f4e487b7100000000000000000000000000000000000000000000000000000000600052603260045260246000fd5b9060005260206000200160009054906101000a900473ffffffffffffffffffffffffffffffffffffffff1690506000600b60008373ffffffffffffffffffffffffffffffffffffffff1673ffffffffffffffffffffffffffffffffffffffff16815260200190815260200160002060050181905550508080610b21906125af565b915050610a57565b50610c7c565b60005b600580549050811015610c7a57600060058281548110610b7b577f4e487b7100000000000000000000000000000000000000000000000000000000600052603260045260246000fd5b9060005260206000200160009054906101000a900473ffffffffffffffffffffffffffffffffffffffff1690506000600b60008373ffffffffffffffffffffffffffffffffffffffff1673ffffffffffffffffffffffffffffffffffffffff1681526020019081526020016000206000015490506000600860020154600754606484610c079190612408565b610c119190612408565b610c1b91906123d7565b905080600b60008573ffffffffffffffffffffffffffffffffffffffff1673ffffffffffffffffffffffffffffffffffffffff168152602001908152602001600020600501819055505050508080610c72906125af565b915050610b32565b505b565b6201518081565b600080600090505b600580549050811015610d6d57600060058281548110610cd6577f4e487b7100000000000000000000000000000000000000000000000000000000600052603260045260246000fd5b9060005260206000200160009054906101000a900473ffffffffffffffffffffffffffffffffffffffff1690506000600b60008373ffffffffffffffffffffffffffffffffffffffff1673ffffffffffffffffffffffffffffffffffffffff1681526020019081526020016000206000015490508381610d569190612381565b935050508080610d65906125af565b915050610c8d565b508060086002018190555050565b60088060000154908060010154908060020154905083565b600260009054906101000a900473ffffffffffffffffffffffffffffffffffffffff1681565b600b6020528060005260406000206000915090508060000154908060010154908060020154908060030154908060040160009054906101000a900460ff16908060040160019054906101000a900460ff16908060050154905087565b610e1d610c85565b60006008600201541415610e3a5743600860010181905550610fd1565b60005b600580549050811015610fc557600060058281548110610e86577f4e487b7100000000000000000000000000000000000000000000000000000000600052603260045260246000fd5b9060005260206000200160009054906101000a900473ffffffffffffffffffffffffffffffffffffffff1690506000600b60008373ffffffffffffffffffffffffffffffffffffffff1673ffffffffffffffffffffffffffffffffffffffff168152602001908152602001600020600001549050600060086002015482600860000154610f139190612408565b610f1d91906123d7565b90506000439050600060086001015482610f379190612462565b905060008184610f479190612408565b90506000811115610fac5780600b60008873ffffffffffffffffffffffffffffffffffffffff1673ffffffffffffffffffffffffffffffffffffffff1681526020019081526020016000206001016000828254610fa49190612381565b925050819055505b5050505050508080610fbd906125af565b915050610e3d565b50436008600101819055505b565b600360009054906101000a900473ffffffffffffffffffffffffffffffffffffffff1681565b60075481565b60008111611042576040517f08c379a000000000000000000000000000000000000000000000000000000000815260040161103990612284565b60405180910390fd5b61104a610e15565b600160009054906101000a900473ffffffffffffffffffffffffffffffffffffffff1673ffffffffffffffffffffffffffffffffffffffff166323b872dd3330846040518463ffffffff1660e01b81526004016110a9939291906120f1565b602060405180830381600087803b1580156110c357600080fd5b505af11580156110d7573d6000803e3d6000fd5b505050506040513d601f19601f820116820180604052508101906110fb9190611e31565b5080600b60003373ffffffffffffffffffffffffffffffffffffffff1673ffffffffffffffffffffffffffffffffffffffff168152602001908152602001600020600001600082825461114e9190612381565b9250508190555042600b60003373ffffffffffffffffffffffffffffffffffffffff1673ffffffffffffffffffffffffffffffffffffffff16815260200190815260200160002060020181905550600b60003373ffffffffffffffffffffffffffffffffffffffff1673ffffffffffffffffffffffffffffffffffffffff16815260200190815260200160002060040160009054906101000a900460ff16611254576005339080600181540180825580915050600190039060005260206000200160009091909190916101000a81548173ffffffffffffffffffffffffffffffffffffffff021916908373ffffffffffffffffffffffffffffffffffffffff1602179055505b6001600b60003373ffffffffffffffffffffffffffffffffffffffff1673ffffffffffffffffffffffffffffffffffffffff16815260200190815260200160002060040160016101000a81548160ff0219169083151502179055506001600b60003373ffffffffffffffffffffffffffffffffffffffff1673ffffffffffffffffffffffffffffffffffffffff16815260200190815260200160002060040160006101000a81548160ff021916908315150217905550600260009054906101000a900473ffffffffffffffffffffffffffffffffffffffff1673ffffffffffffffffffffffffffffffffffffffff1663a9059cbb33836040518363ffffffff1660e01b8152600401611367929190612128565b602060405180830381600087803b15801561138157600080fd5b505af1158015611395573d6000803e3d6000fd5b505050506040513d601f19601f820116820180604052508101906113b99190611e31565b506113c2610c85565b50565b600460009054906101000a900473ffffffffffffffffffffffffffffffffffffffff1681565b6113f3610e15565b6000600b60003373ffffffffffffffffffffffffffffffffffffffff1673ffffffffffffffffffffffffffffffffffffffff1681526020019081526020016000206000015490506000811161147d576040517f08c379a000000000000000000000000000000000000000000000000000000000815260040161147490612224565b60405180910390fd5b6000606460148361148e9190612408565b61149891906123d7565b9050600081836114a89190612462565b9050600160009054906101000a900473ffffffffffffffffffffffffffffffffffffffff1673ffffffffffffffffffffffffffffffffffffffff1663a9059cbb33836040518363ffffffff1660e01b8152600401611507929190612128565b602060405180830381600087803b15801561152157600080fd5b505af1158015611535573d6000803e3d6000fd5b505050506040513d601f19601f820116820180604052508101906115599190611e31565b50600160009054906101000a900473ffffffffffffffffffffffffffffffffffffffff1673ffffffffffffffffffffffffffffffffffffffff1663a9059cbb30846040518363ffffffff1660e01b81526004016115b7929190612128565b602060405180830381600087803b1580156115d157600080fd5b505af11580156115e5573d6000803e3d6000fd5b505050506040513d601f19601f820116820180604052508101906116099190611e31565b50600260009054906101000a900473ffffffffffffffffffffffffffffffffffffffff1673ffffffffffffffffffffffffffffffffffffffff166323b872dd3330866040518463ffffffff1660e01b8152600401611669939291906120f1565b602060405180830381600087803b15801561168357600080fd5b505af1158015611697573d6000803e3d6000fd5b505050506040513d601f19601f820116820180604052508101906116bb9190611e31565b506000600b60003373ffffffffffffffffffffffffffffffffffffffff1673ffffffffffffffffffffffffffffffffffffffff168152602001908152602001600020600001819055506000600b60003373ffffffffffffffffffffffffffffffffffffffff1673ffffffffffffffffffffffffffffffffffffffff16815260200190815260200160002060040160016101000a81548160ff021916908315150217905550611767610c85565b61176f610a46565b505050565b600081116117b7576040517f08c379a00000000000000000000000000000000000000000000000000000000081526004016117ae90612284565b60405180910390fd5b600460009054906101000a900473ffffffffffffffffffffffffffffffffffffffff1673ffffffffffffffffffffffffffffffffffffffff163373ffffffffffffffffffffffffffffffffffffffff1614611847576040517f08c379a000000000000000000000000000000000000000000000000000000000815260040161183e90612264565b60405180910390fd5b61184f610c85565b6000600860020154141561186c5743600860010181905550611a03565b60005b6005805490508110156119f7576000600582815481106118b8577f4e487b7100000000000000000000000000000000000000000000000000000000600052603260045260246000fd5b9060005260206000200160009054906101000a900473ffffffffffffffffffffffffffffffffffffffff1690506000600b60008373ffffffffffffffffffffffffffffffffffffffff1673ffffffffffffffffffffffffffffffffffffffff1681526020019081526020016000206000015490506000600860020154826008600001546119459190612408565b61194f91906123d7565b905060004390506000600860010154826119699190612462565b9050600081846119799190612408565b905060008111156119de5780600b60008873ffffffffffffffffffffffffffffffffffffffff1673ffffffffffffffffffffffffffffffffffffffff16815260200190815260200160002060010160008282546119d69190612381565b925050819055505b50505050505080806119ef906125af565b91505061186f565b50436008600101819055505b50565b611a0e610e15565b6000600b60003373ffffffffffffffffffffffffffffffffffffffff1673ffffffffffffffffffffffffffffffffffffffff16815260200190815260200160002060000154905060008111611a98576040517f08c379a0000000000000000000000000000000000000000000000000000000008152600401611a8f90612224565b60405180910390fd5b600062015180600b60003373ffffffffffffffffffffffffffffffffffffffff1673ffffffffffffffffffffffffffffffffffffffff16815260200190815260200160002060020154611aeb9190612381565b905080421015611b30576040517f08c379a0000000000000000000000000000000000000000000000000000000008152600401611b2790612244565b60405180910390fd5b600160009054906101000a900473ffffffffffffffffffffffffffffffffffffffff1673ffffffffffffffffffffffffffffffffffffffff1663a9059cbb33846040518363ffffffff1660e01b8152600401611b8d929190612128565b602060405180830381600087803b158015611ba757600080fd5b505af1158015611bbb573d6000803e3d6000fd5b505050506040513d601f19601f82011682018060405250810190611bdf9190611e31565b50600260009054906101000a900473ffffffffffffffffffffffffffffffffffffffff1673ffffffffffffffffffffffffffffffffffffffff166323b872dd3330856040518463ffffffff1660e01b8152600401611c3f939291906120f1565b602060405180830381600087803b158015611c5957600080fd5b505af1158015611c6d573d6000803e3d6000fd5b505050506040513d601f19601f82011682018060405250810190611c919190611e31565b506000600b60003373ffffffffffffffffffffffffffffffffffffffff1673ffffffffffffffffffffffffffffffffffffffff168152602001908152602001600020600001819055506000600b60003373ffffffffffffffffffffffffffffffffffffffff1673ffffffffffffffffffffffffffffffffffffffff16815260200190815260200160002060040160016101000a81548160ff021916908315150217905550611d3d610c85565b611d45610a46565b5050565b601481565b60058181548110611d5e57600080fd5b906000526020600020016000915054906101000a900473ffffffffffffffffffffffffffffffffffffffff1681565b600081359050611d9c81612696565b92915050565b600081519050611db1816126ad565b92915050565b600081359050611dc6816126c4565b92915050565b600060208284031215611dde57600080fd5b6000611dec84828501611d8d565b91505092915050565b60008060408385031215611e0857600080fd5b6000611e1685828601611d8d565b9250506020611e2785828601611db7565b9150509250929050565b600060208284031215611e4357600080fd5b6000611e5184828501611da2565b91505092915050565b600060208284031215611e6c57600080fd5b6000611e7a84828501611db7565b91505092915050565b611e8c81612496565b82525050565b611e9b816124a8565b82525050565b611eaa816124de565b82525050565b611eb981612502565b82525050565b611ec881612526565b82525050565b6000611ed982612365565b611ee38185612370565b9350611ef381856020860161254a565b611efc81612685565b840191505092915050565b6000611f14601b83612370565b91507f616d6f756e74206d6f7265207468616e204c502062616c616e636500000000006000830152602082019050919050565b6000611f54601f83612370565b91507f616d6f756e74206d6f7265207468616e207265776172642062616c616e6365006000830152602082019050919050565b6000611f94600f83612370565b91507f496e76616c6964206164647265737300000000000000000000000000000000006000830152602082019050919050565b6000611fd4601b83612370565b91507f7374616b696e672062616c616e63652063616e6e6f74206265203000000000006000830152602082019050919050565b6000612014601c83612370565b91507f746f6f206561726c7920746f20776974686472617720546f6b656e73000000006000830152602082019050919050565b6000612054601483612370565b91507f63616c6c6572206d757374206265206f776e65720000000000000000000000006000830152602082019050919050565b6000612094601283612370565b91507f616d6f756e742063616e6e6f74206265203000000000000000000000000000006000830152602082019050919050565b6120d0816124d4565b82525050565b60006020820190506120eb6000830184611e83565b92915050565b60006060820190506121066000830186611e83565b6121136020830185611e83565b61212060408301846120c7565b949350505050565b600060408201905061213d6000830185611e83565b61214a60208301846120c7565b9392505050565b60006020820190506121666000830184611ea1565b92915050565b60006020820190506121816000830184611eb0565b92915050565b600060208201905061219c6000830184611ebf565b92915050565b600060208201905081810360008301526121bc8184611ece565b905092915050565b600060208201905081810360008301526121dd81611f07565b9050919050565b600060208201905081810360008301526121fd81611f47565b9050919050565b6000602082019050818103600083015261221d81611f87565b9050919050565b6000602082019050818103600083015261223d81611fc7565b9050919050565b6000602082019050818103600083015261225d81612007565b9050919050565b6000602082019050818103600083015261227d81612047565b9050919050565b6000602082019050818103600083015261229d81612087565b9050919050565b60006020820190506122b960008301846120c7565b92915050565b60006060820190506122d460008301866120c7565b6122e160208301856120c7565b6122ee60408301846120c7565b949350505050565b600060e08201905061230b600083018a6120c7565b61231860208301896120c7565b61232560408301886120c7565b61233260608301876120c7565b61233f6080830186611e92565b61234c60a0830185611e92565b61235960c08301846120c7565b98975050505050505050565b600081519050919050565b600082825260208201905092915050565b600061238c826124d4565b9150612397836124d4565b9250827fffffffffffffffffffffffffffffffffffffffffffffffffffffffffffffffff038211156123cc576123cb6125f8565b5b828201905092915050565b60006123e2826124d4565b91506123ed836124d4565b9250826123fd576123fc612627565b5b828204905092915050565b6000612413826124d4565b915061241e836124d4565b9250817fffffffffffffffffffffffffffffffffffffffffffffffffffffffffffffffff0483118215151615612457576124566125f8565b5b828202905092915050565b600061246d826124d4565b9150612478836124d4565b92508282101561248b5761248a6125f8565b5b828203905092915050565b60006124a1826124b4565b9050919050565b60008115159050919050565b600073ffffffffffffffffffffffffffffffffffffffff82169050919050565b6000819050919050565b60006124e9826124f0565b9050919050565b60006124fb826124b4565b9050919050565b600061250d82612514565b9050919050565b600061251f826124b4565b9050919050565b600061253182612538565b9050919050565b6000612543826124b4565b9050919050565b60005b8381101561256857808201518184015260208101905061254d565b83811115612577576000848401525b50505050565b6000600282049050600182168061259557607f821691505b602082108114156125a9576125a8612656565b5b50919050565b60006125ba826124d4565b91507fffffffffffffffffffffffffffffffffffffffffffffffffffffffffffffffff8214156125ed576125ec6125f8565b5b600182019050919050565b7f4e487b7100000000000000000000000000000000000000000000000000000000600052601160045260246000fd5b7f4e487b7100000000000000000000000000000000000000000000000000000000600052601260045260246000fd5b7f4e487b7100000000000000000000000000000000000000000000000000000000600052602260045260246000fd5b6000601f19601f8301169050919050565b61269f81612496565b81146126aa57600080fd5b50565b6126b6816124a8565b81146126c157600080fd5b50565b6126cd816124d4565b81146126d857600080fd5b5056fea264697066735822122081d0d379c8bdb7a80b8b643eaad06b33f971046db0ba1d10546f3d2e205caed564736f6c63430008000033",
  "immutableReferences": {},
  "source": "pragma solidity ^0.8.0;\n\nimport \"./XToken.sol\";\nimport \"./LPXToken.sol\";\nimport \"./PurseToken.sol\";\n\ncontract TokenFarm {\n    string public name = \"X Token Farm\";\n    XToken public xToken;\n    LPXToken public lpXToken;\n    PurseToken public purseToken;\n    address public owner;\n    address[] public stakers;\n    uint256 internal tokenBurnRate = 2;\n    uint256 public constant duration = 1 days;\n    uint256 public constant penaltyRate = 20;\n    uint256 public decimalFlow = 1000000;\n\n    FarmInfo public farmInfo;\n    mapping(address => StakerInfo) public stakerInfo;\n    \n    struct StakerInfo {\n        uint256 stakingBalance;\n        uint256 rewardBalance;\n        uint256 stakingTimestamp;\n        uint256 stakingBlock;\n        bool hasStaked;\n        bool isStaking;\n        uint256 poolShareRatio;\n    }\n\n    struct FarmInfo {\n        uint256 blockReward;\n        uint256 lastRewardBlock;  // Last block number that reward distribution occurs.\n        uint256 farmableSupply; // set in init, total amount of tokens farmable\n    }\n\n    constructor(XToken _xToken, LPXToken _lpXToken,PurseToken _purseToken, uint256 _blockReward) public {\n        xToken = _xToken;\n        lpXToken = _lpXToken;\n        purseToken = _purseToken;\n        farmInfo.blockReward = _blockReward;\n        owner = msg.sender;\n    }\n\n    // Stakes Tokens\n    function stakeTokens(uint256 _amount) public {\n        require(_amount > 0, \"amount cannot be 0\");\n        updateRewardTokens();\n        xToken.transferFrom(msg.sender, address(this), _amount); // Stake x token\n        stakerInfo[msg.sender].stakingBalance += _amount; \n        stakerInfo[msg.sender].stakingTimestamp = block.timestamp;\n        // stakerInfo[msg.sender].stakingBlock = block.number;\n\n        if (!stakerInfo[msg.sender].hasStaked) {\n            stakers.push(msg.sender);\n        }\n\n        //Update staking status\n        stakerInfo[msg.sender].isStaking = true;\n        stakerInfo[msg.sender].hasStaked = true;\n\n        lpXToken.transfer(msg.sender, _amount);\n        getTotalBalance();\n        // getPoolShareRatio();\n    }\n\n    // Unstacking Tokens\n    function unstakeTokens() public {\n        updateRewardTokens();\n        uint256 balance = stakerInfo[msg.sender].stakingBalance;\n        require(balance > 0, \"staking balance cannot be 0\");\n        uint256 end = stakerInfo[msg.sender].stakingTimestamp + duration;\n        require(block.timestamp >= end, \"too early to withdraw Tokens\");\n        xToken.transfer(msg.sender, balance); // withdraw dai token\n        lpXToken.transferFrom(msg.sender, address(this), balance); //return lpX token\n\n        stakerInfo[msg.sender].stakingBalance = 0;\n        stakerInfo[msg.sender].isStaking = false;\n        getTotalBalance();\n        getPoolShareRatio();\n    }\n\n    // Issuing Tokens\n    function issueTokens(uint256 _amount) public {\n        require(_amount > 0, \"amount cannot be 0\");\n\n        // Only owner can call this function\n        require(msg.sender == owner, \"caller must be owner\");\n        getTotalBalance();\n\n        if( farmInfo.farmableSupply == 0){\n            farmInfo.lastRewardBlock = block.number;\n            return;\n        }\n        \n        //Issue tokens to all stakers\n        for (uint256 i = 0; i < stakers.length; i++) {\n            address recipient = stakers[i];\n            uint256 balance = stakerInfo[recipient].stakingBalance;\n            uint256 amount = farmInfo.blockReward * balance / farmInfo.farmableSupply ;\n\n            uint256 blknumbernow = block.number;\n            uint256 diffofblk = blknumbernow - farmInfo.lastRewardBlock;\n            uint256 totalamount = amount * diffofblk;\n\n            if (totalamount > 0) {\n                stakerInfo[recipient].rewardBalance += totalamount; //Update reward balance\n            }\n        }\n        farmInfo.lastRewardBlock = block.number;\n    }\n\n    // Issuing Tokens for internal\n    function updateRewardTokens() public {\n\n        getTotalBalance();\n\n        if( farmInfo.farmableSupply == 0){\n            farmInfo.lastRewardBlock = block.number;\n            return;\n        }\n        //update reward tokens to all stakers\n        for (uint256 i = 0; i < stakers.length; i++) {\n            address recipient = stakers[i];\n            uint256 balance = stakerInfo[recipient].stakingBalance;\n            // uint256 ratio = (balance * 100 * decimalFlow) / farmInfo.farmableSupply;\n            uint256 amount = farmInfo.blockReward * balance / farmInfo.farmableSupply ;\n            \n            uint256 blknumbernow = block.number;\n            uint256 diffofblk = blknumbernow - farmInfo.lastRewardBlock;\n            uint256 totalamount = amount * diffofblk;\n\n            if (totalamount > 0) {\n                stakerInfo[recipient].rewardBalance += totalamount; //Update reward balance\n            }\n        }\n        farmInfo.lastRewardBlock = block.number;\n    }\n    \n    // Emergency Unstacking Tokens to withdraw LP tokens with penalty\n    function emergencyUnstakeTokens() public {\n        updateRewardTokens();\n        uint256 balance = stakerInfo[msg.sender].stakingBalance;\n        require(balance > 0, \"staking balance cannot be 0\");\n        uint256 penalty = balance * penaltyRate/100;\n        uint256 remainingBalance = balance - penalty;\n        xToken.transfer(msg.sender, remainingBalance); // Unstake x token\n        xToken.transfer(address(this), penalty); // Unstake penalty x token\n        lpXToken.transferFrom(msg.sender, address(this), balance); //return lpx token\n\n        stakerInfo[msg.sender].stakingBalance = 0;\n        stakerInfo[msg.sender].isStaking = false;\n        getTotalBalance();\n        getPoolShareRatio();\n    }\n    \n    function getTotalBalance() public {\n        uint256 totalBalance;\n        for (uint256 i = 0; i < stakers.length; i++) {\n            address recipient = stakers[i];\n            uint256 balance = stakerInfo[recipient].stakingBalance;\n            totalBalance = balance + totalBalance;\n        }\n        farmInfo.farmableSupply = totalBalance;\n    }\n    \n    function getPoolShareRatio() public {\n        if( farmInfo.farmableSupply == 0){\n            for (uint256 i = 0; i < stakers.length; i++) {\n                address recipient = stakers[i];\n                stakerInfo[recipient].poolShareRatio = 0;\n            }\n        }\n        else {\n            for (uint256 i = 0; i < stakers.length; i++) {\n                address recipient = stakers[i];\n                uint256 balance = stakerInfo[recipient].stakingBalance;\n                uint256 ratio = (balance * 100 * decimalFlow) / farmInfo.farmableSupply;\n                stakerInfo[recipient].poolShareRatio = ratio;\n            }\n        }\n    }\n\n    function transferOwnership(address _to ,uint256 _amount) public {\n        require(_amount > 0, \"amount cannot be 0\");\n        require(_to == address(_to),\"Invalid address\");\n        uint256 balance = stakerInfo[msg.sender].stakingBalance;\n        require(_amount <= balance, \"amount more than LP balance\");\n        updateRewardTokens();\n        lpXToken.transferFrom(msg.sender, _to, _amount); //transfer lpXToken\n        stakerInfo[msg.sender].stakingBalance -= _amount;\n        \n        stakerInfo[_to].stakingBalance += (_amount); //Update staking balance\n        stakerInfo[_to].stakingTimestamp = stakerInfo[msg.sender].stakingTimestamp;\n\n        if (!stakerInfo[_to].hasStaked) {\n            stakers.push(_to);\n        }\n\n        //Update staking status\n        stakerInfo[_to].isStaking = true;\n        stakerInfo[_to].hasStaked = true;\n        \n        getTotalBalance();\n        getPoolShareRatio();\n    }    \n    \n    function redeemToken(uint256 _amount) public{\n        updateRewardTokens();\n        require(_amount > 0, \"amount cannot be 0\"); \n        uint256 balance = stakerInfo[msg.sender].rewardBalance;\n        require(_amount <= balance, \"amount more than reward balance\");\n        purseToken.transfer(msg.sender, _amount* tokenBurnRate); // Redeem reward token\n    }\n}",
  "sourcePath": "/home/ubuntu/Desktop/Blockchain Talent Program/YieldFarming/Yield_Farming_v3/src/contracts/TokenFarm_compund.sol",
  "compiler": {
    "name": "solc",
    "version": "0.8.0+commit.c7dfd78e.Emscripten.clang"
  },
  "schemaVersion": "3.4.1",
  "updatedAt": "2021-07-22T03:59:29.311Z",
  "networkType": "ethereum",
  "devdoc": {
    "kind": "dev",
    "methods": {},
    "version": 1
  },
  "userdoc": {
    "kind": "user",
    "methods": {},
    "version": 1
  }
}