{
  "contractName": "TokenFarm",
  "abi": [
    {
      "inputs": [
        {
          "internalType": "contract XToken",
          "name": "_xToken",
          "type": "address"
        },
        {
          "internalType": "contract LPXToken",
          "name": "_lpXToken",
          "type": "address"
        },
        {
          "internalType": "contract PurseToken",
          "name": "_purseToken",
          "type": "address"
        },
        {
          "internalType": "uint256",
          "name": "_blockReward",
          "type": "uint256"
        }
      ],
      "stateMutability": "nonpayable",
      "type": "constructor"
    },
    {
      "inputs": [],
      "name": "duration",
      "outputs": [
        {
          "internalType": "uint256",
          "name": "",
          "type": "uint256"
        }
      ],
      "stateMutability": "view",
      "type": "function",
      "constant": true
    },
    {
      "inputs": [],
      "name": "farmInfo",
      "outputs": [
        {
          "internalType": "uint256",
          "name": "blockReward",
          "type": "uint256"
        },
        {
          "internalType": "uint256",
          "name": "lastRewardBlock",
          "type": "uint256"
        },
        {
          "internalType": "uint256",
          "name": "farmableSupply",
          "type": "uint256"
        }
      ],
      "stateMutability": "view",
      "type": "function",
      "constant": true
    },
    {
      "inputs": [],
      "name": "lpXToken",
      "outputs": [
        {
          "internalType": "contract LPXToken",
          "name": "",
          "type": "address"
        }
      ],
      "stateMutability": "view",
      "type": "function",
      "constant": true
    },
    {
      "inputs": [],
      "name": "name",
      "outputs": [
        {
          "internalType": "string",
          "name": "",
          "type": "string"
        }
      ],
      "stateMutability": "view",
      "type": "function",
      "constant": true
    },
    {
      "inputs": [],
      "name": "owner",
      "outputs": [
        {
          "internalType": "address",
          "name": "",
          "type": "address"
        }
      ],
      "stateMutability": "view",
      "type": "function",
      "constant": true
    },
    {
      "inputs": [],
      "name": "penaltyRate",
      "outputs": [
        {
          "internalType": "uint256",
          "name": "",
          "type": "uint256"
        }
      ],
      "stateMutability": "view",
      "type": "function",
      "constant": true
    },
    {
      "inputs": [],
      "name": "purseToken",
      "outputs": [
        {
          "internalType": "contract PurseToken",
          "name": "",
          "type": "address"
        }
      ],
      "stateMutability": "view",
      "type": "function",
      "constant": true
    },
    {
      "inputs": [
        {
          "internalType": "address",
          "name": "",
          "type": "address"
        }
      ],
      "name": "stakerInfo",
      "outputs": [
        {
          "internalType": "uint256",
          "name": "stakingBalance",
          "type": "uint256"
        },
        {
          "internalType": "uint256",
          "name": "rewardBalance",
          "type": "uint256"
        },
        {
          "internalType": "uint256",
          "name": "stakingTimestamp",
          "type": "uint256"
        },
        {
          "internalType": "bool",
          "name": "hasStaked",
          "type": "bool"
        },
        {
          "internalType": "bool",
          "name": "isStaking",
          "type": "bool"
        },
        {
          "internalType": "uint256",
          "name": "poolShareRatio",
          "type": "uint256"
        }
      ],
      "stateMutability": "view",
      "type": "function",
      "constant": true
    },
    {
      "inputs": [
        {
          "internalType": "uint256",
          "name": "",
          "type": "uint256"
        }
      ],
      "name": "stakers",
      "outputs": [
        {
          "internalType": "address",
          "name": "",
          "type": "address"
        }
      ],
      "stateMutability": "view",
      "type": "function",
      "constant": true
    },
    {
      "inputs": [],
      "name": "xToken",
      "outputs": [
        {
          "internalType": "contract XToken",
          "name": "",
          "type": "address"
        }
      ],
      "stateMutability": "view",
      "type": "function",
      "constant": true
    },
    {
      "inputs": [
        {
          "internalType": "uint256",
          "name": "_amount",
          "type": "uint256"
        }
      ],
      "name": "stakeTokens",
      "outputs": [],
      "stateMutability": "nonpayable",
      "type": "function"
    },
    {
      "inputs": [],
      "name": "unstakeTokens",
      "outputs": [],
      "stateMutability": "nonpayable",
      "type": "function"
    },
    {
      "inputs": [
        {
          "internalType": "uint256",
          "name": "_amount",
          "type": "uint256"
        }
      ],
      "name": "issueTokens",
      "outputs": [],
      "stateMutability": "nonpayable",
      "type": "function"
    },
    {
      "inputs": [],
      "name": "updateRewardTokens",
      "outputs": [],
      "stateMutability": "nonpayable",
      "type": "function"
    },
    {
      "inputs": [],
      "name": "emergencyUnstakeTokens",
      "outputs": [],
      "stateMutability": "nonpayable",
      "type": "function"
    },
    {
      "inputs": [],
      "name": "getTotalBalance",
      "outputs": [],
      "stateMutability": "nonpayable",
      "type": "function"
    },
    {
      "inputs": [],
      "name": "getPoolShareRatio",
      "outputs": [],
      "stateMutability": "nonpayable",
      "type": "function"
    },
    {
      "inputs": [
        {
          "internalType": "address",
          "name": "_to",
          "type": "address"
        },
        {
          "internalType": "uint256",
          "name": "_amount",
          "type": "uint256"
        }
      ],
      "name": "transferOwnership",
      "outputs": [],
      "stateMutability": "nonpayable",
      "type": "function"
    },
    {
      "inputs": [
        {
          "internalType": "uint256",
          "name": "_amount",
          "type": "uint256"
        }
      ],
      "name": "redeemToken",
      "outputs": [],
      "stateMutability": "nonpayable",
      "type": "function"
    }
  ],
  "bytecode": "0x60806040526040518060400160405280600c81526020017f5820546f6b656e204661726d00000000000000000000000000000000000000008152506000908051906020019062000051929190620001a2565b5060026006553480156200006457600080fd5b5060405162002b5838038062002b5883398181016040528101906200008a9190620002ae565b83600160006101000a81548173ffffffffffffffffffffffffffffffffffffffff021916908373ffffffffffffffffffffffffffffffffffffffff16021790555082600260006101000a81548173ffffffffffffffffffffffffffffffffffffffff021916908373ffffffffffffffffffffffffffffffffffffffff16021790555081600360006101000a81548173ffffffffffffffffffffffffffffffffffffffff021916908373ffffffffffffffffffffffffffffffffffffffff1602179055508060076000018190555033600460006101000a81548173ffffffffffffffffffffffffffffffffffffffff021916908373ffffffffffffffffffffffffffffffffffffffff1602179055505050505062000461565b828054620001b09062000394565b90600052602060002090601f016020900481019282620001d4576000855562000220565b82601f10620001ef57805160ff191683800117855562000220565b8280016001018555821562000220579182015b828111156200021f57825182559160200191906001019062000202565b5b5090506200022f919062000233565b5090565b5b808211156200024e57600081600090555060010162000234565b5090565b6000815190506200026381620003f9565b92915050565b6000815190506200027a8162000413565b92915050565b60008151905062000291816200042d565b92915050565b600081519050620002a88162000447565b92915050565b60008060008060808587031215620002c557600080fd5b6000620002d58782880162000280565b9450506020620002e88782880162000252565b9350506040620002fb8782880162000269565b92505060606200030e8782880162000297565b91505092959194509250565b600062000327826200036a565b9050919050565b60006200033b826200031a565b9050919050565b60006200034f826200031a565b9050919050565b600062000363826200031a565b9050919050565b600073ffffffffffffffffffffffffffffffffffffffff82169050919050565b6000819050919050565b60006002820490506001821680620003ad57607f821691505b60208210811415620003c457620003c3620003ca565b5b50919050565b7f4e487b7100000000000000000000000000000000000000000000000000000000600052602260045260246000fd5b62000404816200032e565b81146200041057600080fd5b50565b6200041e8162000342565b81146200042a57600080fd5b50565b620004388162000356565b81146200044457600080fd5b50565b62000452816200038a565b81146200045e57600080fd5b50565b6126e780620004716000396000f3fe608060405234801561001057600080fd5b50600436106101215760003560e01c80634e745f1f116100ad578063a179b81211610071578063a179b812146102a1578063a5820daa146102ab578063a5ce413b146102c7578063d6b7494f146102d1578063fd5e6dd1146102ef57610121565b80634e745f1f1461020a5780634e8fd73a1461023f57806351bf16ef146102495780637547c7a3146102675780638da5cb5b1461028357610121565b80630d7a70d4116100f45780630d7a70d41461019a5780630fb5a6b4146101a457806312b58349146101c25780631d49d66c146101cc578063435e05dd146101ec57610121565b8063013054c21461012657806306fdde0314610142578063088b699e146101605780630a2766801461017e575b600080fd5b610140600480360381019061013b9190611e3e565b61031f565b005b61014a6104ad565b6040516101579190612186565b60405180910390f35b61016861053b565b604051610175919061216b565b60405180910390f35b61019860048036038101906101939190611dd9565b610561565b005b6101a2610a14565b005b6101ac610c3f565b6040516101b99190612288565b60405180910390f35b6101ca610c46565b005b6101d4610d3c565b6040516101e3939291906122a3565b60405180910390f35b6101f4610d54565b6040516102019190612135565b60405180910390f35b610224600480360381019061021f9190611db0565b610d7a565b604051610236969594939291906122da565b60405180910390f35b610247610dd0565b005b610251610fac565b60405161025e9190612150565b60405180910390f35b610281600480360381019061027c9190611e3e565b610fd2565b005b61028b6113a0565b60405161029891906120ba565b60405180910390f35b6102a96113c6565b005b6102c560048036038101906102c09190611e3e565b611747565b005b6102cf6119f2565b005b6102d9611d2d565b6040516102e69190612288565b60405180910390f35b61030960048036038101906103049190611e3e565b611d32565b60405161031691906120ba565b60405180910390f35b60008111610362576040517f08c379a000000000000000000000000000000000000000000000000000000000815260040161035990612268565b60405180910390fd5b6000600a60003373ffffffffffffffffffffffffffffffffffffffff1673ffffffffffffffffffffffffffffffffffffffff168152602001908152602001600020600101549050808211156103ec576040517f08c379a00000000000000000000000000000000000000000000000000000000081526004016103e3906121c8565b60405180910390fd5b600360009054906101000a900473ffffffffffffffffffffffffffffffffffffffff1673ffffffffffffffffffffffffffffffffffffffff1663a9059cbb336006548561043991906123de565b6040518363ffffffff1660e01b815260040161045692919061210c565b602060405180830381600087803b15801561047057600080fd5b505af1158015610484573d6000803e3d6000fd5b505050506040513d601f19601f820116820180604052508101906104a89190611e15565b505050565b600080546104ba90612553565b80601f01602080910402602001604051908101604052809291908181526020018280546104e690612553565b80156105335780601f1061050857610100808354040283529160200191610533565b820191906000526020600020905b81548152906001019060200180831161051657829003601f168201915b505050505081565b600160009054906101000a900473ffffffffffffffffffffffffffffffffffffffff1681565b600081116105a4576040517f08c379a000000000000000000000000000000000000000000000000000000000815260040161059b90612268565b60405180910390fd5b8173ffffffffffffffffffffffffffffffffffffffff168273ffffffffffffffffffffffffffffffffffffffff1614610612576040517f08c379a0000000000000000000000000000000000000000000000000000000008152600401610609906121e8565b60405180910390fd5b6000600a60003373ffffffffffffffffffffffffffffffffffffffff1673ffffffffffffffffffffffffffffffffffffffff1681526020019081526020016000206000015490508082111561069c576040517f08c379a0000000000000000000000000000000000000000000000000000000008152600401610693906121a8565b60405180910390fd5b6106a4610dd0565b600260009054906101000a900473ffffffffffffffffffffffffffffffffffffffff1673ffffffffffffffffffffffffffffffffffffffff166323b872dd3385856040518463ffffffff1660e01b8152600401610703939291906120d5565b602060405180830381600087803b15801561071d57600080fd5b505af1158015610731573d6000803e3d6000fd5b505050506040513d601f19601f820116820180604052508101906107559190611e15565b5081600a60003373ffffffffffffffffffffffffffffffffffffffff1673ffffffffffffffffffffffffffffffffffffffff16815260200190815260200160002060000160008282546107a89190612438565b9250508190555081600a60008573ffffffffffffffffffffffffffffffffffffffff1673ffffffffffffffffffffffffffffffffffffffff16815260200190815260200160002060000160008282546108019190612357565b92505081905550600a60003373ffffffffffffffffffffffffffffffffffffffff1673ffffffffffffffffffffffffffffffffffffffff16815260200190815260200160002060020154600a60008573ffffffffffffffffffffffffffffffffffffffff1673ffffffffffffffffffffffffffffffffffffffff16815260200190815260200160002060020181905550600a60008473ffffffffffffffffffffffffffffffffffffffff1673ffffffffffffffffffffffffffffffffffffffff16815260200190815260200160002060030160009054906101000a900460ff16610949576005839080600181540180825580915050600190039060005260206000200160009091909190916101000a81548173ffffffffffffffffffffffffffffffffffffffff021916908373ffffffffffffffffffffffffffffffffffffffff1602179055505b6001600a60008573ffffffffffffffffffffffffffffffffffffffff1673ffffffffffffffffffffffffffffffffffffffff16815260200190815260200160002060030160016101000a81548160ff0219169083151502179055506001600a60008573ffffffffffffffffffffffffffffffffffffffff1673ffffffffffffffffffffffffffffffffffffffff16815260200190815260200160002060030160006101000a81548160ff021916908315150217905550610a07610c46565b610a0f610a14565b505050565b60006007600201541415610afd5760005b600580549050811015610af757600060058281548110610a6e577f4e487b7100000000000000000000000000000000000000000000000000000000600052603260045260246000fd5b9060005260206000200160009054906101000a900473ffffffffffffffffffffffffffffffffffffffff1690506000600a60008373ffffffffffffffffffffffffffffffffffffffff1673ffffffffffffffffffffffffffffffffffffffff16815260200190815260200160002060040181905550508080610aef90612585565b915050610a25565b50610c3d565b60005b600580549050811015610c3b57600060058281548110610b49577f4e487b7100000000000000000000000000000000000000000000000000000000600052603260045260246000fd5b9060005260206000200160009054906101000a900473ffffffffffffffffffffffffffffffffffffffff1690506000600a60008373ffffffffffffffffffffffffffffffffffffffff1673ffffffffffffffffffffffffffffffffffffffff1681526020019081526020016000206000015490506000600760020154606483610bd291906123de565b610bdc91906123ad565b905080600a60008573ffffffffffffffffffffffffffffffffffffffff1673ffffffffffffffffffffffffffffffffffffffff168152602001908152602001600020600401819055505050508080610c3390612585565b915050610b00565b505b565b6201518081565b600080600090505b600580549050811015610d2e57600060058281548110610c97577f4e487b7100000000000000000000000000000000000000000000000000000000600052603260045260246000fd5b9060005260206000200160009054906101000a900473ffffffffffffffffffffffffffffffffffffffff1690506000600a60008373ffffffffffffffffffffffffffffffffffffffff1673ffffffffffffffffffffffffffffffffffffffff1681526020019081526020016000206000015490508381610d179190612357565b935050508080610d2690612585565b915050610c4e565b508060076002018190555050565b60078060000154908060010154908060020154905083565b600260009054906101000a900473ffffffffffffffffffffffffffffffffffffffff1681565b600a6020528060005260406000206000915090508060000154908060010154908060020154908060030160009054906101000a900460ff16908060030160019054906101000a900460ff16908060040154905086565b610dd8610c46565b60006007600201541415610df55743600760010181905550610faa565b60005b600580549050811015610f9e57600060058281548110610e41577f4e487b7100000000000000000000000000000000000000000000000000000000600052603260045260246000fd5b9060005260206000200160009054906101000a900473ffffffffffffffffffffffffffffffffffffffff1690506000600a60008373ffffffffffffffffffffffffffffffffffffffff1673ffffffffffffffffffffffffffffffffffffffff1681526020019081526020016000206000015490506000600760020154606483610eca91906123de565b610ed491906123ad565b90506000606482600760000154610eeb91906123de565b610ef591906123ad565b90506000439050600060076001015482610f0f9190612438565b905060008184610f1f91906123de565b90506000811115610f845780600a60008973ffffffffffffffffffffffffffffffffffffffff1673ffffffffffffffffffffffffffffffffffffffff1681526020019081526020016000206001016000828254610f7c9190612357565b925050819055505b505050505050508080610f9690612585565b915050610df8565b50436007600101819055505b565b600360009054906101000a900473ffffffffffffffffffffffffffffffffffffffff1681565b60008111611015576040517f08c379a000000000000000000000000000000000000000000000000000000000815260040161100c90612268565b60405180910390fd5b61101d610dd0565b600160009054906101000a900473ffffffffffffffffffffffffffffffffffffffff1673ffffffffffffffffffffffffffffffffffffffff166323b872dd3330846040518463ffffffff1660e01b815260040161107c939291906120d5565b602060405180830381600087803b15801561109657600080fd5b505af11580156110aa573d6000803e3d6000fd5b505050506040513d601f19601f820116820180604052508101906110ce9190611e15565b5080600a60003373ffffffffffffffffffffffffffffffffffffffff1673ffffffffffffffffffffffffffffffffffffffff16815260200190815260200160002060000160008282546111219190612357565b9250508190555042600a60003373ffffffffffffffffffffffffffffffffffffffff1673ffffffffffffffffffffffffffffffffffffffff16815260200190815260200160002060020181905550600a60003373ffffffffffffffffffffffffffffffffffffffff1673ffffffffffffffffffffffffffffffffffffffff16815260200190815260200160002060030160009054906101000a900460ff16611227576005339080600181540180825580915050600190039060005260206000200160009091909190916101000a81548173ffffffffffffffffffffffffffffffffffffffff021916908373ffffffffffffffffffffffffffffffffffffffff1602179055505b6001600a60003373ffffffffffffffffffffffffffffffffffffffff1673ffffffffffffffffffffffffffffffffffffffff16815260200190815260200160002060030160016101000a81548160ff0219169083151502179055506001600a60003373ffffffffffffffffffffffffffffffffffffffff1673ffffffffffffffffffffffffffffffffffffffff16815260200190815260200160002060030160006101000a81548160ff021916908315150217905550600260009054906101000a900473ffffffffffffffffffffffffffffffffffffffff1673ffffffffffffffffffffffffffffffffffffffff1663a9059cbb33836040518363ffffffff1660e01b815260040161133a92919061210c565b602060405180830381600087803b15801561135457600080fd5b505af1158015611368573d6000803e3d6000fd5b505050506040513d601f19601f8201168201806040525081019061138c9190611e15565b50611395610c46565b61139d610a14565b50565b600460009054906101000a900473ffffffffffffffffffffffffffffffffffffffff1681565b6000600a60003373ffffffffffffffffffffffffffffffffffffffff1673ffffffffffffffffffffffffffffffffffffffff16815260200190815260200160002060000154905060008111611450576040517f08c379a000000000000000000000000000000000000000000000000000000000815260040161144790612208565b60405180910390fd5b6000606460148361146191906123de565b61146b91906123ad565b90506000818361147b9190612438565b9050600160009054906101000a900473ffffffffffffffffffffffffffffffffffffffff1673ffffffffffffffffffffffffffffffffffffffff1663a9059cbb33836040518363ffffffff1660e01b81526004016114da92919061210c565b602060405180830381600087803b1580156114f457600080fd5b505af1158015611508573d6000803e3d6000fd5b505050506040513d601f19601f8201168201806040525081019061152c9190611e15565b50600160009054906101000a900473ffffffffffffffffffffffffffffffffffffffff1673ffffffffffffffffffffffffffffffffffffffff1663a9059cbb30846040518363ffffffff1660e01b815260040161158a92919061210c565b602060405180830381600087803b1580156115a457600080fd5b505af11580156115b8573d6000803e3d6000fd5b505050506040513d601f19601f820116820180604052508101906115dc9190611e15565b50600260009054906101000a900473ffffffffffffffffffffffffffffffffffffffff1673ffffffffffffffffffffffffffffffffffffffff166323b872dd3330866040518463ffffffff1660e01b815260040161163c939291906120d5565b602060405180830381600087803b15801561165657600080fd5b505af115801561166a573d6000803e3d6000fd5b505050506040513d601f19601f8201168201806040525081019061168e9190611e15565b506000600a60003373ffffffffffffffffffffffffffffffffffffffff1673ffffffffffffffffffffffffffffffffffffffff168152602001908152602001600020600001819055506000600a60003373ffffffffffffffffffffffffffffffffffffffff1673ffffffffffffffffffffffffffffffffffffffff16815260200190815260200160002060030160016101000a81548160ff02191690831515021790555061173a610c46565b611742610a14565b505050565b6000811161178a576040517f08c379a000000000000000000000000000000000000000000000000000000000815260040161178190612268565b60405180910390fd5b600460009054906101000a900473ffffffffffffffffffffffffffffffffffffffff1673ffffffffffffffffffffffffffffffffffffffff163373ffffffffffffffffffffffffffffffffffffffff161461181a576040517f08c379a000000000000000000000000000000000000000000000000000000000815260040161181190612248565b60405180910390fd5b611822610c46565b6000600760020154141561183f57436007600101819055506119ef565b60005b6005805490508110156119e35760006005828154811061188b577f4e487b7100000000000000000000000000000000000000000000000000000000600052603260045260246000fd5b9060005260206000200160009054906101000a900473ffffffffffffffffffffffffffffffffffffffff1690506000600a60008373ffffffffffffffffffffffffffffffffffffffff1673ffffffffffffffffffffffffffffffffffffffff168152602001908152602001600020600001549050600060076002015460648361191491906123de565b61191e91906123ad565b905060006064828761193091906123de565b61193a91906123ad565b905060004390506000600760010154826119549190612438565b90506000818461196491906123de565b905060008111156119c95780600a60008973ffffffffffffffffffffffffffffffffffffffff1673ffffffffffffffffffffffffffffffffffffffff16815260200190815260200160002060010160008282546119c19190612357565b925050819055505b5050505050505080806119db90612585565b915050611842565b50436007600101819055505b50565b6000600a60003373ffffffffffffffffffffffffffffffffffffffff1673ffffffffffffffffffffffffffffffffffffffff16815260200190815260200160002060000154905060008111611a7c576040517f08c379a0000000000000000000000000000000000000000000000000000000008152600401611a7390612208565b60405180910390fd5b600062015180600a60003373ffffffffffffffffffffffffffffffffffffffff1673ffffffffffffffffffffffffffffffffffffffff16815260200190815260200160002060020154611acf9190612357565b905080421015611b14576040517f08c379a0000000000000000000000000000000000000000000000000000000008152600401611b0b90612228565b60405180910390fd5b600160009054906101000a900473ffffffffffffffffffffffffffffffffffffffff1673ffffffffffffffffffffffffffffffffffffffff1663a9059cbb33846040518363ffffffff1660e01b8152600401611b7192919061210c565b602060405180830381600087803b158015611b8b57600080fd5b505af1158015611b9f573d6000803e3d6000fd5b505050506040513d601f19601f82011682018060405250810190611bc39190611e15565b50600260009054906101000a900473ffffffffffffffffffffffffffffffffffffffff1673ffffffffffffffffffffffffffffffffffffffff166323b872dd3330856040518463ffffffff1660e01b8152600401611c23939291906120d5565b602060405180830381600087803b158015611c3d57600080fd5b505af1158015611c51573d6000803e3d6000fd5b505050506040513d601f19601f82011682018060405250810190611c759190611e15565b506000600a60003373ffffffffffffffffffffffffffffffffffffffff1673ffffffffffffffffffffffffffffffffffffffff168152602001908152602001600020600001819055506000600a60003373ffffffffffffffffffffffffffffffffffffffff1673ffffffffffffffffffffffffffffffffffffffff16815260200190815260200160002060030160016101000a81548160ff021916908315150217905550611d21610c46565b611d29610a14565b5050565b601481565b60058181548110611d4257600080fd5b906000526020600020016000915054906101000a900473ffffffffffffffffffffffffffffffffffffffff1681565b600081359050611d808161266c565b92915050565b600081519050611d9581612683565b92915050565b600081359050611daa8161269a565b92915050565b600060208284031215611dc257600080fd5b6000611dd084828501611d71565b91505092915050565b60008060408385031215611dec57600080fd5b6000611dfa85828601611d71565b9250506020611e0b85828601611d9b565b9150509250929050565b600060208284031215611e2757600080fd5b6000611e3584828501611d86565b91505092915050565b600060208284031215611e5057600080fd5b6000611e5e84828501611d9b565b91505092915050565b611e708161246c565b82525050565b611e7f8161247e565b82525050565b611e8e816124b4565b82525050565b611e9d816124d8565b82525050565b611eac816124fc565b82525050565b6000611ebd8261233b565b611ec78185612346565b9350611ed7818560208601612520565b611ee08161265b565b840191505092915050565b6000611ef8601b83612346565b91507f616d6f756e74206d6f7265207468616e204c502062616c616e636500000000006000830152602082019050919050565b6000611f38601f83612346565b91507f616d6f756e74206d6f7265207468616e207265776172642062616c616e6365006000830152602082019050919050565b6000611f78600f83612346565b91507f496e76616c6964206164647265737300000000000000000000000000000000006000830152602082019050919050565b6000611fb8601b83612346565b91507f7374616b696e672062616c616e63652063616e6e6f74206265203000000000006000830152602082019050919050565b6000611ff8601c83612346565b91507f746f6f206561726c7920746f20776974686472617720546f6b656e73000000006000830152602082019050919050565b6000612038601483612346565b91507f63616c6c6572206d757374206265206f776e65720000000000000000000000006000830152602082019050919050565b6000612078601283612346565b91507f616d6f756e742063616e6e6f74206265203000000000000000000000000000006000830152602082019050919050565b6120b4816124aa565b82525050565b60006020820190506120cf6000830184611e67565b92915050565b60006060820190506120ea6000830186611e67565b6120f76020830185611e67565b61210460408301846120ab565b949350505050565b60006040820190506121216000830185611e67565b61212e60208301846120ab565b9392505050565b600060208201905061214a6000830184611e85565b92915050565b60006020820190506121656000830184611e94565b92915050565b60006020820190506121806000830184611ea3565b92915050565b600060208201905081810360008301526121a08184611eb2565b905092915050565b600060208201905081810360008301526121c181611eeb565b9050919050565b600060208201905081810360008301526121e181611f2b565b9050919050565b6000602082019050818103600083015261220181611f6b565b9050919050565b6000602082019050818103600083015261222181611fab565b9050919050565b6000602082019050818103600083015261224181611feb565b9050919050565b600060208201905081810360008301526122618161202b565b9050919050565b600060208201905081810360008301526122818161206b565b9050919050565b600060208201905061229d60008301846120ab565b92915050565b60006060820190506122b860008301866120ab565b6122c560208301856120ab565b6122d260408301846120ab565b949350505050565b600060c0820190506122ef60008301896120ab565b6122fc60208301886120ab565b61230960408301876120ab565b6123166060830186611e76565b6123236080830185611e76565b61233060a08301846120ab565b979650505050505050565b600081519050919050565b600082825260208201905092915050565b6000612362826124aa565b915061236d836124aa565b9250827fffffffffffffffffffffffffffffffffffffffffffffffffffffffffffffffff038211156123a2576123a16125ce565b5b828201905092915050565b60006123b8826124aa565b91506123c3836124aa565b9250826123d3576123d26125fd565b5b828204905092915050565b60006123e9826124aa565b91506123f4836124aa565b9250817fffffffffffffffffffffffffffffffffffffffffffffffffffffffffffffffff048311821515161561242d5761242c6125ce565b5b828202905092915050565b6000612443826124aa565b915061244e836124aa565b925082821015612461576124606125ce565b5b828203905092915050565b60006124778261248a565b9050919050565b60008115159050919050565b600073ffffffffffffffffffffffffffffffffffffffff82169050919050565b6000819050919050565b60006124bf826124c6565b9050919050565b60006124d18261248a565b9050919050565b60006124e3826124ea565b9050919050565b60006124f58261248a565b9050919050565b60006125078261250e565b9050919050565b60006125198261248a565b9050919050565b60005b8381101561253e578082015181840152602081019050612523565b8381111561254d576000848401525b50505050565b6000600282049050600182168061256b57607f821691505b6020821081141561257f5761257e61262c565b5b50919050565b6000612590826124aa565b91507fffffffffffffffffffffffffffffffffffffffffffffffffffffffffffffffff8214156125c3576125c26125ce565b5b600182019050919050565b7f4e487b7100000000000000000000000000000000000000000000000000000000600052601160045260246000fd5b7f4e487b7100000000000000000000000000000000000000000000000000000000600052601260045260246000fd5b7f4e487b7100000000000000000000000000000000000000000000000000000000600052602260045260246000fd5b6000601f19601f8301169050919050565b6126758161246c565b811461268057600080fd5b50565b61268c8161247e565b811461269757600080fd5b50565b6126a3816124aa565b81146126ae57600080fd5b5056fea2646970667358221220eba2ebccb6ab8b50b5a3caf5844a02ade2074d568efec9247472f8603f0b13a564736f6c63430008000033",
  "immutableReferences": {},
  "source": "pragma solidity ^0.8.0;\n\nimport \"./XToken.sol\";\nimport \"./LpXToken.sol\";\nimport \"./PurseToken.sol\";\n\ncontract TokenFarm {\n    string public name = \"X Token Farm\";\n    XToken public xToken;\n    LPXToken public lpXToken;\n    PurseToken public purseToken;\n    address public owner;\n    address[] public stakers;\n    uint256 internal tokenBurnRate = 2;\n    uint256 public constant duration = 1 days;\n    uint256 public constant penaltyRate = 20;\n\n    FarmInfo public farmInfo;\n    mapping(address => StakerInfo) public stakerInfo;\n    \n    struct StakerInfo {\n        uint256 stakingBalance;\n        uint256 rewardBalance;\n        uint256 stakingTimestamp;\n        bool hasStaked;\n        bool isStaking;\n        uint256 poolShareRatio;\n    }\n\n    struct FarmInfo {\n        uint256 blockReward;\n        uint256 lastRewardBlock;  // Last block number that reward distribution occurs.\n        uint256 farmableSupply; // set in init, total amount of tokens farmable\n    }\n\n    constructor(XToken _xToken, LPXToken _lpXToken,PurseToken _purseToken, uint256 _blockReward) public {\n        xToken = _xToken;\n        lpXToken = _lpXToken;\n        purseToken = _purseToken;\n        farmInfo.blockReward = _blockReward;\n        owner = msg.sender;\n    }\n\n    // Stakes Tokens\n    function stakeTokens(uint256 _amount) public {\n        require(_amount > 0, \"amount cannot be 0\");\n        updateRewardTokens();\n        xToken.transferFrom(msg.sender, address(this), _amount); // Stake x token\n        stakerInfo[msg.sender].stakingBalance += _amount; \n        stakerInfo[msg.sender].stakingTimestamp = block.timestamp;\n\n        if (!stakerInfo[msg.sender].hasStaked) {\n            stakers.push(msg.sender);\n        }\n\n        //Update staking status\n        stakerInfo[msg.sender].isStaking = true;\n        stakerInfo[msg.sender].hasStaked = true;\n\n        lpXToken.transfer(msg.sender, _amount);\n        getTotalBalance();\n        getPoolShareRatio();\n    }\n\n    // Unstacking Tokens\n    function unstakeTokens() public {\n        uint256 balance = stakerInfo[msg.sender].stakingBalance;\n        require(balance > 0, \"staking balance cannot be 0\");\n        uint256 end = stakerInfo[msg.sender].stakingTimestamp + duration;\n        require(block.timestamp >= end, \"too early to withdraw Tokens\");\n        xToken.transfer(msg.sender, balance); // withdraw dai token\n        lpXToken.transferFrom(msg.sender, address(this), balance); //return lpX token\n\n        stakerInfo[msg.sender].stakingBalance = 0;\n        stakerInfo[msg.sender].isStaking = false;\n        getTotalBalance();\n        getPoolShareRatio();\n    }\n\n    // Issuing Tokens\n    function issueTokens(uint256 _amount) public {\n        require(_amount > 0, \"amount cannot be 0\");\n\n        // Only owner can call this function\n        require(msg.sender == owner, \"caller must be owner\");\n        getTotalBalance();\n\n        if( farmInfo.farmableSupply == 0){\n            farmInfo.lastRewardBlock = block.number;\n            return;\n        }\n        \n        //Issue tokens to all stakers\n        for (uint256 i = 0; i < stakers.length; i++) {\n            address recipient = stakers[i];\n            uint256 balance = stakerInfo[recipient].stakingBalance;\n            uint256 ratio = (balance * 100) / farmInfo.farmableSupply;\n            uint256 amount = (_amount * ratio) / 100;\n\n            uint256 blknumbernow = block.number;\n            uint256 diffofblk = blknumbernow - farmInfo.lastRewardBlock;\n            uint256 totalamount = amount * diffofblk;\n\n            if (totalamount > 0) {\n                stakerInfo[recipient].rewardBalance += totalamount; //Update reward balance\n            }\n        }\n        farmInfo.lastRewardBlock = block.number;\n    }\n\n    // Issuing Tokens for internal\n    function updateRewardTokens() public {\n\n        getTotalBalance();\n\n\n        if( farmInfo.farmableSupply == 0){\n            farmInfo.lastRewardBlock = block.number;\n            return;\n        }\n        //update reward tokens to all stakers\n        for (uint256 i = 0; i < stakers.length; i++) {\n            address recipient = stakers[i];\n            uint256 balance = stakerInfo[recipient].stakingBalance;\n            uint256 ratio = (balance * 100) / farmInfo.farmableSupply;\n            uint256 amount = farmInfo.blockReward * ratio / 100;\n            \n            uint256 blknumbernow = block.number;\n            uint256 diffofblk = blknumbernow - farmInfo.lastRewardBlock;\n            uint256 totalamount = amount * diffofblk;\n\n            if (totalamount > 0) {\n                stakerInfo[recipient].rewardBalance += totalamount; //Update reward balance\n            }\n        }\n        farmInfo.lastRewardBlock = block.number;\n    }\n    \n    // Emergency Unstacking Tokens to withdraw LP tokens with penalty\n    function emergencyUnstakeTokens() public {\n        uint256 balance = stakerInfo[msg.sender].stakingBalance;\n        require(balance > 0, \"staking balance cannot be 0\");\n        uint256 penalty = balance * penaltyRate/100;\n        uint256 remainingBalance = balance - penalty;\n        xToken.transfer(msg.sender, remainingBalance); // Unstake x token\n        xToken.transfer(address(this), penalty); // Unstake penalty x token\n        lpXToken.transferFrom(msg.sender, address(this), balance); //return lpx token\n\n        stakerInfo[msg.sender].stakingBalance = 0;\n        stakerInfo[msg.sender].isStaking = false;\n        getTotalBalance();\n        getPoolShareRatio();\n    }\n    \n    function getTotalBalance() public {\n        uint256 totalBalance;\n        for (uint256 i = 0; i < stakers.length; i++) {\n            address recipient = stakers[i];\n            uint256 balance = stakerInfo[recipient].stakingBalance;\n            totalBalance = balance + totalBalance;\n        }\n        farmInfo.farmableSupply = totalBalance;\n    }\n    \n    function getPoolShareRatio() public {\n        if( farmInfo.farmableSupply == 0){\n            for (uint256 i = 0; i < stakers.length; i++) {\n                address recipient = stakers[i];\n                stakerInfo[recipient].poolShareRatio = 0;\n            }\n        }\n        else {\n            for (uint256 i = 0; i < stakers.length; i++) {\n                address recipient = stakers[i];\n                uint256 balance = stakerInfo[recipient].stakingBalance;\n                uint256 ratio = (balance * 100) / farmInfo.farmableSupply;\n                stakerInfo[recipient].poolShareRatio = ratio;\n            }\n        }\n    }\n\n    function transferOwnership(address _to ,uint256 _amount) public {\n        require(_amount > 0, \"amount cannot be 0\");\n        require(_to == address(_to),\"Invalid address\");\n        uint256 balance = stakerInfo[msg.sender].stakingBalance;\n        require(_amount <= balance, \"amount more than LP balance\");\n        updateRewardTokens();\n        lpXToken.transferFrom(msg.sender, _to, _amount); //transfer lpXToken\n        stakerInfo[msg.sender].stakingBalance -= _amount;\n        \n        stakerInfo[_to].stakingBalance += (_amount); //Update staking balance\n        stakerInfo[_to].stakingTimestamp = stakerInfo[msg.sender].stakingTimestamp;\n\n        if (!stakerInfo[_to].hasStaked) {\n            stakers.push(_to);\n        }\n\n        //Update staking status\n        stakerInfo[_to].isStaking = true;\n        stakerInfo[_to].hasStaked = true;\n        \n        getTotalBalance();\n        getPoolShareRatio();\n    }    \n    \n    function redeemToken(uint256 _amount) public{\n        require(_amount > 0, \"amount cannot be 0\"); \n        uint256 balance = stakerInfo[msg.sender].rewardBalance;\n        require(_amount <= balance, \"amount more than reward balance\");\n        purseToken.transfer(msg.sender, _amount* tokenBurnRate); // Redeem reward token\n    }\n}",
  "sourcePath": "/home/ubuntu/Desktop/Blockchain Talent Program/YieldFarming/Yield_Farming_v3/src/contracts/TokenFarm_compund.sol",
  "compiler": {
    "name": "solc",
    "version": "0.8.0+commit.c7dfd78e.Emscripten.clang"
  },
  "schemaVersion": "3.4.1",
  "updatedAt": "2021-07-08T16:16:55.339Z",
  "networkType": "ethereum",
  "devdoc": {
    "kind": "dev",
    "methods": {},
    "version": 1
  },
  "userdoc": {
    "kind": "user",
    "methods": {},
    "version": 1
  }
}