{
  "contractName": "TokenFarm_ori",
  "abi": [
    {
      "inputs": [
        {
          "internalType": "contract XToken",
          "name": "_xToken",
          "type": "address"
        },
        {
          "internalType": "contract DaiToken",
          "name": "_daiToken",
          "type": "address"
        }
      ],
      "stateMutability": "nonpayable",
      "type": "constructor"
    },
    {
      "inputs": [],
      "name": "daiToken",
      "outputs": [
        {
          "internalType": "contract DaiToken",
          "name": "",
          "type": "address"
        }
      ],
      "stateMutability": "view",
      "type": "function"
    },
    {
      "inputs": [
        {
          "internalType": "address",
          "name": "",
          "type": "address"
        }
      ],
      "name": "hasStaked",
      "outputs": [
        {
          "internalType": "bool",
          "name": "",
          "type": "bool"
        }
      ],
      "stateMutability": "view",
      "type": "function"
    },
    {
      "inputs": [
        {
          "internalType": "address",
          "name": "",
          "type": "address"
        }
      ],
      "name": "isStaking",
      "outputs": [
        {
          "internalType": "bool",
          "name": "",
          "type": "bool"
        }
      ],
      "stateMutability": "view",
      "type": "function"
    },
    {
      "inputs": [],
      "name": "name",
      "outputs": [
        {
          "internalType": "string",
          "name": "",
          "type": "string"
        }
      ],
      "stateMutability": "view",
      "type": "function"
    },
    {
      "inputs": [],
      "name": "owner",
      "outputs": [
        {
          "internalType": "address",
          "name": "",
          "type": "address"
        }
      ],
      "stateMutability": "view",
      "type": "function"
    },
    {
      "inputs": [
        {
          "internalType": "uint256",
          "name": "",
          "type": "uint256"
        }
      ],
      "name": "stakers",
      "outputs": [
        {
          "internalType": "address",
          "name": "",
          "type": "address"
        }
      ],
      "stateMutability": "view",
      "type": "function"
    },
    {
      "inputs": [
        {
          "internalType": "address",
          "name": "",
          "type": "address"
        }
      ],
      "name": "stakingBalance",
      "outputs": [
        {
          "internalType": "uint256",
          "name": "",
          "type": "uint256"
        }
      ],
      "stateMutability": "view",
      "type": "function"
    },
    {
      "inputs": [],
      "name": "xToken",
      "outputs": [
        {
          "internalType": "contract XToken",
          "name": "",
          "type": "address"
        }
      ],
      "stateMutability": "view",
      "type": "function"
    },
    {
      "inputs": [
        {
          "internalType": "uint256",
          "name": "_amount",
          "type": "uint256"
        }
      ],
      "name": "stakeTokens",
      "outputs": [],
      "stateMutability": "nonpayable",
      "type": "function"
    },
    {
      "inputs": [],
      "name": "unstakeTokens",
      "outputs": [],
      "stateMutability": "nonpayable",
      "type": "function"
    },
    {
      "inputs": [],
      "name": "issueTokens",
      "outputs": [],
      "stateMutability": "nonpayable",
      "type": "function"
    }
  ],
  "bytecode": "0x60806040526040518060400160405280600c81526020017f5820546f6b656e204661726d0000000000000000000000000000000000000000815250600090805190602001906200005192919062000150565b503480156200005f57600080fd5b50604051620014033803806200140383398181016040528101906200008591906200022e565b81600160006101000a81548173ffffffffffffffffffffffffffffffffffffffff021916908373ffffffffffffffffffffffffffffffffffffffff16021790555080600260006101000a81548173ffffffffffffffffffffffffffffffffffffffff021916908373ffffffffffffffffffffffffffffffffffffffff16021790555033600360006101000a81548173ffffffffffffffffffffffffffffffffffffffff021916908373ffffffffffffffffffffffffffffffffffffffff160217905550505062000364565b8280546200015e90620002cb565b90600052602060002090601f016020900481019282620001825760008555620001ce565b82601f106200019d57805160ff1916838001178555620001ce565b82800160010185558215620001ce579182015b82811115620001cd578251825591602001919060010190620001b0565b5b509050620001dd9190620001e1565b5090565b5b80821115620001fc576000816000905550600101620001e2565b5090565b600081519050620002118162000330565b92915050565b60008151905062000228816200034a565b92915050565b600080604083850312156200024257600080fd5b6000620002528582860162000217565b9250506020620002658582860162000200565b9150509250929050565b60006200027c82620002ab565b9050919050565b600062000290826200026f565b9050919050565b6000620002a4826200026f565b9050919050565b600073ffffffffffffffffffffffffffffffffffffffff82169050919050565b60006002820490506001821680620002e457607f821691505b60208210811415620002fb57620002fa62000301565b5b50919050565b7f4e487b7100000000000000000000000000000000000000000000000000000000600052602260045260246000fd5b6200033b8162000283565b81146200034757600080fd5b50565b620003558162000297565b81146200036157600080fd5b50565b61108f80620003746000396000f3fe608060405234801561001057600080fd5b50600436106100a95760003560e01c80637547c7a3116100715780637547c7a3146101545780638da5cb5b14610170578063a5ce413b1461018e578063be22f54614610198578063c93c8f34146101b6578063fd5e6dd1146101e6576100a9565b806306fdde03146100ae578063088b699e146100cc57806345bc78ab146100ea57806360ab58521461011a5780636f49712b14610124575b600080fd5b6100b6610216565b6040516100c39190610d58565b60405180910390f35b6100d46102a4565b6040516100e19190610d3d565b60405180910390f35b61010460048036038101906100ff9190610acd565b6102ca565b6040516101119190610dda565b60405180910390f35b6101226102e2565b005b61013e60048036038101906101399190610acd565b610501565b60405161014b9190610d07565b60405180910390f35b61016e60048036038101906101699190610b1f565b610521565b005b61017861080c565b6040516101859190610c8c565b60405180910390f35b610196610832565b005b6101a0610a09565b6040516101ad9190610d22565b60405180910390f35b6101d060048036038101906101cb9190610acd565b610a2f565b6040516101dd9190610d07565b60405180910390f35b61020060048036038101906101fb9190610b1f565b610a4f565b60405161020d9190610c8c565b60405180910390f35b6000805461022390610f2a565b80601f016020809104026020016040519081016040528092919081815260200182805461024f90610f2a565b801561029c5780601f106102715761010080835404028352916020019161029c565b820191906000526020600020905b81548152906001019060200180831161027f57829003601f168201915b505050505081565b600160009054906101000a900473ffffffffffffffffffffffffffffffffffffffff1681565b60056020528060005260406000206000915090505481565b600360009054906101000a900473ffffffffffffffffffffffffffffffffffffffff1673ffffffffffffffffffffffffffffffffffffffff163373ffffffffffffffffffffffffffffffffffffffff1614610372576040517f08c379a000000000000000000000000000000000000000000000000000000000815260040161036990610d9a565b60405180910390fd5b60005b6004805490508110156104fe576000600482815481106103be577f4e487b7100000000000000000000000000000000000000000000000000000000600052603260045260246000fd5b9060005260206000200160009054906101000a900473ffffffffffffffffffffffffffffffffffffffff1690506000600560008373ffffffffffffffffffffffffffffffffffffffff1673ffffffffffffffffffffffffffffffffffffffff16815260200190815260200160002054905060008111156104e957600160009054906101000a900473ffffffffffffffffffffffffffffffffffffffff1673ffffffffffffffffffffffffffffffffffffffff1663a9059cbb83836040518363ffffffff1660e01b8152600401610495929190610cde565b602060405180830381600087803b1580156104af57600080fd5b505af11580156104c3573d6000803e3d6000fd5b505050506040513d601f19601f820116820180604052508101906104e79190610af6565b505b505080806104f690610f5c565b915050610375565b50565b60076020528060005260406000206000915054906101000a900460ff1681565b60008111610564576040517f08c379a000000000000000000000000000000000000000000000000000000000815260040161055b90610dba565b60405180910390fd5b600260009054906101000a900473ffffffffffffffffffffffffffffffffffffffff1673ffffffffffffffffffffffffffffffffffffffff166323b872dd3330846040518463ffffffff1660e01b81526004016105c393929190610ca7565b602060405180830381600087803b1580156105dd57600080fd5b505af11580156105f1573d6000803e3d6000fd5b505050506040513d601f19601f820116820180604052508101906106159190610af6565b5080600560003373ffffffffffffffffffffffffffffffffffffffff1673ffffffffffffffffffffffffffffffffffffffff168152602001908152602001600020546106619190610e11565b600560003373ffffffffffffffffffffffffffffffffffffffff1673ffffffffffffffffffffffffffffffffffffffff16815260200190815260200160002081905550600660003373ffffffffffffffffffffffffffffffffffffffff1673ffffffffffffffffffffffffffffffffffffffff16815260200190815260200160002060009054906101000a900460ff16610759576004339080600181540180825580915050600190039060005260206000200160009091909190916101000a81548173ffffffffffffffffffffffffffffffffffffffff021916908373ffffffffffffffffffffffffffffffffffffffff1602179055505b6001600760003373ffffffffffffffffffffffffffffffffffffffff1673ffffffffffffffffffffffffffffffffffffffff16815260200190815260200160002060006101000a81548160ff0219169083151502179055506001600660003373ffffffffffffffffffffffffffffffffffffffff1673ffffffffffffffffffffffffffffffffffffffff16815260200190815260200160002060006101000a81548160ff02191690831515021790555050565b600360009054906101000a900473ffffffffffffffffffffffffffffffffffffffff1681565b6000600560003373ffffffffffffffffffffffffffffffffffffffff1673ffffffffffffffffffffffffffffffffffffffff168152602001908152602001600020549050600081116108b9576040517f08c379a00000000000000000000000000000000000000000000000000000000081526004016108b090610d7a565b60405180910390fd5b600260009054906101000a900473ffffffffffffffffffffffffffffffffffffffff1673ffffffffffffffffffffffffffffffffffffffff1663a9059cbb33836040518363ffffffff1660e01b8152600401610916929190610cde565b602060405180830381600087803b15801561093057600080fd5b505af1158015610944573d6000803e3d6000fd5b505050506040513d601f19601f820116820180604052508101906109689190610af6565b506000600560003373ffffffffffffffffffffffffffffffffffffffff1673ffffffffffffffffffffffffffffffffffffffff168152602001908152602001600020819055506000600760003373ffffffffffffffffffffffffffffffffffffffff1673ffffffffffffffffffffffffffffffffffffffff16815260200190815260200160002060006101000a81548160ff02191690831515021790555050565b600260009054906101000a900473ffffffffffffffffffffffffffffffffffffffff1681565b60066020528060005260406000206000915054906101000a900460ff1681565b60048181548110610a5f57600080fd5b906000526020600020016000915054906101000a900473ffffffffffffffffffffffffffffffffffffffff1681565b600081359050610a9d81611014565b92915050565b600081519050610ab28161102b565b92915050565b600081359050610ac781611042565b92915050565b600060208284031215610adf57600080fd5b6000610aed84828501610a8e565b91505092915050565b600060208284031215610b0857600080fd5b6000610b1684828501610aa3565b91505092915050565b600060208284031215610b3157600080fd5b6000610b3f84828501610ab8565b91505092915050565b610b5181610e67565b82525050565b610b6081610e79565b82525050565b610b6f81610eaf565b82525050565b610b7e81610ed3565b82525050565b6000610b8f82610df5565b610b998185610e00565b9350610ba9818560208601610ef7565b610bb281611003565b840191505092915050565b6000610bca601b83610e00565b91507f7374616b696e672062616c616e63652063616e6e6f74206265203000000000006000830152602082019050919050565b6000610c0a601483610e00565b91507f63616c6c6572206d757374206265206f776e65720000000000000000000000006000830152602082019050919050565b6000610c4a601283610e00565b91507f616d6f756e742063616e6e6f74206265203000000000000000000000000000006000830152602082019050919050565b610c8681610ea5565b82525050565b6000602082019050610ca16000830184610b48565b92915050565b6000606082019050610cbc6000830186610b48565b610cc96020830185610b48565b610cd66040830184610c7d565b949350505050565b6000604082019050610cf36000830185610b48565b610d006020830184610c7d565b9392505050565b6000602082019050610d1c6000830184610b57565b92915050565b6000602082019050610d376000830184610b66565b92915050565b6000602082019050610d526000830184610b75565b92915050565b60006020820190508181036000830152610d728184610b84565b905092915050565b60006020820190508181036000830152610d9381610bbd565b9050919050565b60006020820190508181036000830152610db381610bfd565b9050919050565b60006020820190508181036000830152610dd381610c3d565b9050919050565b6000602082019050610def6000830184610c7d565b92915050565b600081519050919050565b600082825260208201905092915050565b6000610e1c82610ea5565b9150610e2783610ea5565b9250827fffffffffffffffffffffffffffffffffffffffffffffffffffffffffffffffff03821115610e5c57610e5b610fa5565b5b828201905092915050565b6000610e7282610e85565b9050919050565b60008115159050919050565b600073ffffffffffffffffffffffffffffffffffffffff82169050919050565b6000819050919050565b6000610eba82610ec1565b9050919050565b6000610ecc82610e85565b9050919050565b6000610ede82610ee5565b9050919050565b6000610ef082610e85565b9050919050565b60005b83811015610f15578082015181840152602081019050610efa565b83811115610f24576000848401525b50505050565b60006002820490506001821680610f4257607f821691505b60208210811415610f5657610f55610fd4565b5b50919050565b6000610f6782610ea5565b91507fffffffffffffffffffffffffffffffffffffffffffffffffffffffffffffffff821415610f9a57610f99610fa5565b5b600182019050919050565b7f4e487b7100000000000000000000000000000000000000000000000000000000600052601160045260246000fd5b7f4e487b7100000000000000000000000000000000000000000000000000000000600052602260045260246000fd5b6000601f19601f8301169050919050565b61101d81610e67565b811461102857600080fd5b50565b61103481610e79565b811461103f57600080fd5b50565b61104b81610ea5565b811461105657600080fd5b5056fea2646970667358221220ad168ad72f25e7cd83e483a26c8151f3783819f63f7719f4953656cacc3d054d64736f6c63430008000033",
  "immutableReferences": {},
  "source": "pragma solidity ^0.8.0;\n\nimport \"./XToken.sol\";\nimport \"./DaiToken.sol\";\n\ncontract TokenFarm_ori {\n    string public name = \"X Token Farm\";\n    XToken public xToken;\n    DaiToken public daiToken;\n    address public owner;\n\n    address[] public stakers;\n    mapping(address => uint256) public stakingBalance;\n    mapping(address => bool) public hasStaked;\n    mapping(address => bool) public isStaking;\n\n    constructor(XToken _xToken, DaiToken _daiToken) public {\n        xToken = _xToken;\n        daiToken = _daiToken;\n        owner = msg.sender;\n    }\n\n    // Stakes Tokens\n    function stakeTokens(uint256 _amount) public {\n        require(_amount > 0, \"amount cannot be 0\");\n\n        daiToken.transferFrom(msg.sender, address(this), _amount); // Stake dai token\n        stakingBalance[msg.sender] = stakingBalance[msg.sender] + _amount; //Update staking balance\n\n        if (!hasStaked[msg.sender]) {\n            stakers.push(msg.sender);\n        }\n\n        //Update staking status\n        isStaking[msg.sender] = true;\n        hasStaked[msg.sender] = true;\n    }\n\n    // Unstacking Tokens\n    function unstakeTokens() public {\n        uint balance = stakingBalance[msg.sender];\n\n        require(balance >0,\"staking balance cannot be 0\");\n        daiToken.transfer(msg.sender, balance); // Stake dai token\n\n        stakingBalance[msg.sender] = 0;\n        isStaking[msg.sender] = false;\n    }\n\n    // Issuing Tokens\n    function issueTokens() public {\n        // Only owner can call this function\n        require(msg.sender == owner, \"caller must be owner\");\n        \n        //Issue tokens to all stakers\n        for (uint256 i = 0; i < stakers.length; i++) {\n            address recipient = stakers[i];\n            uint256 balance = stakingBalance[recipient];\n            if(balance > 0){\n                xToken.transfer(recipient, balance);    \n            }\n        }\n    }\n}\n",
  "sourcePath": "/home/ubuntu/Desktop/Blockchain Talent Program/YieldFarming/Yield_Farming_compound/src/contracts/TokenFarm_ori.sol",
  "compiler": {
    "name": "solc",
    "version": "0.8.0+commit.c7dfd78e.Emscripten.clang"
  },
  "schemaVersion": "3.4.1",
  "updatedAt": "2021-06-30T06:44:50.049Z",
  "devdoc": {
    "kind": "dev",
    "methods": {},
    "version": 1
  },
  "userdoc": {
    "kind": "user",
    "methods": {},
    "version": 1
  }
}