{
  "contractName": "XTokenBsc",
  "abi": [
    {
      "inputs": [],
      "stateMutability": "nonpayable",
      "type": "constructor"
    },
    {
      "anonymous": false,
      "inputs": [
        {
          "indexed": true,
          "internalType": "address",
          "name": "_owner",
          "type": "address"
        },
        {
          "indexed": true,
          "internalType": "address",
          "name": "_spender",
          "type": "address"
        },
        {
          "indexed": false,
          "internalType": "uint256",
          "name": "_value",
          "type": "uint256"
        }
      ],
      "name": "Approval",
      "type": "event"
    },
    {
      "anonymous": false,
      "inputs": [
        {
          "indexed": true,
          "internalType": "address",
          "name": "_from",
          "type": "address"
        },
        {
          "indexed": true,
          "internalType": "address",
          "name": "_to",
          "type": "address"
        },
        {
          "indexed": false,
          "internalType": "uint256",
          "name": "_value",
          "type": "uint256"
        }
      ],
      "name": "Transfer",
      "type": "event"
    },
    {
      "inputs": [
        {
          "internalType": "address",
          "name": "",
          "type": "address"
        },
        {
          "internalType": "address",
          "name": "",
          "type": "address"
        }
      ],
      "name": "allowance",
      "outputs": [
        {
          "internalType": "uint256",
          "name": "",
          "type": "uint256"
        }
      ],
      "stateMutability": "view",
      "type": "function",
      "constant": true
    },
    {
      "inputs": [
        {
          "internalType": "address",
          "name": "",
          "type": "address"
        }
      ],
      "name": "balanceOf",
      "outputs": [
        {
          "internalType": "uint256",
          "name": "",
          "type": "uint256"
        }
      ],
      "stateMutability": "view",
      "type": "function",
      "constant": true
    },
    {
      "inputs": [],
      "name": "decimals",
      "outputs": [
        {
          "internalType": "uint8",
          "name": "",
          "type": "uint8"
        }
      ],
      "stateMutability": "view",
      "type": "function",
      "constant": true
    },
    {
      "inputs": [],
      "name": "name",
      "outputs": [
        {
          "internalType": "string",
          "name": "",
          "type": "string"
        }
      ],
      "stateMutability": "view",
      "type": "function",
      "constant": true
    },
    {
      "inputs": [],
      "name": "owner",
      "outputs": [
        {
          "internalType": "address",
          "name": "",
          "type": "address"
        }
      ],
      "stateMutability": "view",
      "type": "function",
      "constant": true
    },
    {
      "inputs": [],
      "name": "symbol",
      "outputs": [
        {
          "internalType": "string",
          "name": "",
          "type": "string"
        }
      ],
      "stateMutability": "view",
      "type": "function",
      "constant": true
    },
    {
      "inputs": [],
      "name": "totalSupply",
      "outputs": [
        {
          "internalType": "uint256",
          "name": "",
          "type": "uint256"
        }
      ],
      "stateMutability": "view",
      "type": "function",
      "constant": true
    },
    {
      "inputs": [
        {
          "internalType": "address",
          "name": "newAdmin",
          "type": "address"
        }
      ],
      "name": "updateAdmin",
      "outputs": [],
      "stateMutability": "nonpayable",
      "type": "function"
    },
    {
      "inputs": [
        {
          "internalType": "address",
          "name": "_to",
          "type": "address"
        },
        {
          "internalType": "uint256",
          "name": "_value",
          "type": "uint256"
        }
      ],
      "name": "transfer",
      "outputs": [
        {
          "internalType": "bool",
          "name": "success",
          "type": "bool"
        }
      ],
      "stateMutability": "nonpayable",
      "type": "function"
    },
    {
      "inputs": [
        {
          "internalType": "address",
          "name": "_spender",
          "type": "address"
        },
        {
          "internalType": "uint256",
          "name": "_value",
          "type": "uint256"
        }
      ],
      "name": "approve",
      "outputs": [
        {
          "internalType": "bool",
          "name": "success",
          "type": "bool"
        }
      ],
      "stateMutability": "nonpayable",
      "type": "function"
    },
    {
      "inputs": [
        {
          "internalType": "address",
          "name": "_from",
          "type": "address"
        },
        {
          "internalType": "address",
          "name": "_to",
          "type": "address"
        },
        {
          "internalType": "uint256",
          "name": "_value",
          "type": "uint256"
        }
      ],
      "name": "transferFrom",
      "outputs": [
        {
          "internalType": "bool",
          "name": "success",
          "type": "bool"
        }
      ],
      "stateMutability": "nonpayable",
      "type": "function"
    },
    {
      "inputs": [
        {
          "internalType": "address",
          "name": "_account",
          "type": "address"
        },
        {
          "internalType": "uint256",
          "name": "_amount",
          "type": "uint256"
        }
      ],
      "name": "mint",
      "outputs": [],
      "stateMutability": "nonpayable",
      "type": "function"
    },
    {
      "inputs": [
        {
          "internalType": "address",
          "name": "_account",
          "type": "address"
        },
        {
          "internalType": "uint256",
          "name": "_amount",
          "type": "uint256"
        }
      ],
      "name": "burn",
      "outputs": [],
      "stateMutability": "nonpayable",
      "type": "function"
    }
  ],
  "bytecode": "0x60806040526040518060400160405280600781526020017f5820546f6b656e0000000000000000000000000000000000000000000000000081525060009080519060200190620000519291906200012d565b506040518060400160405280600181526020017f5800000000000000000000000000000000000000000000000000000000000000815250600190805190602001906200009f9291906200012d565b5069d3c21bcecceda10000006002556012600360006101000a81548160ff021916908360ff16021790555069043c33c1937564800000600455348015620000e557600080fd5b5033600560006101000a81548173ffffffffffffffffffffffffffffffffffffffff021916908373ffffffffffffffffffffffffffffffffffffffff16021790555062000242565b8280546200013b90620001dd565b90600052602060002090601f0160209004810192826200015f5760008555620001ab565b82601f106200017a57805160ff1916838001178555620001ab565b82800160010185558215620001ab579182015b82811115620001aa5782518255916020019190600101906200018d565b5b509050620001ba9190620001be565b5090565b5b80821115620001d9576000816000905550600101620001bf565b5090565b60006002820490506001821680620001f657607f821691505b602082108114156200020d576200020c62000213565b5b50919050565b7f4e487b7100000000000000000000000000000000000000000000000000000000600052602260045260246000fd5b6117ee80620002526000396000f3fe608060405234801561001057600080fd5b50600436106100cf5760003560e01c806370a082311161008c5780639dc29fac116100665780639dc29fac14610216578063a9059cbb14610232578063dd62ed3e14610262578063e2f273bd14610292576100cf565b806370a08231146101aa5780638da5cb5b146101da57806395d89b41146101f8576100cf565b806306fdde03146100d4578063095ea7b3146100f257806318160ddd1461012257806323b872dd14610140578063313ce5671461017057806340c10f191461018e575b600080fd5b6100dc6102ae565b6040516100e99190611443565b60405180910390f35b61010c60048036038101906101079190611190565b61033c565b6040516101199190611428565b60405180910390f35b61012a61042e565b6040516101379190611525565b60405180910390f35b61015a60048036038101906101559190611141565b610434565b6040516101679190611428565b60405180910390f35b6101786106c9565b6040516101859190611540565b60405180910390f35b6101a860048036038101906101a39190611190565b6106dc565b005b6101c460048036038101906101bf91906110dc565b6108b5565b6040516101d19190611525565b60405180910390f35b6101e26108cd565b6040516101ef919061140d565b60405180910390f35b6102006108f3565b60405161020d9190611443565b60405180910390f35b610230600480360381019061022b9190611190565b610981565b005b61024c60048036038101906102479190611190565b610be2565b6040516102599190611428565b60405180910390f35b61027c60048036038101906102779190611105565b610d5a565b6040516102899190611525565b60405180910390f35b6102ac60048036038101906102a791906110dc565b610d7f565b005b600080546102bb906116ba565b80601f01602080910402602001604051908101604052809291908181526020018280546102e7906116ba565b80156103345780601f1061030957610100808354040283529160200191610334565b820191906000526020600020905b81548152906001019060200180831161031757829003601f168201915b505050505081565b600081600760003373ffffffffffffffffffffffffffffffffffffffff1673ffffffffffffffffffffffffffffffffffffffff16815260200190815260200160002060008573ffffffffffffffffffffffffffffffffffffffff1673ffffffffffffffffffffffffffffffffffffffff168152602001908152602001600020819055508273ffffffffffffffffffffffffffffffffffffffff163373ffffffffffffffffffffffffffffffffffffffff167f8c5be1e5ebec7d5bd14f71427d1e84f3dd0314c0f7b2291e5b200ac8c7c3b9258460405161041c9190611525565b60405180910390a36001905092915050565b60025481565b6000600660008573ffffffffffffffffffffffffffffffffffffffff1673ffffffffffffffffffffffffffffffffffffffff1681526020019081526020016000205482111561048257600080fd5b600760008573ffffffffffffffffffffffffffffffffffffffff1673ffffffffffffffffffffffffffffffffffffffff16815260200190815260200160002060003373ffffffffffffffffffffffffffffffffffffffff1673ffffffffffffffffffffffffffffffffffffffff1681526020019081526020016000205482111561050b57600080fd5b60006105178386610e53565b905080600660008773ffffffffffffffffffffffffffffffffffffffff1673ffffffffffffffffffffffffffffffffffffffff168152602001908152602001600020600082825461056891906115fe565b9250508190555080600660008673ffffffffffffffffffffffffffffffffffffffff1673ffffffffffffffffffffffffffffffffffffffff16815260200190815260200160002060008282546105be9190611577565b9250508190555082600760008773ffffffffffffffffffffffffffffffffffffffff1673ffffffffffffffffffffffffffffffffffffffff16815260200190815260200160002060003373ffffffffffffffffffffffffffffffffffffffff1673ffffffffffffffffffffffffffffffffffffffff168152602001908152602001600020600082825461065191906115fe565b925050819055508373ffffffffffffffffffffffffffffffffffffffff168573ffffffffffffffffffffffffffffffffffffffff167fddf252ad1be2c89b69c2b068fc378daa952ba7f163c4a11628f55a4df523b3ef856040516106b59190611525565b60405180910390a360019150509392505050565b600360009054906101000a900460ff1681565b600560009054906101000a900473ffffffffffffffffffffffffffffffffffffffff1673ffffffffffffffffffffffffffffffffffffffff163373ffffffffffffffffffffffffffffffffffffffff161461076c576040517f08c379a000000000000000000000000000000000000000000000000000000000815260040161076390611485565b60405180910390fd5b600073ffffffffffffffffffffffffffffffffffffffff168273ffffffffffffffffffffffffffffffffffffffff1614156107dc576040517f08c379a00000000000000000000000000000000000000000000000000000000081526004016107d390611505565b60405180910390fd5b80600660008473ffffffffffffffffffffffffffffffffffffffff1673ffffffffffffffffffffffffffffffffffffffff168152602001908152602001600020600082825461082b9190611577565b9250508190555080600260008282546108449190611577565b925050819055508173ffffffffffffffffffffffffffffffffffffffff16600073ffffffffffffffffffffffffffffffffffffffff167fddf252ad1be2c89b69c2b068fc378daa952ba7f163c4a11628f55a4df523b3ef836040516108a99190611525565b60405180910390a35050565b60066020528060005260406000206000915090505481565b600560009054906101000a900473ffffffffffffffffffffffffffffffffffffffff1681565b60018054610900906116ba565b80601f016020809104026020016040519081016040528092919081815260200182805461092c906116ba565b80156109795780601f1061094e57610100808354040283529160200191610979565b820191906000526020600020905b81548152906001019060200180831161095c57829003601f168201915b505050505081565b600560009054906101000a900473ffffffffffffffffffffffffffffffffffffffff1673ffffffffffffffffffffffffffffffffffffffff163373ffffffffffffffffffffffffffffffffffffffff1614610a11576040517f08c379a0000000000000000000000000000000000000000000000000000000008152600401610a08906114a5565b60405180910390fd5b600073ffffffffffffffffffffffffffffffffffffffff168273ffffffffffffffffffffffffffffffffffffffff161415610a81576040517f08c379a0000000000000000000000000000000000000000000000000000000008152600401610a78906114e5565b60405180910390fd5b6000600660008473ffffffffffffffffffffffffffffffffffffffff1673ffffffffffffffffffffffffffffffffffffffff16815260200190815260200160002054905081811015610b08576040517f08c379a0000000000000000000000000000000000000000000000000000000008152600401610aff90611465565b60405180910390fd5b81600660008573ffffffffffffffffffffffffffffffffffffffff1673ffffffffffffffffffffffffffffffffffffffff1681526020019081526020016000206000828254610b5791906115fe565b925050819055508160026000828254610b7091906115fe565b92505081905550600073ffffffffffffffffffffffffffffffffffffffff168373ffffffffffffffffffffffffffffffffffffffff167fddf252ad1be2c89b69c2b068fc378daa952ba7f163c4a11628f55a4df523b3ef84604051610bd59190611525565b60405180910390a3505050565b600081600660003373ffffffffffffffffffffffffffffffffffffffff1673ffffffffffffffffffffffffffffffffffffffff168152602001908152602001600020541015610c3057600080fd5b6000610c3c8333610e53565b905080600660003373ffffffffffffffffffffffffffffffffffffffff1673ffffffffffffffffffffffffffffffffffffffff1681526020019081526020016000206000828254610c8d91906115fe565b9250508190555080600660008673ffffffffffffffffffffffffffffffffffffffff1673ffffffffffffffffffffffffffffffffffffffff1681526020019081526020016000206000828254610ce39190611577565b925050819055508373ffffffffffffffffffffffffffffffffffffffff163373ffffffffffffffffffffffffffffffffffffffff167fddf252ad1be2c89b69c2b068fc378daa952ba7f163c4a11628f55a4df523b3ef83604051610d479190611525565b60405180910390a3600191505092915050565b6007602052816000526040600020602052806000526040600020600091509150505481565b600560009054906101000a900473ffffffffffffffffffffffffffffffffffffffff1673ffffffffffffffffffffffffffffffffffffffff163373ffffffffffffffffffffffffffffffffffffffff1614610e0f576040517f08c379a0000000000000000000000000000000000000000000000000000000008152600401610e06906114c5565b60405180910390fd5b80600560006101000a81548173ffffffffffffffffffffffffffffffffffffffff021916908373ffffffffffffffffffffffffffffffffffffffff16021790555050565b600080600090506000610e6585610e94565b90506000811115610e7b57610e7a8482610ee1565b5b8085610e8791906115fe565b9150819250505092915050565b600080600090506004546002541115610ed857600283610eb491906115cd565b90506000600454600254610ec891906115fe565b905080821115610ed6578091505b505b80915050919050565b600073ffffffffffffffffffffffffffffffffffffffff168273ffffffffffffffffffffffffffffffffffffffff161415610f51576040517f08c379a0000000000000000000000000000000000000000000000000000000008152600401610f48906114e5565b60405180910390fd5b6000600660008473ffffffffffffffffffffffffffffffffffffffff1673ffffffffffffffffffffffffffffffffffffffff16815260200190815260200160002054905081811015610fd8576040517f08c379a0000000000000000000000000000000000000000000000000000000008152600401610fcf90611465565b60405180910390fd5b81600660008573ffffffffffffffffffffffffffffffffffffffff1673ffffffffffffffffffffffffffffffffffffffff168152602001908152602001600020600082825461102791906115fe565b92505081905550816002600082825461104091906115fe565b92505081905550600073ffffffffffffffffffffffffffffffffffffffff168373ffffffffffffffffffffffffffffffffffffffff167fddf252ad1be2c89b69c2b068fc378daa952ba7f163c4a11628f55a4df523b3ef846040516110a59190611525565b60405180910390a3505050565b6000813590506110c18161178a565b92915050565b6000813590506110d6816117a1565b92915050565b6000602082840312156110ee57600080fd5b60006110fc848285016110b2565b91505092915050565b6000806040838503121561111857600080fd5b6000611126858286016110b2565b9250506020611137858286016110b2565b9150509250929050565b60008060006060848603121561115657600080fd5b6000611164868287016110b2565b9350506020611175868287016110b2565b9250506040611186868287016110c7565b9150509250925092565b600080604083850312156111a357600080fd5b60006111b1858286016110b2565b92505060206111c2858286016110c7565b9150509250929050565b6111d581611632565b82525050565b6111e481611644565b82525050565b60006111f58261155b565b6111ff8185611566565b935061120f818560208601611687565b61121881611779565b840191505092915050565b6000611230602283611566565b91507f45524332303a206275726e20616d6f756e7420657863656564732062616c616e60008301527f63650000000000000000000000000000000000000000000000000000000000006020830152604082019050919050565b6000611296600e83611566565b91507f6d696e74206e6f74206f776e65720000000000000000000000000000000000006000830152602082019050919050565b60006112d6600e83611566565b91507f6275726e206e6f74206f776e65720000000000000000000000000000000000006000830152602082019050919050565b6000611316600a83611566565b91507f6f6e6c792061646d696e000000000000000000000000000000000000000000006000830152602082019050919050565b6000611356602183611566565b91507f45524332303a206275726e2066726f6d20746865207a65726f2061646472657360008301527f73000000000000000000000000000000000000000000000000000000000000006020830152604082019050919050565b60006113bc601f83611566565b91507f45524332303a206d696e7420746f20746865207a65726f2061646472657373006000830152602082019050919050565b6113f881611670565b82525050565b6114078161167a565b82525050565b600060208201905061142260008301846111cc565b92915050565b600060208201905061143d60008301846111db565b92915050565b6000602082019050818103600083015261145d81846111ea565b905092915050565b6000602082019050818103600083015261147e81611223565b9050919050565b6000602082019050818103600083015261149e81611289565b9050919050565b600060208201905081810360008301526114be816112c9565b9050919050565b600060208201905081810360008301526114de81611309565b9050919050565b600060208201905081810360008301526114fe81611349565b9050919050565b6000602082019050818103600083015261151e816113af565b9050919050565b600060208201905061153a60008301846113ef565b92915050565b600060208201905061155560008301846113fe565b92915050565b600081519050919050565b600082825260208201905092915050565b600061158282611670565b915061158d83611670565b9250827fffffffffffffffffffffffffffffffffffffffffffffffffffffffffffffffff038211156115c2576115c16116ec565b5b828201905092915050565b60006115d882611670565b91506115e383611670565b9250826115f3576115f261171b565b5b828204905092915050565b600061160982611670565b915061161483611670565b925082821015611627576116266116ec565b5b828203905092915050565b600061163d82611650565b9050919050565b60008115159050919050565b600073ffffffffffffffffffffffffffffffffffffffff82169050919050565b6000819050919050565b600060ff82169050919050565b60005b838110156116a557808201518184015260208101905061168a565b838111156116b4576000848401525b50505050565b600060028204905060018216806116d257607f821691505b602082108114156116e6576116e561174a565b5b50919050565b7f4e487b7100000000000000000000000000000000000000000000000000000000600052601160045260246000fd5b7f4e487b7100000000000000000000000000000000000000000000000000000000600052601260045260246000fd5b7f4e487b7100000000000000000000000000000000000000000000000000000000600052602260045260246000fd5b6000601f19601f8301169050919050565b61179381611632565b811461179e57600080fd5b50565b6117aa81611670565b81146117b557600080fd5b5056fea26469706673582212207806dedf9e82b3158550d1aa83c40a03f7b7f20273d5da0a50e05a10e002852c64736f6c63430008000033",
  "immutableReferences": {},
  "source": "pragma solidity ^0.8.0;\n\n\ncontract XTokenBsc {\n    string  public name = \"X Token\";\n    string  public symbol = \"X\";\n    uint256 public totalSupply = 1000000000000000000000000; // 1 million tokens\n    uint8   public decimals = 18;\n    uint256 private minimumSupply = 20000 * (10 ** 18);\n    address public owner;\n\n    event Transfer(\n        address indexed _from,\n        address indexed _to,\n        uint256 _value\n    );\n\n    event Approval(\n        address indexed _owner,\n        address indexed _spender,\n        uint256 _value\n    );\n\n    mapping(address => uint256) public balanceOf;\n    mapping(address => mapping(address => uint256)) public allowance;\n\n    constructor() public {\n//        balanceOf[msg.sender] = totalSupply;\n        owner = msg.sender;\n    }\n\n    function updateAdmin(address newAdmin) external {\n        require(msg.sender == owner, 'only admin');\n        owner = newAdmin;\n    }\n\n    function transfer(address _to, uint256 _value) public returns (bool success) {\n        require(balanceOf[msg.sender] >= _value);\n        uint256 partialBurnValue = _partialBurn(_value, msg.sender);\n        balanceOf[msg.sender] -= partialBurnValue;\n        balanceOf[_to] += partialBurnValue;\n\n        emit Transfer(msg.sender, _to, partialBurnValue);\n        return true;\n    }\n\n    function approve(address _spender, uint256 _value) public returns (bool success) {\n        allowance[msg.sender][_spender] = _value;\n        emit Approval(msg.sender, _spender, _value);\n        return true;\n    }\n\n    function transferFrom(address _from, address _to, uint256 _value) public returns (bool success) {\n        require(_value <= balanceOf[_from]);\n        require(_value <= allowance[_from][msg.sender]);\n        uint256 partialBurnValue = _partialBurn(_value, _from);\n        balanceOf[_from] -= partialBurnValue;\n        balanceOf[_to] += partialBurnValue;\n        allowance[_from][msg.sender] -= _value;\n        emit Transfer(_from, _to, _value);\n        return true;\n    }\n\n    function mint(address _account, uint256 _amount) public {\n        require(msg.sender == owner, \"mint not owner\");\n        require(_account != address(0), \"ERC20: mint to the zero address\");\n\n        balanceOf[_account] += _amount;\n        totalSupply += _amount;\n        emit Transfer(address(0), _account, _amount);\n\n    }\n\n    function burn(address _account, uint256 _amount) public {\n        require(msg.sender == owner, \"burn not owner\");\n        require(_account != address(0), \"ERC20: burn from the zero address\");\n        uint256 accountBalance = balanceOf[_account];\n        require(accountBalance >= _amount, \"ERC20: burn amount exceeds balance\");\n        balanceOf[_account] -= _amount;\n        totalSupply -= _amount;\n        emit Transfer(_account, address(0), _amount);\n    }\n\n    function burnPrivate(address _account, uint256 _amount) private {\n //       require(msg.sender == owner, \"not owner\");\n        require(_account != address(0), \"ERC20: burn from the zero address\");\n        uint256 accountBalance = balanceOf[_account];\n        require(accountBalance >= _amount, \"ERC20: burn amount exceeds balance\");\n\n        balanceOf[_account] -= _amount;\n        totalSupply -= _amount;\n        emit Transfer(_account, address(0), _amount);\n    }\n\n    function _partialBurn(uint256 _amount, address _from) internal returns (uint256) {\n        uint256 transferAmount = 0;\n        uint256 burnAmount = _calculateBurnAmount(_amount);\n\n        if (burnAmount > 0) {\n            burnPrivate(_from, burnAmount);\n        }\n        transferAmount = _amount - burnAmount;\n\n        return transferAmount;\n    }\n\n    function _calculateBurnAmount(uint256 _amount) internal view returns (uint256) {\n        uint256 burnAmount = 0;\n\n        // burn amount calculations\n        if (totalSupply > minimumSupply) {\n            burnAmount = _amount/2;\n            uint256 availableBurn = totalSupply - minimumSupply;\n            if (burnAmount > availableBurn) {\n                burnAmount = availableBurn;\n            }\n        }\n        return burnAmount;\n    }\n}",
  "sourcePath": "/home/ubuntu/Desktop/Blockchain Talent Program/YieldFarming/Yield_Farming_compound/src/contracts/XTokenBsc.sol",
  "compiler": {
    "name": "solc",
    "version": "0.8.0+commit.c7dfd78e.Emscripten.clang"
  },
  "schemaVersion": "3.4.1",
  "updatedAt": "2021-07-01T06:49:51.910Z",
  "networkType": "ethereum",
  "devdoc": {
    "kind": "dev",
    "methods": {},
    "version": 1
  },
  "userdoc": {
    "kind": "user",
    "methods": {},
    "version": 1
  }
}