{
  "contractName": "XToken",
  "abi": [
    {
      "inputs": [],
      "stateMutability": "nonpayable",
      "type": "constructor"
    },
    {
      "anonymous": false,
      "inputs": [
        {
          "indexed": true,
          "internalType": "address",
          "name": "_owner",
          "type": "address"
        },
        {
          "indexed": true,
          "internalType": "address",
          "name": "_spender",
          "type": "address"
        },
        {
          "indexed": false,
          "internalType": "uint256",
          "name": "_value",
          "type": "uint256"
        }
      ],
      "name": "Approval",
      "type": "event"
    },
    {
      "anonymous": false,
      "inputs": [
        {
          "indexed": true,
          "internalType": "address",
          "name": "_from",
          "type": "address"
        },
        {
          "indexed": true,
          "internalType": "address",
          "name": "_to",
          "type": "address"
        },
        {
          "indexed": false,
          "internalType": "uint256",
          "name": "_value",
          "type": "uint256"
        }
      ],
      "name": "Transfer",
      "type": "event"
    },
    {
      "inputs": [
        {
          "internalType": "address",
          "name": "",
          "type": "address"
        },
        {
          "internalType": "address",
          "name": "",
          "type": "address"
        }
      ],
      "name": "allowance",
      "outputs": [
        {
          "internalType": "uint256",
          "name": "",
          "type": "uint256"
        }
      ],
      "stateMutability": "view",
      "type": "function",
      "constant": true
    },
    {
      "inputs": [
        {
          "internalType": "address",
          "name": "",
          "type": "address"
        }
      ],
      "name": "balanceOf",
      "outputs": [
        {
          "internalType": "uint256",
          "name": "",
          "type": "uint256"
        }
      ],
      "stateMutability": "view",
      "type": "function",
      "constant": true
    },
    {
      "inputs": [],
      "name": "decimals",
      "outputs": [
        {
          "internalType": "uint8",
          "name": "",
          "type": "uint8"
        }
      ],
      "stateMutability": "view",
      "type": "function",
      "constant": true
    },
    {
      "inputs": [],
      "name": "name",
      "outputs": [
        {
          "internalType": "string",
          "name": "",
          "type": "string"
        }
      ],
      "stateMutability": "view",
      "type": "function",
      "constant": true
    },
    {
      "inputs": [],
      "name": "owner",
      "outputs": [
        {
          "internalType": "address",
          "name": "",
          "type": "address"
        }
      ],
      "stateMutability": "view",
      "type": "function",
      "constant": true
    },
    {
      "inputs": [],
      "name": "symbol",
      "outputs": [
        {
          "internalType": "string",
          "name": "",
          "type": "string"
        }
      ],
      "stateMutability": "view",
      "type": "function",
      "constant": true
    },
    {
      "inputs": [],
      "name": "totalSupply",
      "outputs": [
        {
          "internalType": "uint256",
          "name": "",
          "type": "uint256"
        }
      ],
      "stateMutability": "view",
      "type": "function",
      "constant": true
    },
    {
      "inputs": [
        {
          "internalType": "address",
          "name": "newAdmin",
          "type": "address"
        }
      ],
      "name": "updateAdmin",
      "outputs": [],
      "stateMutability": "nonpayable",
      "type": "function"
    },
    {
      "inputs": [
        {
          "internalType": "address",
          "name": "_to",
          "type": "address"
        },
        {
          "internalType": "uint256",
          "name": "_value",
          "type": "uint256"
        }
      ],
      "name": "transfer",
      "outputs": [
        {
          "internalType": "bool",
          "name": "success",
          "type": "bool"
        }
      ],
      "stateMutability": "nonpayable",
      "type": "function"
    },
    {
      "inputs": [
        {
          "internalType": "address",
          "name": "_spender",
          "type": "address"
        },
        {
          "internalType": "uint256",
          "name": "_value",
          "type": "uint256"
        }
      ],
      "name": "approve",
      "outputs": [
        {
          "internalType": "bool",
          "name": "success",
          "type": "bool"
        }
      ],
      "stateMutability": "nonpayable",
      "type": "function"
    },
    {
      "inputs": [
        {
          "internalType": "address",
          "name": "_from",
          "type": "address"
        },
        {
          "internalType": "address",
          "name": "_to",
          "type": "address"
        },
        {
          "internalType": "uint256",
          "name": "_value",
          "type": "uint256"
        }
      ],
      "name": "transferFrom",
      "outputs": [
        {
          "internalType": "bool",
          "name": "success",
          "type": "bool"
        }
      ],
      "stateMutability": "nonpayable",
      "type": "function"
    },
    {
      "inputs": [
        {
          "internalType": "address",
          "name": "_account",
          "type": "address"
        },
        {
          "internalType": "uint256",
          "name": "_amount",
          "type": "uint256"
        }
      ],
      "name": "mint",
      "outputs": [],
      "stateMutability": "nonpayable",
      "type": "function"
    },
    {
      "inputs": [
        {
          "internalType": "address",
          "name": "_account",
          "type": "address"
        },
        {
          "internalType": "uint256",
          "name": "_amount",
          "type": "uint256"
        }
      ],
      "name": "burn",
      "outputs": [],
      "stateMutability": "nonpayable",
      "type": "function"
    }
  ],
  "bytecode": "0x60806040526040518060400160405280600781526020017f5820546f6b656e00000000000000000000000000000000000000000000000000815250600090805190602001906200005192919062000173565b506040518060400160405280600181526020017f5800000000000000000000000000000000000000000000000000000000000000815250600190805190602001906200009f92919062000173565b5069d3c21bcecceda10000006002556012600360006101000a81548160ff021916908360ff16021790555069043c33c1937564800000600455348015620000e557600080fd5b50600254600660003373ffffffffffffffffffffffffffffffffffffffff1673ffffffffffffffffffffffffffffffffffffffff1681526020019081526020016000208190555033600560006101000a81548173ffffffffffffffffffffffffffffffffffffffff021916908373ffffffffffffffffffffffffffffffffffffffff16021790555062000288565b828054620001819062000223565b90600052602060002090601f016020900481019282620001a55760008555620001f1565b82601f10620001c057805160ff1916838001178555620001f1565b82800160010185558215620001f1579182015b82811115620001f0578251825591602001919060010190620001d3565b5b50905062000200919062000204565b5090565b5b808211156200021f57600081600090555060010162000205565b5090565b600060028204905060018216806200023c57607f821691505b6020821081141562000253576200025262000259565b5b50919050565b7f4e487b7100000000000000000000000000000000000000000000000000000000600052602260045260246000fd5b61178e80620002986000396000f3fe608060405234801561001057600080fd5b50600436106100cf5760003560e01c806370a082311161008c5780639dc29fac116100665780639dc29fac14610216578063a9059cbb14610232578063dd62ed3e14610262578063e2f273bd14610292576100cf565b806370a08231146101aa5780638da5cb5b146101da57806395d89b41146101f8576100cf565b806306fdde03146100d4578063095ea7b3146100f257806318160ddd1461012257806323b872dd14610140578063313ce5671461017057806340c10f191461018e575b600080fd5b6100dc6102ae565b6040516100e99190611403565b60405180910390f35b61010c60048036038101906101079190611190565b61033c565b60405161011991906113e8565b60405180910390f35b61012a61042e565b60405161013791906114c5565b60405180910390f35b61015a60048036038101906101559190611141565b610434565b60405161016791906113e8565b60405180910390f35b6101786106c9565b60405161018591906114e0565b60405180910390f35b6101a860048036038101906101a39190611190565b6106dc565b005b6101c460048036038101906101bf91906110dc565b6108b5565b6040516101d191906114c5565b60405180910390f35b6101e26108cd565b6040516101ef91906113cd565b60405180910390f35b6102006108f3565b60405161020d9190611403565b60405180910390f35b610230600480360381019061022b9190611190565b610981565b005b61024c60048036038101906102479190611190565b610be2565b60405161025991906113e8565b60405180910390f35b61027c60048036038101906102779190611105565b610d5a565b60405161028991906114c5565b60405180910390f35b6102ac60048036038101906102a791906110dc565b610d7f565b005b600080546102bb9061165a565b80601f01602080910402602001604051908101604052809291908181526020018280546102e79061165a565b80156103345780601f1061030957610100808354040283529160200191610334565b820191906000526020600020905b81548152906001019060200180831161031757829003601f168201915b505050505081565b600081600760003373ffffffffffffffffffffffffffffffffffffffff1673ffffffffffffffffffffffffffffffffffffffff16815260200190815260200160002060008573ffffffffffffffffffffffffffffffffffffffff1673ffffffffffffffffffffffffffffffffffffffff168152602001908152602001600020819055508273ffffffffffffffffffffffffffffffffffffffff163373ffffffffffffffffffffffffffffffffffffffff167f8c5be1e5ebec7d5bd14f71427d1e84f3dd0314c0f7b2291e5b200ac8c7c3b9258460405161041c91906114c5565b60405180910390a36001905092915050565b60025481565b6000600660008573ffffffffffffffffffffffffffffffffffffffff1673ffffffffffffffffffffffffffffffffffffffff1681526020019081526020016000205482111561048257600080fd5b600760008573ffffffffffffffffffffffffffffffffffffffff1673ffffffffffffffffffffffffffffffffffffffff16815260200190815260200160002060003373ffffffffffffffffffffffffffffffffffffffff1673ffffffffffffffffffffffffffffffffffffffff1681526020019081526020016000205482111561050b57600080fd5b60006105178386610e53565b905080600660008773ffffffffffffffffffffffffffffffffffffffff1673ffffffffffffffffffffffffffffffffffffffff1681526020019081526020016000206000828254610568919061159e565b9250508190555080600660008673ffffffffffffffffffffffffffffffffffffffff1673ffffffffffffffffffffffffffffffffffffffff16815260200190815260200160002060008282546105be9190611517565b9250508190555082600760008773ffffffffffffffffffffffffffffffffffffffff1673ffffffffffffffffffffffffffffffffffffffff16815260200190815260200160002060003373ffffffffffffffffffffffffffffffffffffffff1673ffffffffffffffffffffffffffffffffffffffff1681526020019081526020016000206000828254610651919061159e565b925050819055508373ffffffffffffffffffffffffffffffffffffffff168573ffffffffffffffffffffffffffffffffffffffff167fddf252ad1be2c89b69c2b068fc378daa952ba7f163c4a11628f55a4df523b3ef856040516106b591906114c5565b60405180910390a360019150509392505050565b600360009054906101000a900460ff1681565b600560009054906101000a900473ffffffffffffffffffffffffffffffffffffffff1673ffffffffffffffffffffffffffffffffffffffff163373ffffffffffffffffffffffffffffffffffffffff161461076c576040517f08c379a000000000000000000000000000000000000000000000000000000000815260040161076390611485565b60405180910390fd5b600073ffffffffffffffffffffffffffffffffffffffff168273ffffffffffffffffffffffffffffffffffffffff1614156107dc576040517f08c379a00000000000000000000000000000000000000000000000000000000081526004016107d3906114a5565b60405180910390fd5b80600660008473ffffffffffffffffffffffffffffffffffffffff1673ffffffffffffffffffffffffffffffffffffffff168152602001908152602001600020600082825461082b9190611517565b9250508190555080600260008282546108449190611517565b925050819055508173ffffffffffffffffffffffffffffffffffffffff16600073ffffffffffffffffffffffffffffffffffffffff167fddf252ad1be2c89b69c2b068fc378daa952ba7f163c4a11628f55a4df523b3ef836040516108a991906114c5565b60405180910390a35050565b60066020528060005260406000206000915090505481565b600560009054906101000a900473ffffffffffffffffffffffffffffffffffffffff1681565b600180546109009061165a565b80601f016020809104026020016040519081016040528092919081815260200182805461092c9061165a565b80156109795780601f1061094e57610100808354040283529160200191610979565b820191906000526020600020905b81548152906001019060200180831161095c57829003601f168201915b505050505081565b600560009054906101000a900473ffffffffffffffffffffffffffffffffffffffff1673ffffffffffffffffffffffffffffffffffffffff163373ffffffffffffffffffffffffffffffffffffffff1614610a11576040517f08c379a0000000000000000000000000000000000000000000000000000000008152600401610a0890611485565b60405180910390fd5b600073ffffffffffffffffffffffffffffffffffffffff168273ffffffffffffffffffffffffffffffffffffffff161415610a81576040517f08c379a0000000000000000000000000000000000000000000000000000000008152600401610a7890611465565b60405180910390fd5b6000600660008473ffffffffffffffffffffffffffffffffffffffff1673ffffffffffffffffffffffffffffffffffffffff16815260200190815260200160002054905081811015610b08576040517f08c379a0000000000000000000000000000000000000000000000000000000008152600401610aff90611425565b60405180910390fd5b81600660008573ffffffffffffffffffffffffffffffffffffffff1673ffffffffffffffffffffffffffffffffffffffff1681526020019081526020016000206000828254610b57919061159e565b925050819055508160026000828254610b70919061159e565b92505081905550600073ffffffffffffffffffffffffffffffffffffffff168373ffffffffffffffffffffffffffffffffffffffff167fddf252ad1be2c89b69c2b068fc378daa952ba7f163c4a11628f55a4df523b3ef84604051610bd591906114c5565b60405180910390a3505050565b600081600660003373ffffffffffffffffffffffffffffffffffffffff1673ffffffffffffffffffffffffffffffffffffffff168152602001908152602001600020541015610c3057600080fd5b6000610c3c8333610e53565b905080600660003373ffffffffffffffffffffffffffffffffffffffff1673ffffffffffffffffffffffffffffffffffffffff1681526020019081526020016000206000828254610c8d919061159e565b9250508190555080600660008673ffffffffffffffffffffffffffffffffffffffff1673ffffffffffffffffffffffffffffffffffffffff1681526020019081526020016000206000828254610ce39190611517565b925050819055508373ffffffffffffffffffffffffffffffffffffffff163373ffffffffffffffffffffffffffffffffffffffff167fddf252ad1be2c89b69c2b068fc378daa952ba7f163c4a11628f55a4df523b3ef83604051610d4791906114c5565b60405180910390a3600191505092915050565b6007602052816000526040600020602052806000526040600020600091509150505481565b600560009054906101000a900473ffffffffffffffffffffffffffffffffffffffff1673ffffffffffffffffffffffffffffffffffffffff163373ffffffffffffffffffffffffffffffffffffffff1614610e0f576040517f08c379a0000000000000000000000000000000000000000000000000000000008152600401610e0690611445565b60405180910390fd5b80600560006101000a81548173ffffffffffffffffffffffffffffffffffffffff021916908373ffffffffffffffffffffffffffffffffffffffff16021790555050565b600080600090506000610e6585610e94565b90506000811115610e7b57610e7a8482610ee1565b5b8085610e87919061159e565b9150819250505092915050565b600080600090506004546002541115610ed857600283610eb4919061156d565b90506000600454600254610ec8919061159e565b905080821115610ed6578091505b505b80915050919050565b600073ffffffffffffffffffffffffffffffffffffffff168273ffffffffffffffffffffffffffffffffffffffff161415610f51576040517f08c379a0000000000000000000000000000000000000000000000000000000008152600401610f4890611465565b60405180910390fd5b6000600660008473ffffffffffffffffffffffffffffffffffffffff1673ffffffffffffffffffffffffffffffffffffffff16815260200190815260200160002054905081811015610fd8576040517f08c379a0000000000000000000000000000000000000000000000000000000008152600401610fcf90611425565b60405180910390fd5b81600660008573ffffffffffffffffffffffffffffffffffffffff1673ffffffffffffffffffffffffffffffffffffffff1681526020019081526020016000206000828254611027919061159e565b925050819055508160026000828254611040919061159e565b92505081905550600073ffffffffffffffffffffffffffffffffffffffff168373ffffffffffffffffffffffffffffffffffffffff167fddf252ad1be2c89b69c2b068fc378daa952ba7f163c4a11628f55a4df523b3ef846040516110a591906114c5565b60405180910390a3505050565b6000813590506110c18161172a565b92915050565b6000813590506110d681611741565b92915050565b6000602082840312156110ee57600080fd5b60006110fc848285016110b2565b91505092915050565b6000806040838503121561111857600080fd5b6000611126858286016110b2565b9250506020611137858286016110b2565b9150509250929050565b60008060006060848603121561115657600080fd5b6000611164868287016110b2565b9350506020611175868287016110b2565b9250506040611186868287016110c7565b9150509250925092565b600080604083850312156111a357600080fd5b60006111b1858286016110b2565b92505060206111c2858286016110c7565b9150509250929050565b6111d5816115d2565b82525050565b6111e4816115e4565b82525050565b60006111f5826114fb565b6111ff8185611506565b935061120f818560208601611627565b61121881611719565b840191505092915050565b6000611230602283611506565b91507f45524332303a206275726e20616d6f756e7420657863656564732062616c616e60008301527f63650000000000000000000000000000000000000000000000000000000000006020830152604082019050919050565b6000611296600a83611506565b91507f6f6e6c792061646d696e000000000000000000000000000000000000000000006000830152602082019050919050565b60006112d6602183611506565b91507f45524332303a206275726e2066726f6d20746865207a65726f2061646472657360008301527f73000000000000000000000000000000000000000000000000000000000000006020830152604082019050919050565b600061133c600983611506565b91507f6e6f74206f776e657200000000000000000000000000000000000000000000006000830152602082019050919050565b600061137c601f83611506565b91507f45524332303a206d696e7420746f20746865207a65726f2061646472657373006000830152602082019050919050565b6113b881611610565b82525050565b6113c78161161a565b82525050565b60006020820190506113e260008301846111cc565b92915050565b60006020820190506113fd60008301846111db565b92915050565b6000602082019050818103600083015261141d81846111ea565b905092915050565b6000602082019050818103600083015261143e81611223565b9050919050565b6000602082019050818103600083015261145e81611289565b9050919050565b6000602082019050818103600083015261147e816112c9565b9050919050565b6000602082019050818103600083015261149e8161132f565b9050919050565b600060208201905081810360008301526114be8161136f565b9050919050565b60006020820190506114da60008301846113af565b92915050565b60006020820190506114f560008301846113be565b92915050565b600081519050919050565b600082825260208201905092915050565b600061152282611610565b915061152d83611610565b9250827fffffffffffffffffffffffffffffffffffffffffffffffffffffffffffffffff038211156115625761156161168c565b5b828201905092915050565b600061157882611610565b915061158383611610565b925082611593576115926116bb565b5b828204905092915050565b60006115a982611610565b91506115b483611610565b9250828210156115c7576115c661168c565b5b828203905092915050565b60006115dd826115f0565b9050919050565b60008115159050919050565b600073ffffffffffffffffffffffffffffffffffffffff82169050919050565b6000819050919050565b600060ff82169050919050565b60005b8381101561164557808201518184015260208101905061162a565b83811115611654576000848401525b50505050565b6000600282049050600182168061167257607f821691505b60208210811415611686576116856116ea565b5b50919050565b7f4e487b7100000000000000000000000000000000000000000000000000000000600052601160045260246000fd5b7f4e487b7100000000000000000000000000000000000000000000000000000000600052601260045260246000fd5b7f4e487b7100000000000000000000000000000000000000000000000000000000600052602260045260246000fd5b6000601f19601f8301169050919050565b611733816115d2565b811461173e57600080fd5b50565b61174a81611610565b811461175557600080fd5b5056fea2646970667358221220a1d22ff131ce3edb32e719f5a1616a74fac33dcc30f6b7841ba41af1e3d3f2b564736f6c63430008000033",
  "immutableReferences": {},
  "source": "pragma solidity ^0.8.0;\n\n\ncontract XToken {\n    string  public name = \"X Token\";\n    string  public symbol = \"X\";\n    uint256 public totalSupply = 1000000000000000000000000; // 1 million tokens\n    uint8   public decimals = 18;\n    uint256 private minimumSupply = 20000 * (10 ** 18);\n    address public owner;\n\n    event Transfer(\n        address indexed _from,\n        address indexed _to,\n        uint256 _value\n    );\n\n    event Approval(\n        address indexed _owner,\n        address indexed _spender,\n        uint256 _value\n    );\n\n    mapping(address => uint256) public balanceOf;\n    mapping(address => mapping(address => uint256)) public allowance;\n\n    constructor() public {\n        balanceOf[msg.sender] = totalSupply;\n        owner = msg.sender;\n    }\n\n    function updateAdmin(address newAdmin) external {\n        require(msg.sender == owner, 'only admin');\n        owner = newAdmin;\n    }\n\n    function transfer(address _to, uint256 _value) public returns (bool success) {\n        require(balanceOf[msg.sender] >= _value);\n        uint256 partialBurnValue = _partialBurn(_value, msg.sender);\n        balanceOf[msg.sender] -= partialBurnValue;\n        balanceOf[_to] += partialBurnValue;\n\n        emit Transfer(msg.sender, _to, partialBurnValue);\n        return true;\n    }\n\n    function approve(address _spender, uint256 _value) public returns (bool success) {\n        allowance[msg.sender][_spender] = _value;\n        emit Approval(msg.sender, _spender, _value);\n        return true;\n    }\n\n    function transferFrom(address _from, address _to, uint256 _value) public returns (bool success) {\n        require(_value <= balanceOf[_from]);\n        require(_value <= allowance[_from][msg.sender]);\n        uint256 partialBurnValue = _partialBurn(_value, _from);\n        balanceOf[_from] -= partialBurnValue;\n        balanceOf[_to] += partialBurnValue;\n        allowance[_from][msg.sender] -= _value;\n        emit Transfer(_from, _to, _value);\n        return true;\n    }\n\n    function mint(address _account, uint256 _amount) public {\n        require(msg.sender == owner, \"not owner\");\n        require(_account != address(0), \"ERC20: mint to the zero address\");\n\n        balanceOf[_account] += _amount;\n        totalSupply += _amount;\n        emit Transfer(address(0), _account, _amount);\n\n    }\n\n    function burn(address _account, uint256 _amount) public {\n        require(msg.sender == owner, \"not owner\");\n        require(_account != address(0), \"ERC20: burn from the zero address\");\n        uint256 accountBalance = balanceOf[_account];\n        require(accountBalance >= _amount, \"ERC20: burn amount exceeds balance\");\n        balanceOf[_account] -= _amount;\n        totalSupply -= _amount;\n        emit Transfer(_account, address(0), _amount);\n    }\n\n    function burnPrivate(address _account, uint256 _amount) private {\n //       require(msg.sender == owner, \"not owner\");\n        require(_account != address(0), \"ERC20: burn from the zero address\");\n        uint256 accountBalance = balanceOf[_account];\n        require(accountBalance >= _amount, \"ERC20: burn amount exceeds balance\");\n\n        balanceOf[_account] -= _amount;\n        totalSupply -= _amount;\n        emit Transfer(_account, address(0), _amount);\n    }\n\n    function _partialBurn(uint256 _amount, address _from) internal returns (uint256) {\n        uint256 transferAmount = 0;\n        uint256 burnAmount = _calculateBurnAmount(_amount);\n\n        if (burnAmount > 0) {\n            burnPrivate(_from, burnAmount);\n        }\n        transferAmount = _amount - burnAmount;\n\n        return transferAmount;\n    }\n\n    function _calculateBurnAmount(uint256 _amount) internal view returns (uint256) {\n        uint256 burnAmount = 0;\n\n        // burn amount calculations\n        if (totalSupply > minimumSupply) {\n            burnAmount = _amount/2;\n            uint256 availableBurn = totalSupply - minimumSupply;\n            if (burnAmount > availableBurn) {\n                burnAmount = availableBurn;\n            }\n        }\n        return burnAmount;\n    }\n}",
  "sourcePath": "/home/ubuntu/Desktop/Blockchain Talent Program/YieldFarming/Yield_Farming_compound/src/contracts/XToken.sol",
  "compiler": {
    "name": "solc",
    "version": "0.8.0+commit.c7dfd78e.Emscripten.clang"
  },
  "schemaVersion": "3.4.1",
  "updatedAt": "2021-07-05T03:11:55.289Z",
  "networkType": "ethereum",
  "devdoc": {
    "kind": "dev",
    "methods": {},
    "version": 1
  },
  "userdoc": {
    "kind": "user",
    "methods": {},
    "version": 1
  }
}